:020000040802F0
:10000000B0100020CD010208D5010208D701020876
:10001000D9010208DB010208DD010208000000002E
:10002000000000000000000000000000DF010208E6
:10003000E101020800000000E3010208E1300208CB
:10004000E7010208E7010208E7010208E7010208E8
:10005000E7010208E7010208E7010208E7010208D8
:10006000E7010208E7010208E7010208E7010208C8
:10007000E7010208E7010208E7010208E7010208B8
:10008000E7010208E7010208E7010208E7010208A8
:10009000E7010208E7010208E7010208E701020898
:1000A000E7010208E7010208E7010208E701020888
:1000B000E7010208E7010208E7010208E701020878
:1000C000E7010208E7010208E7010208E701020868
:1000D000E7010208053A0208E7010208E701020801
:1000E000E7010208E7010208E7010208E701020848
:1000F000E7010208E7010208E7010208E701020838
:10010000E7010208E7010208E7010208E701020827
:10011000E7010208E7010208C1320208DD320208E5
:10012000E7010208E7010208E7010208E701020807
:1001300000F002F800F03AF80AA090E8000C8244BF
:100140008344AAF10107DA4501D100F02FF8AFF29C
:10015000090EBAE80F0013F0010F18BFFB1A43F0A5
:1001600001031847D03A0000F03A0000103A24BFCB
:1001700078C878C1FAD8520724BF30C830C144BF0C
:1001800004680C607047000000230024002500264E
:10019000103A28BF78C1FBD8520728BF30C148BFEA
:1001A0000B6070471FB51FBD10B510BD00F082F881
:1001B0001146FFF7F7FF03F077FC00F0A0F803B457
:1001C000FFF7F2FF03BC00F0A7F8000009488047E2
:1001D00009480047FEE7FEE7FEE7FEE7FEE7FEE729
:1001E000FEE7FEE7FEE7FEE704480549054A064B41
:1001F000704700007132020831010208B00A002085
:10020000B0100020B00E0020B00E002010B5431C2E
:1002100002E010F8011B71B18107FAD14FF00132F1
:1002200002C88C1A8C4314EAC211F9D0C01A0A060B
:1002300003D0C01E10BDC01A10BD0A0401D0801E1C
:1002400010BD0902FCD0401E10BD10B5203AC0F010
:100250000B80B1E81850203AA0E81850B1E81850C7
:10026000A0E81850BFF4F5AF5FEA027C24BFB1E804
:100270001850A0E8185044BF18C918C0BDE8104075
:100280005FEA827C24BF51F8043B40F8043B08BF7E
:100290007047D20728BF31F8023B48BF11F8012B45
:1002A00028BF20F8023B48BF00F8012B7047704779
:1002B00070477047754600F02BF8AE46050069465A
:1002C000534620F00700854618B020B5FFF78CFF95
:1002D000BDE820404FF000064FF000074FF0000847
:1002E0004FF0000B21F00701AC46ACE8C009ACE8C8
:1002F000C009ACE8C009ACE8C0098D46704710B52C
:100300000446AFF300802046BDE81040FFF757BF1A
:1003100000487047500A002001491820ABBEFEE794
:1003200026000200704700002DE9F0412A4C00250C
:1003300005EB450000EBC51004EB800000F0A2F8CF
:100340006D1CEDB2032DF3D35FF0000101EB410012
:1003500000EBC11004EB8000002290F80952134614
:1003600080F80A5290F8085280F8095290F8085222
:10037000072D0BD090F8085215F1010580F80852AE
:1003800000EB82152D7A1DB1012305E00025F5E76C
:10039000521CD2B2082AF3D30370491CC9B20329F4
:1003A000D4D300255FF0010705EB450000EBC51035
:1003B00004EB8006307848B196F80802C00140F49A
:1003C000C251706802F057FA86F80B726D1CEDB2DC
:1003D000032DE9D3BDE8F0812C0000202DE9F04188
:1003E0001C4F00254FF4C25605EB450000EBC5102D
:1003F00007EB8004606801F05CFF0028F4D16068BE
:10040000314602F038FA606801F053FF0028FAD153
:10041000606802F02AFA60680068016821F0400113
:1004200001606068314602F026FA606801F041FF21
:100430000028FAD1606802F018FA60680068016864
:1004400021F0400101606D1CEDB2032DCCD3BDE85D
:10045000F08100002C000020094A002000EB400140
:1004600001EBC01102EB8101496809680B6823F0B8
:1004700040030B60401CC0B20328EFD3704700005C
:100480002C0000202DE9F0470446002700783D4667
:10049000B94650B194F80B0200280ED0606801F004
:1004A00008FF4FF0010A50B166E084F80B9284F81F
:1004B000089284F8099284F80A92BDE8F08760688F
:1004C00002F0D3F94FEA1038C0F30B0601F0A6FF93
:1004D00090B394F80A1241454ED104EB8810017A8A
:1004E00059B394F80A22494604EB821282F8099023
:1004F000428AB24208D24184C18B028B914238D2E7
:10050000C18B491CC18334E0828AB24207D941843D
:10051000018C428B91422CD2018C491C20E0428CF0
:10052000838B9A420AD28684428C00EB4202D684A4
:10053000428C521C428412E01BE013E000EB4502A7
:10054000138DD384D28C6D1CEDB217440F2DF5D3CF
:1005500000EB4502D684D28C3A4412098284C183CE
:10056000018406E04FEA090094F80A1204EB8111B5
:10057000487284F80B92A0E75046F5E72DE9F84F52
:1005800000204749012293468A460A54401CC0B2C3
:100590000328F8D3DFF80C91002606EB460000EBA9
:1005A000C618002509EB880707EB8514E07A009050
:1005B00003F070FA19F8281089B1217A59B150B1B5
:1005C000E08B218B884203D2208C618B884202D33E
:1005D000E168009888476D1CEDB2082DE4D3761CC5
:1005E000F6B2032ED9D300224846164602EB42014A
:1005F000002301EBC21500BF10F8251019B300EB62
:10060000850101EB83110C7ACCB10F7C91F811C0FC
:100610008C8C07EB470808EBC71700EB870707EB45
:100620008C17BF8CBC4201D3E41B00E03C1BCF8A7B
:10063000A4B2A74202D881F80AB000E08E725B1C17
:10064000DBB2082BD8D3521CD2B2032ACED300215E
:1006500001EB410303EBC115002200EB850700BF4E
:1006600007EB8213DC7A10F825C0BCF1000F0BD029
:1006700093F808C0BCF1000F06D093F809C0BCF194
:10068000000F01D19B7A0BB10AF80460521CD2B260
:10069000082AE5D3491CC9B20329D9D3BDE8F88F8C
:1006A000040000202C000020032802D20249085C2C
:1006B0007047002070470000040000202DE9F05F23
:1006C0000025DFF8C4A34FF0040B4FF010092C46AF
:1006D0005FF0010705EB450000EBC511D0460AF8B5
:1006E00021700AEB810686F8084286F8094286F8EE
:1006F0000A4286F80B42002D7ED0012D7DD000F0FD
:10070000B5FA7060DFF884C300215A4606EB811009
:10071000077244728472C0F80CC002834283A0F84E
:100720001C90C483048444848484002300EB430825
:10073000A8F826405B1CDBB2102BF7D3491CC9B2CA
:100740000829E3D36D1CEDB2032DC3D3D04A00209A
:10075000BE4600BF02F800E0401CC0B20328F9D337
:1007600050468AF80B4040F6F222AAF8122040F6D2
:100770002B23AAF8143002218AF810108AF811B03D
:100780001E24AAF8164000218AF84B1040F64F05A7
:10079000AAF8525040F2AA76AAF85460022180F8D2
:1007A0005010052180F851101921A0F8561000278B
:1007B00080F88B7040F2FB39A0F8929040F2B53A85
:1007C000A0F894A0022780F89070062780F8917016
:1007D000A0F89610002780F8CB704FF46977A0F846
:1007E000D27040F2673CA0F8D4C04FF0020880F805
:1007F000D0804FF0070801E03AE13EE180F8D18077
:10080000A0F8D61080F80BE1A0F81221A0F814315E
:100810004FF0010880F810814FF0000880F8118136
:10082000A0F816414FF0010880F84B81A0F8525112
:10083000A0F8546180F8508180F85181A0F85611D9
:1008400080F88B81A0F89291A0F894A180F8908113
:100850004FF0020880F89181A0F896114FF001083E
:1008600080F8CB81A0F8D271A0F8D4C180F8D081F3
:100870004FF0030E80F8D1E1A0F8D61180F817826E
:10088000A0F81E22A0F820324FF0000880F81C8249
:1008900080F81DB2A0F822424FF0010880F857827C
:1008A000A0F85E52A0F860624FF0000880F85C8209
:1008B0004FF0050880F85D82A0F862124FF0010841
:1008C00080F89782A0F89E92A0F8A0A24FF00008AE
:1008D00080F89C824FF0060880F89D82A0F8A21252
:1008E0004FF0010880F8D782A0F8DE72A0F8E0C2CD
:1008F0004FF0000880F8DC824FF0070880F8DD82B6
:10090000A0F8E2124FF0020880F81783A0F81E2327
:10091000A0F8203380F81C834FF0000880F81D8376
:10092000A0F822434FF0020880F85783A0F85E53E6
:10093000A0F8606380F85C834FF0010880F85D8365
:10094000A0F862134FF0020880F89783A0F89E93F6
:10095000A0F8A0A380F89C8380F89D83A0F8A21340
:1009600080F8D783A0F8DE73A0F8E0C380F8DC83BA
:1009700080F8DDE3A0F8E21380F82384A0F82A24AD
:10098000A0F82C344FF0010880F8288480F829B4AE
:10099000A0F82E444FF0020880F86384A0F86A544F
:1009A000A0F86C644FF0010880F868844FF00508E7
:1009B00080F86984A0F86E144FF0020880F8A384D0
:1009C000A0F8AA94A0F8ACA44FF0010880F8A8847D
:1009D0004FF0060880F8A984A0F8AE144FF0020882
:1009E00080F8E384A0F8EA74A0F8ECC44FF00108A2
:1009F00080F8E8844FF0070880F8E984A0F8EE1446
:100A00004FF0000880F82385A0F82A25A0F82C359F
:100A100080F8288580F82985A0F82E4580F8638520
:100A2000A0F86A55A0F86C6580F86885012280F806
:100A30006925A0F86E1580F8A385A0F8AA95A0F8FE
:100A4000ACA5002280F8A825022280F8A925A0F8EC
:100A5000AE15002280F8E325A0F8EA75A0F8ECC5F1
:100A600080F8E82580F8E9E5A0F8EE15BDE8F09FEC
:100A700000F0F4F8C8F8040044E600F0F3F8024986
:100A8000C1F810023EE600002C0000204D310208A3
:100A90000400002010B5044601F0BFF8D4E90010AE
:100AA00081F30888BDE810400047000010B5002021
:100AB00002F016FE012002F013FE022002F010FEEA
:100AC0000122BDE810401146014800F058BA00006C
:100AD000000C014010B50024204602F079FD2046AC
:100AE00002F03AFD641CE4B2032CF5D3BDE81040DB
:100AF00000F008B800220121014800F040BA0000CF
:100B0000000C014000220221014800F038BA000028
:100B10000008014001220221014800F030BA000023
:100B2000000801402DE9FF4100254FF40071012428
:100B300002268DE87200164F2A46384600F01FFA4A
:100B40006946384600F01EF921028DE87200114F07
:100B50000022384600F013FA6946384600F012F9D0
:100B6000E1028DE872000022384600F008FA69467A
:100B7000384600F007F921038DE87200002238465C
:100B800000F0FDF96946384600F0FCF8BDE8FF8149
:100B9000001001400008014070B500F0F5F91A4E50
:100BA00004461A4D3068201AB0F5FA7F04D3A91410
:100BB000284600F0E0F93460002002F06BFF144B8F
:100BC0004FF40071C8B10022184600F0D8F9012096
:100BD00002F060FF4FF4807188B10022284600F0D7
:100BE000CEF9022002F056FF4FF4006148B1002216
:100BF0002846BDE8704000F0C2B90122E4E70122B6
:100C0000ECE70122F4E700000800002000080140A2
:100C10000010014000EB400101EBC010014901EB65
:100C2000800070472C0000202DE9F04188460746DF
:100C300000F0AAF90546B84707E000BF00F0A4F9A4
:100C40000646B847844202D035460446F6E7A91B5B
:100C50004145F3D32046BDE8F081000000487047CD
:100C60005006002000487047A80600200048704742
:100C700000070020004870475807002000487047D0
:100C80009407002000487047D0070020154808B599
:100C9000816941F004018161816901F004010091E1
:100CA000816941F008018161816901F008010091C9
:100CB000816941F010018161816901F010010091A9
:100CC000816941F020018161816901F02001009179
:100CD000816941F040018161806900F0400000902D
:100CE00008BD00000010024010B50446007800283E
:100CF0001CD0A068804701004FF000000BD020718D
:100D0000E0786178884201D0401CE070C0B288422F
:100D10000CD1012009E0E0702279A1788A4201D04B
:100D2000521C2271D2B28A4200D1207310BD000041
:100D30001FB540210120CDE90010002002900220C3
:100D4000084C03900022204600F019F9694620461D
:100D500000F018F80448416821F0E06141F00071AA
:100D600041601FBD001401400000014031B500F09A
:100D70000BF9044600F008F90099001B8842F9D3EA
:100D800038BD00002DE9F84FDFF8B8A100220AF1C4
:100D9000040B144601274FF00F090BF1040E00BF9E
:100DA0000B6807FA04F52B40AB4274D1DFF898C109
:100DB0004E68A6EB0C0866452BD00DDC032E34D014
:100DC00005DC36B3012E19D0022E2FD11BE0112ED7
:100DD00016D0122E2AD119E0B8F5881F19D006DCDA
:100DE000B8F5803F15D0B8F5801F1FD111E0B8F5D8
:100DF000001F0ED0B8F5041F18D10AE0CA6815E02C
:100E0000CA68121D12E0CA6808320FE0CA680C32C4
:100E10000CE08A682AB1012A4FF0080203D045612C
:100E200004E0042202E0056100E00022FF2B01D86B
:100E3000064601E000F104064FEA840501D9A5F158
:100E40002005D6F800C009FA05F82CEA080C02FAC9
:100E500005F54CEA050CC6F800C04D68ED006AD5F2
:100E60003A4DAE6946F00106AE61AD6924F0030665
:100E700005F001050095364D06EB050CDCF8085031
:100E8000A6074FEA167809FA08F6B543314EB04284
:100E900002D100261AE04EE02F4EB04201D10126C9
:100EA00014E02E4EB04201D102260FE02C4EB0428B
:100EB00001D103260AE02B4EB04201D1042605E001
:100EC000294EB04201D1052600E0062606FA08F6B2
:100ED0002E43CCF808604D68DAF80060ED03554603
:100EE00001D51E4300E09E432E604D68AD0305D53D
:100EF000DBF800601E43CBF8006004E0DBF8005034
:100F00009D43CBF800504D68DEF80060ED02754659
:100F100001D51E4300E09E432E604D68AD0205D50D
:100F2000084D0C352E681E432E6004E0054E0C362D
:100F300035689D433560641C102CFFF431AFBDE86B
:100F4000F88F000000040140000011100010024062
:100F50000000014000080140000C01400010014069
:100F60000014014000180140001C01408068084046
:100F700000D001207047C2684A40C26070470AB181
:100F8000016170470904FBE70148006870470000F1
:100F90002400002002480168491C016070470000DD
:100FA00024000020074810B5016841F010010160DD
:100FB000032000F05DF8002000F006F800F016F8BD
:100FC000002010BD0020024010B5044600F0A6F934
:100FD0004FF47A71B0FBF1F000F007FE00222146D9
:100FE000501E00F025F8002010BD0000094808B58B
:100FF000816941F001018161806900F00100009088
:10100000032000F035F80022BDE808401146501ECC
:1010100000F00EB80010024000F01F0201219140C4
:101020004009800000F1E020C0F800117047000086
:10103000F0B40E4B1B680C46C3F30223C3F1070543
:10104000042D00D90425191D072901D2002300E031
:10105000DB1E012606FA05F1491E214099409E40FB
:10106000761E16403143F0BC01F080B90CED00E073
:10107000064900F0070208684FF6FF03184040EAEF
:101080000220034A10430860704700000CED00E0A6
:101090000000FA052DE9F047DFF8789205460E4684
:1010A000D9F80000022300F007070120410442069E
:1010B000994C41F28838B74271D2D9F800C02CF06F
:1010C000070C4CEA060CC9F800C0D9F8007007F00C
:1010D0000707B7426FD12E78B60705D56668AF68A7
:1010E00026F0F0063E4366602E78F60756D06E680E
:1010F000012E0BD0022E1ED093FAA3F1B1FA81F18A
:1011000041F02001490924D0216823E091FAA1F29D
:10111000B2FA82F242F02002520901D0226800E0C5
:10112000626A91FAA1F1B1FA81F101F01F018840E0
:10113000024240D017E092FAA2F1B1FA81F141F0F7
:101140002001490901D0216800E0616A92FAA2F207
:1011500002E0616A93FAA3F2B2FA82F202F01F028D
:101160009040014227D0606820F003003043606067
:10117000FFF70AFF06466868012809D0022847469B
:1011800013D01EE0FFF700FF801BB84201D992E0A8
:1011900047466068C0F381000128F3D1A1E015E063
:1011A000FFF7F2FE801BB84273D86068C0F381007D
:1011B0000228F5D195E092E0FFF7E6FE801BB842E9
:1011C00079D8606810F00C0FF6D18AE02F78BF074D
:1011D00007D56768D5F808C027F0F00747EA0C077D
:1011E00067602F78FF076DD06F68012F0BD0022F3B
:1011F0001ED093FAA3F1B1FA81F141F0200149091F
:1012000024D0216823E091FAA1F2B2FA82F242F0EE
:101210002002520901D0226800E0626A91FAA1F12D
:10122000B1FA81F101F01F018840024257D017E066
:1012300092FAA2F1B1FA81F141F02001490901D0FD
:10124000216800E0616A92FAA2F202E0616A93FA10
:10125000A3F2B2FA82F202F01F02904001423ED0A5
:10126000606820F0030038436060FFF78DFE07469A
:101270006868012807D0022811D01FE0FFF784FE1C
:10128000C11B414517D86068C0F381000128F5D122
:1012900018E010E0FFF778FEC11B41450BD86068ED
:1012A000C0F381000228F5D10CE000BFFFF76CFE0F
:1012B000C11B414502D90320BDE8F087606810F0EA
:1012C0000C0FF3D1D9F8001021F007013143C9F810
:1012D0000010D9F8000000F00700B04201D0012052
:1012E000EAE72878400705D56068E96820F4E060FF
:1012F000084360602878000706D56068296920F4F3
:10130000605040EAC10060600020FFF75DFE0020F1
:10131000D2E70000002002400010024000B500F0BB
:1013200043F808494968F02292FAA2F201F0F0016C
:10133000B2FA82F2D140044A515CC84003490860C5
:1013400000BD000000100240C43B02080000002065
:1013500000B5FFF7E3FF074949684FF4E06292FAEE
:10136000A2F201F4E061B2FA82F2D140024A515C89
:10137000C84000BD00100240C43B020800B5FFF7A2
:10138000CDFF074949684FF4605292FAA2F201F486
:101390006051B2FA82F2D140024A515CC84000BDAD
:1013A00000100240C43B020810B51AA385B00FCB51
:1013B0008DE80F001BA01C4B006804905A681B4866
:1013C00002F00C01042902D0082902D0184805B007
:1013D00010BD4FF4701494FAA4F402F47011B4FA2E
:1013E00084F4E140D2031DF801100FD55A684FF480
:1013F000003393FAA3F302F40032B3FA83F3DA4032
:1014000004AB9A5CB0FBF2F04843E0E7094848437C
:10141000DDE7000002030405060708090A0B0C0DAE
:101420000E0F10100102000000100240809698007C
:1014300000127A0000093D002DE9F84F05460078BA
:10144000FA4EC0074FF0010425D070686704C0F35E
:101450008100012807D07068C0F3810002281BD1E9
:101460007068C00318D597FAA7F0B0FA80F040F082
:101470002000400901D0306800E0706A97FAA7F1B7
:10148000B1FA81F101F01F0104FA01F1084202D022
:101490006868002876D081E0306820F480303060C1
:1014A000306820F480203060FFF76EFD804605E054
:1014B000FFF76AFDA0EB080064287CD897FAA7F034
:1014C000B0FA80F040F02000400901D0306800E020
:1014D000706A97FAA7F1B1FA81F101F01F0104FADD
:1014E00001F10842E4D16868B0F5803F0BD010B13B
:1014F000B0F5A02F11D0306820F480303060306813
:1015000020F4802002E0306840F480303060686869
:1015100020B3FFF739FD80460AE0306840F48020B0
:101520003060F0E7FFF730FDA0EB08006428C4D876
:1015300097FAA7F0B0FA80F040F02000400901D0FF
:10154000306800E0706A97FAA7F1B1FA81F101F012
:101550001F0104FA01F10842E4D01FE0FFF714FD77
:10156000804605E0FFF710FDA0EB08006428A4D832
:1015700097FAA7F0B0FA80F040F02000400902D0BE
:10158000306801E0B7E0706A97FAA7F1B1FA81F12B
:1015900001F01F0104FA01F10842E3D12878DFF8D5
:1015A000908280074FF000094FF002075AD570680B
:1015B00010F00C0F00E07AE14FF0F80B07D07068E4
:1015C000C0F3810002281BD17068C00318D497FAB9
:1015D000A7F0B0FA80F040F02000400901D0306858
:1015E00000E0706A97FAA7F1B1FA81F101F01F01EA
:1015F00004FA01F108422AD0286901287BD126E0AB
:10160000286980B394FAA4F0B0FA80F048F820403A
:10161000FFF7BAFC824605E0FFF7B6FCA0EB0A0034
:10162000022884D897FAA7F0B0FA80F040F02000A2
:10163000400901D0306800E0706A97FAA7F1B1FA6A
:1016400081F101F01F0104FA01F10842E4D0306891
:101650009BFAABF26969B2FA82F220F0F80091408D
:101660000843306025E0FFE794FAA4F1B1FA81F174
:1016700048F82190FFF788FC824605E0FFF784FCDC
:10168000A0EB0A000228CCD897FAA7F0B0FA80F0B5
:1016900040F02000400901D0306800E0706A97FAFD
:1016A000A7F1B1FA81F101F01F0104FA01F108423A
:1016B000E4D1287800076ED5A869B8B394FAA4F0ED
:1016C000B0FA80F008EB8000C0F88044FFF75CFCC3
:1016D000824605E0FFF758FCA0EB0A000228A0D8DC
:1016E00097FAA7F0B0FA80F040F06000B4EB501F1A
:1016F00002D130680CE096E197FAA7F0B0FA80F0DA
:1017000040F06000B7EB501F01D1306A00E0706A12
:1017100097FAA7F1B1FA81F101F01F0104FA01F281
:101720001042D7D00120FFF721FB34E0FFE794FA05
:10173000A4F1B1FA81F108EB8101C1F88094FFF7BF
:1017400023FC824606E000BFFFF71EFCA0EB0A0068
:10175000022898D897FAA7F0B0FA80F040F060001D
:10176000B4EB501F01D130680BE097FAA7F0B0FA44
:1017700080F040F06000B7EB501F01D1306A00E00C
:10178000706A97FAA7F1B1FA81F101F01F0104FA2A
:1017900001F21042D8D12878400770D5F06940F0A6
:1017A0008050F061F069DFF88CB000F0805000905C
:1017B000DBF8001041F48071CBF80010FFF7E4FB78
:1017C000824605E0FFF7E0FBA0EB0A0064286ED834
:1017D000DBF80000C005F5D5306A20F0010030626A
:1017E000306A20F004003062FFF7CEFB834641F2FE
:1017F000883A05E0FFF7C8FBA0EB0B01514556D82E
:1018000097FAA7F0B0FA80F040F04000B4EB501F18
:1018100001D1306811E097FAA7F0B0FA80F040F0FB
:101820004000B7EB501F07D1306A06E000100240BD
:101830000000424200700040706A97FAA7F1B1FAC6
:1018400081F101F01F0104FA01F10842D2D1E868E8
:1018500001280AD008B1052812D0306A20F0010012
:101860003062306A20F0040002E0306A40F001008B
:101870003062E86898B3FFF787FB83460CE05AE0D4
:10188000306A40F004003062EFE700BFFFF77CFBF6
:10189000A0EB0B0151450AD897FAA7F0B0FA80F0F7
:1018A00040F04000B4EB501F02D130680CE09DE0E6
:1018B00097FAA7F0B0FA80F040F04000B7EB501F65
:1018C00001D1306A00E0706A97FAA7F1B1FA81F1AC
:1018D00001F01F0204FA02F10842D7D02BE0FFE723
:1018E000FFF752FB834605E0FFF74EFBA0EB0B0131
:1018F00051457BD897FAA7F0B0FA80F040F040004D
:10190000B4EB501F01D130680BE097FAA7F0B0FAA2
:1019100080F040F04000B7EB501F01D1306A00E08A
:10192000706A97FAA7F1B1FA81F101F01F0204FA87
:1019300002F10842D8D1E86980B37168C1F381012E
:10194000022970D04FF080714F000228484609D01C
:1019500091FAA1F1B1FA81F148F82100FFF714FBE7
:10196000054669E0894691FAA1F1B1FA81F1C246D2
:1019700048F82100FFF708FB804605E0FFF704FB6D
:10198000A0EB0800022854D897FAA7F0B0FA80F02C
:1019900040F02000400902D0306801E061E0706A48
:1019A00097FAA7F1B1FA81F101F01F0104FA01F1F0
:1019B0000842E3D1286AB0F5803F05D17068A96874
:1019C00020F4003008437060D5E9080108437168CD
:1019D00021F474110843706099FAA9F0B0FA80F00C
:1019E0004AF82040FFF7D0FA054606E021E000BFA4
:1019F000FFF7CAFA401B02281BD897FAA7F0B0FAE3
:101A000080F040F02000400901D0306800E0706AAA
:101A100097FAA7F1B1FA81F101F01F0104FA01F17F
:101A20000842E5D01DE01EE0FFF7AEFA401B022899
:101A300002D90320BDE8F88F97FAA7F0B0FA80F03A
:101A400040F02000400901D0306800E0706A97FA49
:101A5000A7F1B1FA81F101F01F0104FA01F1084286
:101A6000E2D10020E6E70120E4E7000010B5040021
:101A700003D094F8510010B104E0012010BD2046BD
:101A800000F038F8022084F851002068016821F045
:101A900040010160D4E901010843D4E90312114374
:101AA000084361690843218B01F400710843E1692F
:101AB0000843216A0843A16A084321680860A069B5
:101AC000042101EA1040616A0843216848602168E6
:101AD000E06A08612068C16921F40061C1610449BC
:101AE000002008706065012084F85100002010BDBE
:101AF00028000020F0B5304B016800242F48022553
:101B000003262F4A85B0994217D1816941F480514B
:101B100081618069694600F480500490B020CDE96D
:101B20000005039615461046FFF72CF94020CDE935
:101B3000000469462846029417E0224B224F99423E
:101B400017D1C16941F48041C161C069694600F49F
:101B5000804004904FF43040CDE9000503963846AC
:101B6000FFF710F94FF480401FE0FFF70BF905B0C5
:101B7000F0BD164B9942FAD1C16941F40041C161EF
:101B8000C069694600F400400490D813CDE900050F
:101B900003961046FFF7F6F82820CDE900056946C0
:101BA00003963846FFF7EEF81020CDE900046946A9
:101BB00038460294D9E7000000300140001002408E
:101BC0000008014000380040000C0140003C00408B
:101BD0004FF0E0210428086903D020F004000861D8
:101BE000704740F00400FAE7704710B5401EB0F1AE
:101BF000807F01D3012010BD4FF0E02460610F21F0
:101C0000601700F0B3FB0020A061072020610020D6
:101C100010BD10B5FFF7E8FF10BD4FF0E0200169DF
:101C200021F00201016170477047704730B590F8AC
:101C30003820012A20D0012280F83820022380F8A1
:101C4000393003685C6824F070045C6003685C6889
:101C50000D682C435C6003689C6824F080049C60E1
:101C600003689C6849680C439C6080F83920002117
:101C700080F83810084630BD022030BD10B5040091
:101C800003D094F8390010B107E0012010BD002006
:101C900084F83800204600F00DF8022084F839005E
:101CA000211D206801F02CFB012084F83900002060
:101CB00010BD000008B5154A0168154891420ED1C3
:101CC000C16941F01001C161C069002200F010003B
:101CD000009011463620FFF7ABF9362010E00D4A90
:101CE000914211D1C16941F02001C161C069002256
:101CF00000F02000009011463720FFF799F93720B7
:101D0000BDE80840FFF788B908BD0000001000409A
:101D100000100240001400400168CA6842F001024D
:101D2000CA600068016841F001010160002070474D
:101D30000168CA6822F00102CA600068016A41F2C3
:101D40001112114207D1016A9210114203D10168A8
:101D500021F00101016000207047704770B5044612
:101D6000006801694FF00005C943890715D4C168AF
:101D7000C943890711D4E91E01610120207620683A
:101D800080698007204602D0FFF7E7FF04E000F0FB
:101D900098F8204600F096F8257620680169C94336
:101DA000490717D4C168C943490713D46FF0040128
:101DB0000161022020762068806910F4407F20466F
:101DC00002D0FFF7CAFF04E000F07BF8204600F0E5
:101DD00079F8257620680169C943090716D4C168D6
:101DE000C943090712D46FF008010161042020766D
:101DF0002068C0698007204602D0FFF7AEFF04E0EC
:101E000000F05FF8204600F05DF825762068016953
:101E1000C943C90617D4C168C943C90613D46FF0B2
:101E200010010161082020762068C06910F4407F0D
:101E3000204602D0FFF791FF04E000F042F8204670
:101E400000F040F8257620680169C943C90708D128
:101E5000C168C943C90704D1891E0161204600F049
:101E600032F820680169C943090609D4C168C94329
:101E7000090605D46FF0800101612046FFF7D4FE0A
:101E800020680169C943490609D4C168C9434906A4
:101E900005D46FF040010161204600F015F820687C
:101EA0000169C94389060BD4C168C943890607D4AF
:101EB0006FF0200101612046BDE87040FFF7B5BE1C
:101EC00070BD7047704770477047704738B504461B
:101ED00000680168C26811F0010F02F4807204D03A
:101EE0001AB1E16B41F00101E1630168C1F3400205
:101EF000416901F0010122B119B1E26B42F0040223
:101F0000E2630268C2F3800222B119B1E26B42F0CF
:101F10000202E2630268C2F3C00222B119B1E16BAE
:101F200041F00801E1630168C068C1F3401100F0AD
:101F3000200019B110B1204601F024FC206801688E
:101F4000C068C1F3C01100F0800019B110B1204683
:101F500001F0DCFC21680868CA68C0F3801002F058
:101F60004002012570B16AB1CA68204622F04002E1
:101F7000CA6094F83910322911D080F8395000BF66
:101F800000F0DCF8E06B002808D0206801684068A9
:101F9000009084F839502046FFF797FF38BD222182
:101FA00080F83910ECE770B5040004D094F83900DB
:101FB000002510B106E0012070BD84F8385020469D
:101FC00000F020F8022084F839002068C16821F46C
:101FD0000051C160204601F029FC2068016921F40C
:101FE000904101612068416921F02A014161206826
:101FF000C16841F40051C160E563012084F83900F3
:10200000002070BD10B50068154986B0884225D102
:102010001448816941F4804181618069124C00F467
:10202000804004904FF40070009002200190032043
:10203000039069462046FEF7A5FE00212015CDE954
:102040000001029169462046FEF79CFE00221146DF
:102050002520FEF7EDFF2520FEF7DEFF06B010BDC0
:1020600000380140001002400008014070470000A5
:102070002DE9F047044690F8390099460D460128AD
:1020800001D0222858D12DB322B394F8380001286A
:1020900052D0012684F838600027E76394F83900AD
:1020A00022281AD05FF0120084F83900A284E2845A
:1020B0004FF48058E08C4B46401EE084A0684FF0FF
:1020C000000240454FF08001204613D101F051FC41
:1020D00008BB04E00120BDE8F0873220E4E728884F
:1020E0002168C0F308004860206908B16D1C08E051
:1020F000AD1C06E001F03DFC68B9216815F8010B44
:102100004860E08C0028D5D14B4600224021204673
:1021100001F02FFC08B10320DDE794F839003228E4
:1021200006D084F8396000BF84F838700020D2E708
:10213000222084F83900F7E70220CCE7704700003E
:1021400000B599B060220F496846FEF77EF80EA0F0
:1021500000F09EF817A000F09BF81FA000F098F880
:1021600024A000F095F829A000F092F833A000F028
:102170008FF840A000F08CF8684600F089F819B09C
:1021800000BD0000D43B02084149333238312050B1
:102190006F7765724D4355206170706C696361742F
:1021A000696F6E2069732072756E6E696E67210D9E
:1021B0000A000000536F667477617265207665725D
:1021C00073696F6E20636F64652069733A205630BF
:1021D0002E3938430D0A0000417574686F7220690A
:1021E000732045696E666163686D616E6E210D0ACC
:1021F000000000004461746520697320323031377B
:102200002E30352E3137210D0A00000043504C444A
:10221000277320706F77657220766F6C74616765C5
:10222000207375706572766973696F6E20697320AB
:1022300064697361626C6564210D0A00446F6E27E6
:102240007420737570706F727420746F2072657370
:10225000746172742073797374656D207768656E2C
:1022600020574454206973206F766572666C6F77CF
:10227000210D0A00446562756720427574746F6EA3
:1022800020697320616374697665210D0A0000007E
:1022900070B50446FEF7F6FC05462046FDF7B6FF8E
:1022A00082B221462846BDE870404FF0FF33FFF769
:1022B000DFBE002120B100688068000600D5012142
:1022C000084670470C480B494FF4006201604FF418
:1022D000827141600021C0E90212D2010161C0E9AE
:1022E00005122022C0E90721416281620A21C162F0
:1022F000FFF7BCBB00300140500600200C480B49E2
:102300004FF4006201604FF4827141600021C0E926
:102310000212D2010161C0E905121822C0E90721A9
:10232000416281620A21C162FFF7A0BB0038004010
:10233000A80600200C480B494FF4006201604FF4DE
:10234000827141600021C0E90212D2010161C0E93D
:1023500005121822C0E90721416281620A21C16287
:10236000FFF784BB003C0040000700200907090E6E
:10237000002806DA00F00F0000F1E02080F8141DBC
:10238000704700F1E02080F8001470472DE9FF410C
:102390004FF48057012401AB002502260097DFF897
:1023A0006C8083E87000224639464046FEF7E7FD20
:1023B00069464046FEF7E6FCCDE900743946144F05
:1023C000CDE9025601223846FEF7D9FD6946384666
:1023D000FEF7D8FC20218DE872000E4F012238460E
:1023E000FEF7CDFD69463846FEF7CCFC01A8009407
:1023F00080E870002146084C01222046FEF7BFFD10
:1024000069462046FEF7BEFCBDE8FF81001801408A
:102410000014014000100140000C0140034900205D
:102420004968002900D101207047000010000020F9
:102430002DE9FF4100240126CDE90064DFF8188171
:10244000022569464046CDE90245FEF79BFCCDE9F1
:102450000064424F69463846CDE90245FEF792FCDA
:10246000CDE9005469464046CDE90245FEF78AFCB5
:10247000CDE9005469463846CDE90245FEF782FCB5
:102480000426CDE9006469464046CDE90245FEF7E1
:1024900079FCCDE9006469463846CDE90245FEF78E
:1024A00071FC0826CDE9006469464046CDE9024545
:1024B000FEF768FCCDE9006469463846CDE902457F
:1024C000FEF760FC1026CDE9006469464046CDE980
:1024D0000245FEF757FCCDE9006469463846CDE970
:1024E0000245FEF74FFC2026CDE9006469464046D0
:1024F000CDE90245FEF746FCCDE900646946384661
:10250000CDE90245FEF73EFC4020CDE90004144E23
:1025100069463046CDE90245FEF734FC8020CDE91E
:10252000000469463046CDE90245FEF72BFCE80180
:10253000CDE9000469463046CDE90245FEF722FCAC
:102540002802CDE9000469463046CDE90245FEF790
:1025500019FCBDE8FF810000001801400014014093
:10256000000C014070B5FEF70FFD16490968814265
:1025700026D0154D002405F1300600BF05EB0410F0
:10258000FEF7B2FB06EB0410FEF7AEFB641CE4B2F0
:10259000032CF3D30C486030FEF7A6FB0A487030DA
:1025A000FEF7A2FB08488030FEF79EFB06489030FD
:1025B000FEF79AFBBDE870400348A030FEF794BBDD
:1025C00070BD00000C000020100800202DE9F0472D
:1025D000DFF8C88000260324012508F1300900BF78
:1025E00008EB0617384600F037F97C70BC703D7375
:1025F0003D7009EB0617384600F02EF97C70BC7070
:10260000761C3D73F6B23D70032EE9D32449C8F819
:1026100008102449C8F818102349C8F8281023497D
:10262000C9F808102249C9F818102249C9F8281019
:102630001A4900206031204A4C708C70C8700871B3
:102640000D738A600D7010311C4A4C708C70C8700C
:1026500008710D738A600D701031194A4C708C70BE
:10266000C87008710D738A600D701031154A4C7076
:102670008C70C87008710D738A600D7010314C70C9
:102680008C70C87008710D730F4888600D70FEF76C
:102690007BFC0E490860BDE8F087000010080020B0
:1026A000CD3302085D340208ED340208E533020838
:1026B00075340208053502089D2F0208B52F02085F
:1026C0006D2F0208852F0208ED2E02080C00002055
:1026D0002DE9FF474FF48077002601250224DFF81B
:1026E000C490CDE90264CDE90075324639464846CA
:1026F000FEF745FC69464846FEF744FB4FF080086C
:10270000CDE90264CDE90085002241464846FEF746
:1027100036FC69464846FEF735FBCDE9007539467B
:10272000214FCDE9026400223846FEF728FC6946B5
:102730003846FEF727FBCDE90085CDE9026400228B
:1027400041463846FEF71BFC69463846FEF71AFB41
:102750008DE87000154F0022214638460394FEF79D
:102760000EFC69463846FEF70DFBCDE90264009584
:102770000022294638460195FEF701FC6946384695
:10278000FEF700FB8DE8700021460394084C002200
:102790002046FEF7F4FB69462046FEF7F3FABDE853
:1027A000FF870000001801400014014000100140A4
:1027B000000801402DE9F047264C0026207900282A
:1027C0003FD1012560792F4610B9A06828B10025B6
:1027D000B846A719387B48B903E0FEF79BF9677143
:1027E000F6E704EB8600006958B10025761CF6B2C6
:1027F000032EEED30026A719387BE0B1387FD8B975
:1028000005E0304600F0FEFE87F80C80EEE704EBB2
:102810008609D9F8200020B100256421C9F83810B4
:102820000AE0304600F086FE10B1D9F8380001E029
:10283000D9F82C0038B10025761CF6B2032EDAD375
:102840002571BDE8F087304600F0A0FE87F81C80B7
:10285000F2E70000C0080020002101704170817083
:10286000C1700171816001737047002108B1006877
:10287000C16888B2704700280BD002689368DB07F4
:1028800001D0D368FAE7136843F04003136000688F
:10289000C16070472DE9FF414FF48047012401AB2F
:1028A000002503260097DFF8A48083E87000224605
:1028B00039464046FEF763FB69464046FEF762FA3A
:1028C000CDE900743946224FCDE90256012238463F
:1028D000FEF755FB69463846FEF754FA80218DE82D
:1028E0007200DFF8708001224046FEF748FB69461F
:1028F0004046FEF747FAA70201AB009783E8700055
:10290000012239464046FEF73AFB69464046FEF74B
:1029100039FA04218DE87200DFF83C80012240463C
:10292000FEF72DFB69464046FEF72CFACDE9007410
:102930000A4CCDE90256012239462046FEF71FFB1C
:1029400069462046FEF71EFABDE8FF8100180140E7
:10295000001401400010014000080140000C01403B
:1029600010B500F03FF8BDE8104000F069BA000073
:102970002DE9F0410020194C01222254401CC0B224
:102980000328FAD30025E270257165716423284677
:1029900040F6B83742F2107CA360261804EB8001A1
:1029A00035730B613577401CC1F82CC0C0B20F6283
:1029B0008B630328F1D304F8442F6570FEF7E4FA23
:1029C0006060FEF7E1FA0649C1E902054D708D70BD
:1029D000CD704FF4FA704860BDE8F081C008002067
:1029E0001000002070B5254C002103262078022518
:1029F00020B1012806D0022809D011E0FDF7EEFC35
:102A000001202070FEF73AF9FFF786F92570FFF7ED
:102A1000D1FEFFF703FD08B1267000E0257001210B
:102A2000207803280ED0042810D0052812D00628BC
:102A300014D0072816D0082818D0002901D100206A
:102A4000207070BDFDF79AFD0420207000F062FE3A
:102A50000520207000F0F0FD0620207000F0DAFF65
:102A60000720207000F054FA0820207004480079F4
:102A700008B1267070BD257070BD000010000020E8
:102A8000C00800202DE9FF5F00244FF48066CDE9E7
:102A90000064DFF810A1022569465046CDE90245E1
:102AA000FEF770F92F02CDE9007469465046CDE972
:102AB0000245FEF767F9CDE90064DFF8EC9069465E
:102AC0004846CDE90245FEF75DF9CDE90074694657
:102AD0004846CDE90245FEF755F90827CDE90074CF
:102AE000DFF8C8B069465846CDE90245FEF74AF915
:102AF0000420CDE9000469465846CDE90245FEF7B9
:102B000041F94FF40048CDE9008469465046CDE9CB
:102B10000245FEF737F9AE02CDE90064694650463A
:102B2000CDE90245FEF72EF9CDE900846946484615
:102B3000CDE90245FEF726F9CDE90064694648462D
:102B4000CDE90245FEF71EF9E801CDE9000469462A
:102B50005846CDE90245FEF715F91020CDE90004ED
:102B600069465846CDE90245FEF70CF9CDE9006407
:102B7000032569465846CDE90245FEF703F9CDE93C
:102B8000007469460A48CDE90245FEF7FBF8CDE935
:102B9000006469460748CDE90245FEF7F3F8BDE851
:102BA000FF9F000000180140001401400010014088
:102BB00000080140000C01402DE9FE4F0024FEF703
:102BC000E3F9DFF814910646D9F80010451A7CD0D5
:102BD000424F07F1300807F1600A07F1900B00BF80
:102BE00007EB0410FEF780F808EB0410FEF77CF802
:102BF0000AEB0410FEF778F80BEB0410FEF774F8FC
:102C0000641CE4B2032CEBD3DFF8D0800027BA4673
:102C10004FF0010B08F1C00807EB470000EBC701BC
:102C200018F82120EAB308EB81046078C8BBA078CB
:102C30000090616988470190E16800988847617F4A
:102C4000D9B1217F01988142206A2844206209D1AC
:102C50006168884203D900BF84F801B02FE084F88E
:102C600001A02CE0A168884202D284F801B001E002
:102C700084F801A0C4F820A021E000B394F8240057
:102C8000E8B1009800F0FCFE0290216900988847A6
:102C90000146029898B169B1217F0198814209D01B
:102CA00001E00EE011E0C4F820A084F81DB084F823
:102CB00024A004E0A06AA8420BD9401BA06201989E
:102CC00020777F1CFFB2032FA6D3C9F80060BDE8B0
:102CD000FE8F84F824A0BFE7200000200C0900200C
:102CE0002DE9F05F0023444EDFF81081DFF810B1CA
:102CF000DFF810911D464FF47A7746F2A81A0124A6
:102D000003EB430000EBC30006EB800206F8204013
:102D1000557093703C485760C2E9050902F10801FB
:102D2000184681E8200900F04BFC107755771562B2
:102D30005B1C82F82440DBB2C2F828A0032BDFD34F
:102D4000DFF8B4800025A8F1C0080A2608F1300990
:102D500008F1600A08F1900B08EB05173846FFF7F9
:102D60007BFD7E70BE703C7009EB05173846FFF79F
:102D700073FD7E70BE703C700AEB05173846FFF796
:102D80006BFD7E70BE703C700BEB05173846FFF78D
:102D900063FD032078706D1CB870EDB23C70032D9C
:102DA000DAD31A49C8F808101949C8F8181019498F
:102DB000C8F828101849C9F808101849C9F8181097
:102DC0001749C9F828101749CAF808101649CAF84F
:102DD00018101649CAF828101549CBF808101549DB
:102DE000CBF818101449CBF82810FEF7CDF813498A
:102DF0000860BDE8F09F0000CC090020753702088C
:102E000035350208F5300208C13502089D33020845
:102E10002D340208BD340208853302081534020837
:102E2000A5340208FD3302088D3402081D3502085E
:102E3000B533020845340208D534020820000020CA
:102E40002DE9F0410026FEF79FF801462548826CE7
:102E500081648C1A4179002731B98168A14202D37B
:102E6000091B816000E087604FEA000808EB06015B
:102E70000A7B12B1097F51B124E008EB8600016999
:102E8000A14202D3091B01611CE007611AE008EBB3
:102E90008605E86AA04202D3001BE86200E0EF6208
:102EA000286AA04202D3001B286200E02F6230464D
:102EB00000F040FB90B1A86BA04202D3001BA863B6
:102EC00000E0AF63761CF6B2032ECFD3064841680C
:102ED000A14205D3091B4160BDE8F0816420EEE703
:102EE0004760F9E7C00800201000002010B540211D
:102EF0000348FEF73BF8012800D0002010BD000079
:102F0000001801400148007B70470000B008002015
:102F10002DE9F0410025FFF7F5FF134C012618B10C
:102F200084F84460BDE8F08194F84400002760B163
:102F300094F8450060B1FDF7CDFDFDF7B7FDFFF753
:102F400017FDFFF7CDFE84F8457084F84470E9E77B
:102F500000F048F8284600F0F9F86D1CEDB2032D9A
:102F6000F8D384F84560F0E7C008002010B5802150
:102F70000348FDF7FBFF012800D0002010BD000032
:102F8000000C014010B54FF400710348FDF7EEFF4F
:102F9000012800D0002010BD000C014010B54021D8
:102FA0000348FDF7E3FF012800D0002010BD00001A
:102FB000000C014010B54FF480710348FDF7D6FFB7
:102FC000012800D0002010BD000C01400449002061
:102FD0000870103108701031087010310870704797
:102FE0007008002010B5FDF78DFDFDF783FD034946
:102FF0000020C870BDE81040FFF7E8BFC0080020FF
:103000002DE9FE432FA2324C07CA8DE80700E16884
:103010003048314FDFF8C48000264FF48065A1B1FD
:103020006670A670E168491EE16001222946FDF73D
:10303000A6FF012204213846FDF7A1FF01222946FF
:103040004046FDF79CFFBDE8FE8362781DF8021044
:10305000A2785AB1A278092A1ED0A278012A01D0FA
:10306000E2785200E270E278114215D1002229463E
:10307000FDF785FF002204213846FDF780FF00227E
:1030800029464046FDF77BFFA07809280FD3A6709C
:103090006078401C60700DE001222946FDF76FFF4B
:1030A000012204213846FDF76AFF0122E8E7A078F3
:1030B000401CA07060780A28C5D34FF46670E060A9
:1030C000C1E7000068010400010138000140000070
:1030D000100000200010014000080140000C0140D9
:1030E00010B5FDF757FFFEF794FDBDE81040FFF760
:1030F00087BF000010B5044603281DD200F068FA0F
:10310000204600F029FA0D49002021440873087771
:103110004FF4804154B1012C0BD0022C0CD1002271
:1031200007488021BDE81040FDF729BF002205486F
:10313000F8E700220448F5E710BD0000C0080020B1
:103140000010014000180140001401402DE9F04733
:103150000026074603284DD2B2463046FDF75AFDF9
:103160008046002508EB8514E07AB84223D1207C04
:1031700094F81190FDF74EFD014684F808A001EB8C
:10318000891181F808A084F809A084F80AA0A4F89D
:1031900024A0A4F822A0A4F81EA0A4F820A081F8DE
:1031A00009A081F80AA0A1F824A0A1F822A0A1F802
:1031B0001EA0A1F820A06D1CEDB2082DD2D3761C64
:1031C000F6B2032EC9D3384600F002FA384600F0B2
:1031D000C3F9094D5446E81980F81CA0384600F0A0
:1031E00065FAEC55384600F0B5FA3846BDE8F047C8
:1031F00000F02ABCBDE8F087C008002030B58FB0D1
:10320000012000904FF4A0200024CDE90104022504
:10321000E803CDE907504FF4A01009906846FEF787
:103220000BF9A0B90F20CDE90A056802CDE90C40E1
:1032300002210AA80E94FDF72DFF40B9FEF76EF8A3
:103240004FF47A71B0FBF1F0FEF7CFFC20B10748E4
:10325000FDF720FC0FB030BD0420FEF7B9FC0022C2
:103260001146501EFDF7E4FEF4E7000000000208DE
:103270000E48016841F00101016041680C4A1140AB
:10328000416001680B4A11400160016821F480210E
:103290000160416821F4FE0141604FF41F0181602B
:1032A0000548064940F00060086070470010024081
:1032B0000000FFF8FFFFF6FE0000020008ED00E04E
:1032C00010B5FDF7D7FC0446FDF7C6F82046FEF71B
:1032D00045FD2046BDE81040FEF72ABD70B5FDF75C
:1032E000CDFC0446FDF7C6FC0546FDF71DF820465B
:1032F000FEF734FD2846BDE87040FEF70DBD000026
:10330000F0B502681A4B1B4D1B4E1C4F1C4C4FF066
:10331000804C984209D0A04207D0604505D0A84211
:1033200003D0B04201D0B84204D122F0700E4A68F6
:1033300042EA0E02984209D0A04207D0604505D06B
:10334000A84203D0B04201D0B84203D122F4407564
:10335000CA682A4302608A68C2620A688262984226
:1033600001D0A04201D10969016301214161F0BD91
:10337000002C01400004004000080040000C004008
:103380000034014010B54FF400710348FDF7EEFD25
:10339000012800D0002010BD0018014010B54FF4E6
:1033A00080610348FDF7E2FD012800D0002010BD38
:1033B0000018014010B54FF400610348FDF7D6FD39
:1033C000012800D0002010BD0018014010B50121D7
:1033D0000348FDF7CBFD012800D0002010BD000000
:1033E0000018014010B501210348FDF7BFFD012879
:1033F00000D0002010BD00000014014010B54FF4B3
:1034000000410348FDF7B2FD012800D0002010BDA7
:103410000018014010B54FF400710348FDF7A6FDF8
:10342000012800D0002010BD0014014010B54FF459
:1034300080610348FDF79AFD012800D0002010BDEF
:103440000014014010B54FF400610348FDF78EFDF4
:10345000012800D0002010BD0014014010B5022149
:103460000348FDF783FD012800D0002010BD0000B7
:103470000018014010B502210348FDF777FD01282F
:1034800000D0002010BD00000014014010B54FF422
:1034900000410348FDF76AFD012800D0002010BD5F
:1034A0000014014010B504210348FDF75FFD012819
:1034B00000D0002010BD00000010014010B5082110
:1034C0000348FDF753FD012800D0002010BD000087
:1034D0000010014010B510210348FDF747FD0128F9
:1034E00000D0002010BD00000010014010B50421E4
:1034F0000348FDF73BFD012800D0002010BD00006F
:103500000018014010B504210348FDF72FFD0128E4
:1035100000D0002010BD00000014014010B54FF491
:1035200080710348FDF722FD012800D0002010BD66
:1035300000100140074901EB0011097B41B1054929
:10354000303101EB0010007B002800D001207047D3
:10355000002070470C09002040B101280AD0022841
:103560000CD1002201210648FDF709BD002280216F
:103570000448F9E7002280210348F5E7704700007E
:1035800000100140001801400014014040B1012822
:103590000AD002280CD1012211460648FDF7EFBCE3
:1035A000012280210448F9E7012280210348F5E740
:1035B0007047000000100140001801400014014055
:1035C000024901EB0010007B704700009C090020BD
:1035D0004FF4807140B1012809D002280AD100229D
:1035E00002210548FDF7CBBC00220448FAE700227F
:1035F0000348F7E770470000001001400018014041
:10360000001401404FF4807140B1012809D0022814
:103610000AD1012202210548FDF7B1BC012204486C
:10362000FAE701220348F7E7704700000010014065
:10363000001801400014014070B5FDF7A5FC1649C3
:103640008A68821A0A2A25D388600020FDF72CF8A0
:10365000124C4FF48045217B21B118B12946104806
:10366000FDF789FC0120FDF71FF8617B21B118B13E
:1036700029460C48FDF77FFC0220FDF715F8A17BD9
:10368000002907D0002805D0BDE8704080210648F9
:10369000FDF771BC70BD000010000020C0080020C4
:1036A0000018014000140140001001404FF4805107
:1036B00040B1012809D002280AD100222021054862
:1036C000FDF75DBC00220448FAE700220348F7E753
:1036D0007047000000100140001801400014014034
:1036E0004FF4805140B1012809D002280AD10122AB
:1036F00020210548FDF743BC01220448FAE70122D6
:103700000348F7E77047000000100140001801402F
:103710000014014010B50024204600F0BBF988B128
:10372000032C0CD20A4901EB0410007B00B10120EC
:10373000074A303202EB0411097B01B110B920466F
:10374000FFF704FD641CE4B2032CE5D310BD0000B8
:1037500010080020032809D2054A002102EB0012BC
:103760001170034A303202EB001001707047000004
:1037700010080020024901EB0010007B7047000098
:103780006C09002010B590F83910222903D0322995
:1037900001D0022010BD8168B1F5805F11D00169B0
:1037A000002901681FD0496801F07F03816A4A1C23
:1037B00082620B70C18D491E0904090CC18518D0A5
:1037C00030E00269816A002A0268526805D0D2B2EC
:1037D0000A80816A491C8162ECE7C2F308020A8010
:1037E000816A891CF7E74A68816A4B1C83620A7008
:1037F000E0E70168CA6822F02002CA6090F8391038
:10380000322911D00168CA6822F48072CA60016846
:103810004A6922F001024A615FF0010180F8391023
:10382000FEF724FC002010BD1221F7E72DE9F0413E
:10383000044600680169E26821F4405111430161C6
:103840002169A0680843616908432168CA6841F298
:103850000C639A430243CA6020684169A26921F45B
:103860004071114341612849206864254FF03208B6
:10387000884218D1FDF782FD00EBC00101EB00107A
:1038800061688900B0FBF1F0B0FBF5F6FDF776FD5D
:1038900000EBC00101EB001061688900B0FBF1F79B
:1038A000FDF76CFD17E0FDF753FD00EBC00101EBE8
:1038B000001061688900B0FBF1F0B0FBF5F6FDF790
:1038C00047FD00EBC00101EB001061688900B0FB0F
:1038D000F1F7FDF73DFD00EBC00101EB0010616861
:1038E0008900B0FBF1F0B0FBF5F06FF01801484330
:1038F00007EB800108EB0110B0FBF5F0216866F3DF
:103900001F108860BDE8F0810038014090F8391040
:10391000122903D0322901D0022070478168B1F505
:10392000805F016A0BD04A1C02620268097851600C
:10393000C18C491E0904090CC1840ED017E0098806
:103940000268C1F30801516001690029016A02D0CF
:10395000491C0162ECE7891CFBE70168CA6822F098
:103960008002CA600068C16841F04001C160002067
:1039700070472DE9F0471D4690460E460446FDF778
:1039800003FB07465FEA08004FF000094FF001080B
:1039900008D030E0681C05D095B1FDF7F5FAC01BE2
:1039A000A8420DD82068006836EA0000F2D127E06E
:1039B000681C20D025B1FDF7E7FAC01BA8421AD930
:1039C0002068C16821F08001C1602068C16821F0D1
:1039D0002001C1602068C16821F48071C160206845
:1039E000416921F00101416184F8398084F83890FF
:1039F0000320BDE8F0872068006836EA0000D7D0D1
:103A00000020F6E710B5FDF73DF9BDE81040FEF7E0
:103A10005DBA000070B50B4D002400BF04EB4400FC
:103A200000EBC40015F8201031B105EB800041789F
:103A300011B1816920468847641CE4B2032CEDD3A0
:103A400070BD0000CC090020032807D200EB400223
:103A500002EBC000024A002102F82010704700006B
:103A6000CC09002010B54FF400410448FDF77EFA60
:103A700008B1002010BD012010BD00000018014059
:103A80000021032802D202490844017F08467047FA
:103A9000C00800200021032801D20249095C084621
:103AA00070470000C00800201CB5FDF77BFA10B17C
:103AB0003D48FCF7EFFFFFF7A1FB3C48816941F06F
:103AC00004018161816901F004010091816941F083
:103AD00008018161806900F008000090FDF7D6F8C8
:103AE000FDF726F9FEF7EEFBFEF708FCFEF722FCD9
:103AF00030482F49002401604FF4E131C0E901143E
:103B00000C21C460C0E904418461C461FEF74BFA32
:103B1000284829493C384525C0E90015C721C0E996
:103B20000241FEF7ABF82348009469463C38019403
:103B3000FEF77CF81F4821497838C0E900150A21B2
:103B4000C0E90241FEF79AF81A48009469467838AD
:103B50000194FEF76BF8FCF7E5FFFEF7B9FDFEF701
:103B600015FCFEF765FCFEF78DFFFEF793FEFEF7F2
:103B70002DFDFCF7A3FDFFF7B3F8FEF7F9FEFCF708
:103B8000A9FFFCF793FF32210D48FDF74DF808B16E
:103B9000FEF7D6FAFDF700F8FEF7E4FCFFF70CF8A5
:103BA000FEF7DEFEF6E7000000000208001002400B
:103BB00000380140D00700200014004000100040F1
:103BC000653A020800000000010203040102030438
:103BD000060708092D2D2D2D2D2D2D2D2D2D2D2DAB
:103BE0002D2D2D2D2D2D2D2D2D2D2D2D2D2D2D2D05
:103BF0002D2D2D2D2D2D2D2D2D2D2D2D2D2D2D2DF5
:103C00002D2D2D2D2D2D2D2D2D2D2D2D2D2D2D2DE4
:103C10002D2D2D2D2D2D2D2D2D2D2D2D2D2D2D2DD4
:103C20002D2D2D2D2D2D2D2D2D2D2D2D2D2D0D0A07
:103C30000D0A0000543C0208000000202C00000087
:103C40006C010208803C02082C0000208410000057
:103C50008801020800A24A040000000000000000E1
:103C60000000000000000000000000000000000054
:103C70000000000000000000000000000000000044
:020000040803EF
:10FFF000FFFFFFFFFFFFFFFFFFFFFFFFABD200464A
:00000001FF
