:020000040801F1
:2020000068100020452101084D2101084F2101085121010853210108552101080000000052
:202020000000000000000000000000005721010859210108000000005B2101082D4601089B
:202040005F2101085F2101085F2101085F2101085F2101085F2101085F2101085F21010838
:202060005F2101085F2101085F2101085F2101085F2101085F2101085F2101085F21010818
:202080005F2101085F2101085F2101085F2101085F2101085F2101085F2101085F210108F8
:2020A0005F2101085F2101085F2101085F2101085F2101085F2101085F2101085F210108D8
:2020C0005F2101085F2101085F2101085F2101085F210108054A01085F2101085F210108E9
:2020E0005F2101085F2101085F2101085F2101085F2101085F2101085F2101085F21010898
:202100005F2101085F2101085F2101085F2101085F2101085F2101085F2101085F21010877
:202120005F2101085F2101085F2101085F210108DFF80CD000F042F800480047B5600108F1
:20214000681000200648804706480047FEE7FEE7FEE7FEE7FEE7FEE7FEE7FEE7FEE7FEE74B
:20216000A146010831210108202A04DB203A21FA02F00021704721FA02F3D040C2F12002B7
:202180009140084319467047D2B201E000F8012B491EFBD270470022F6E710B513460A462C
:2021A00004461946FFF7F0FF204610BD421C10F8011B0029FBD1801A70470000064C074DF0
:2021C00006E0E06840F0010394E8070098471034AC42F6D3FFF7B0FFC4670108E467010813
:2021E00010B5044601F053FDD4E9000180F30888BDE810400847A0F13001092901D8C8B243
:202200007047A0F14101052901D8373804E0A0F16101052902D85738C0B27047FF20704751
:2022200000B50B46FFF7E7FF02461846FFF7E3FF00EB0210C0B200BD1FB54FF4004000902B
:20224000002001900290022003906946014800F073FB1FBD00180140F0B5034600204FF6A8
:20226000FF76084F0AE0140A06EA022513F8012B624037F812206A40401C80B28842F2D372
:202280001046F0BDC465010870B5C0430023074E07E0CC5C050A4440E4B256F82400684017
:2022A0005B1C9342F5D3C04370BD0000680A002030B50B4B0B4C002108460022C5074FEA20
:2022C000500000D05840521C082AF7D344F82100491CFF29F0D9044900200860486030BDBF
:2022E0002083B8ED680A00204800002070B50D4601460020FFF7C8FF064C2060284601F0CF
:20230000DBFE60602168814201D1012070BD002070BD00004800002010B5012804D040F20F
:20232000672108A003F0A9FE16490020C8611648016941F004010161016941F0400101618D
:2023400010BD00002E2E2F447269766572732F53544D3332463178785F48414C5F447269A5
:202360007665722F5372632F73746D3332663178785F68616C5F666C6173685F65782E637C
:20238000000000005000002000200240064A0021D16106490A6942F002020A61486108694B
:2023A00040F04000086170475000002000200240044B0022DA61044A136943F0010313619A
:2023C0000180704750000020002002400E49C868C2060E4803D5C26942F00202C261CA68C0
:2023E000520703D5C26942F00102C261CA69D20707D0C26942F00402C261C86920F001007E
:20240000C8611420C8607047002002405000002070B5054600F098FC0646114C09E0681CA4
:2024200007D025B100F090FC801BA84201D9032070BDE068C007F2D1E068800601D520200E
:20244000E060E068C00605D4E069C00702D1E068400703D5FFF7BAFF012070BD002070BDC1
:20246000002002402DE9F0470746400586B00E46400D27D17005400D24D101240025AA465B
:20248000A1464FF4006817E0384603F005FEC8B1F90AC902CDE90291CDF804A0694601A8EE
:2024A000CDF8109000F0EEF80098401C0CD06D1CEDB2032D00D300244645E5D206B0204664
:2024C000BDE8F0870024F9E70025A6F5006607F50067F1E703484FF0006101600249416043
:2024E000704700000C000020FFFF030870B5064614460D46012032E0304603F0CDFD002844
:2025000027D044EA0600810702D0C00716D01FE0E878A978002301EB0020697801EB0020ED
:20252000297801EB00223146022000F06DF978B9241F01202D1DA4B2361D10E0E878A97804
:20254000002301EB00223146012000F05DF908B1002070BDA41E0120AD1CA4B2B61C002C66
:20256000CAD170BD01490860704700000C00002001494860704700000C0000200148006878
:2025800070470000480000200148406870470000480000202DE9F0418846074600F0D4FBEB
:2025A0000546B84707E000BF00F0CEFB0646B847844202D035460446F6E7A81B00D54042D3
:2025C0004045F1D32046BDE8F08100000048704780000020154808B5816941F0040181617B
:2025E000816901F004010091816941F008018161816901F008010091816941F010018161E1
:20260000816901F010010091816941F020018161816901F020010091816941F04001816154
:20262000806900F04000009008BD0000001002401FB540210120CDE90010002002900220EA
:20264000084C03900022204600F048FB6946204600F072F90448416821F0E06141F000717F
:2026600041601FBD001401400000014031B500F06BFB044600F068FB0099001B8842F9D324
:2026800038BD00002DE9F05F044649480F460126017E012941D0012183460176DFF81491F1
:2026A00020684CF2503A40B1022839D0B92142A003F0E3FC2068022832D0A068DFF83881CC
:2026C0004FF0FF35B0F1006F0AD3B8F80010B1F5007F38D0B1F5C07F3FD0484988420BD97A
:2026E000FA2135A003F0C9FCB8F80000B0F5007F2CD0B0F5C07F33D0D4E9020105EBC121E9
:2027000001443E48814203D9FB212BA003F0B5FC5046FFF77DFE50B344E00220BDE8F09F40
:2027200054465046FFF774FE98BB0120FFF7F4FD2046FFF76DFED9F81010064621F004018C
:20274000C9F810102EE02E498842C9D8D4E9020105EBC12101442A48D4E72A498842BFD8D0
:20276000D4E9020105EBC12101442648CAE73D60A56811E02846FFF709FE5046FFF748FE8B
:20278000D9F81010060021F00201C9F8101001D03D6007E005F50065D4E9020100EBC1200D
:2027A000A842E7D800218BF818103046B6E7000050000020002002402E2E2F44726976653A
:2027C00072732F53544D3332463178785F48414C5F4472697665722F5372632F73746D3319
:2027E00032663178785F68616C5F666C6173685F65782E6300000000E0F7FF1FFFFF030854
:20280000FFFF0708FFFF05082DE9F05F06462C480D460024017E17469846012925D0012109
:2028200081460176012E07D0022E05D0032E03D0C42124A003F021FCB5F1006F0AD3304828
:202840000088B0F5007F13D0B0F5C07F12D02D48854203D9C5211BA003F00FFC4CF2503AA4
:202860005046FFF7D5FD38B126E00220BDE8F09F2548EDE72548EBE7012E02D0022E00D034
:202880000426D346DFF888A0220141463846FFF76BFC81B205EB4400FFF78AFD5846FFF7F9
:2028A000B7FDDAF8102022F00102CAF8102018B9641CE4B2B442E7D3002289F81820D5E72D
:2028C000500000202E2E2F447269766572732F53544D3332463178785F48414C5F4472697D
:2028E0007665722F5372632F73746D3332663178785F68616C5F666C6173682E6300000033
:20290000E0F7FF1FFFFF0308FFFF0708FFFF05080020024005480169090605D504494160B1
:202920000449416000207047012070470020024023016745AB89EFCD2DE9F84FDFF8BCB236
:202940000D4604464FF00009584515D0AC48844212D0AC4884420FD0AB4884420CD0AB4853
:20296000844209D0AA48844206D0AA48844203D0CF21A9A003F081FB28880004000C03D163
:20298000D021A5A003F079FB6868F8B101281DD011281BD0022819D0122817D0AD498842F3
:2029A00014D0AD49884211D0AC4988420ED0AC4988420BD0AB49884208D0AB49884205D032
:2029C000032803D0D12194A003F057FB00274FF0010A00BF2E680AFA07F806EA080646453C
:2029E00075D15C4515D08648844212D0854884420FD0854884420CD08448844209D084487D
:202A0000844206D08348844203D0DF2182A003F034FB904869680A1A814259D00EDC0329A3
:202A200076D006DC002953D0012919D002296AD131E0112921D0122965D13AE0B2F5881F94
:202A400046D006DCB2F5803F42D0B2F5801F5AD13EE0B2F5001F3BD0B2F5041F53D137E0A1
:202A6000E868022807D0012805D0032803D0E72169A003F002FBE8683FE0E868022807D048
:202A8000012805D0032803D0EE2163A003F0F5FAE868001D31E0E868022807D0012805D079
:202AA000032803D0F5215CA003F0E7FAE868083023E0E868022807D0012805D0032803D05A
:202AC000FC2155A003F0D9FAE8680C3015E08FE0A86888B1012812D0022808D040F209118C
:202AE0004DA003F0CAFAA86830B1012807D04FF00809C4F8148006E00420814603E04FF0AE
:202B00000809C4F81080FF2E05D8224605E0FFE74FF00000F1E704F104024FEA870001D96F
:202B2000A0F1200013684FF00F0101FA00FC23EA0C0309FA00FC43EA0C0313606868C000C9
:202B400056D54A48826942F001028261806927F0030200F001000090454802449068BB07A2
:202B60001B0F994088435C4501D1002119E024498C4201D1012114E022498C4201D10221A9
:202B80000FE021498C4201D103210AE01F498C4201D1042105E01E498C4201D1052100E00F
:202BA00006219940014391606868C0033148016801D5314300E0B1430160686880032E4823
:202BC000016801D5314300E0B14301606868C0022A48016801D5314300E0B1430160686851
:202BE00080022748016801D5314300E0B14301607F1C102FFFF4EEAEBDE8F88F000801401E
:202C0000000C0140001001400014014000180140001C0140002001402E2E2F447269766525
:202C200072732F53544D3332463178785F48414C5F4472697665722F5372632F73746D33B4
:202C400032663178785F68616C5F6770696F2E6300000000000011100000211000003110F5
:202C6000000012100000221000003210001002400000014000040140040401400804014050
:202C80000C04014070B50C00054604D14FF4E27103A003F0F2F9A868204000D0012070BDED
:202CA0002E2E2F447269766572732F53544D3332463178785F48414C5F4472697665722F8D
:202CC0005372632F73746D3332663178785F68616C5F6770696F2E630000000070B51546AA
:202CE0000C00064604D14FF4F27108A003F0C5F945B1012D04D040F2E51104A003F0BDF93B
:202D0000346170BD2004306170BD00002E2E2F447269766572732F53544D333246317878B6
:202D20005F48414C5F4472697665722F5372632F73746D3332663178785F68616C5F677004
:202D4000696F2E630000000001480068704700000400002002480168491C0160704700004E
:202D600004000020074810B5016841F010010160032000F0B1F8002000F006F800F016F847
:202D8000002010BD0020024010B5044600F0C6FA4FF47A71B0FBF1F000F061FF0022214692
:202DA000501E00F049F8002010BD0000094808B5816941F001018161806900F00100009010
:202DC000032000F089F80022BDE808401146501E00F032B80010024010B5040003D5E621B7
:202DE00006A003F04AF904F01F01012088406109890001F1E021C1F8000110BD2E2E2F44BE
:202E00007269766572732F53544D3332463178785F48414C5F4472697665722F5372632FA3
:202E200073746D3332663178785F68616C5F636F727465782E63000070B515460C4606461B
:202E4000102A03D3D22114A003F017F9102C03D3D32111A003F011F91E480068C0F302235E
:202E6000C3F107022046042A00D90422191D072901D2002300E0DB1E012404FA02F1491E50
:202E8000014099409C40641E2C4021433046BDE8704001F04BBB00002E2E2F4472697665A3
:202EA00072732F53544D3332463178785F48414C5F4472697665722F5372632F73746D3332
:202EC00032663178785F68616C5F636F727465782E6300000CED00E010B5044607280BD02E
:202EE000062C09D0052C07D0042C05D0032C03D0BA2108A003F0C1F8154904F007020868BE
:202F00004FF6FF03184040EA0220124A1043086010BD00002E2E2F447269766572732F53F6
:202F2000544D3332463178785F48414C5F4472697665722F5372632F73746D3332663178D7
:202F4000785F68616C5F636F727465782E6300000CED00E00000FA052DE9F05F0F46050049
:202F600004D140F2CA21DDA003F087F82868C1070AD1810708D4410706D4000704D440F2A6
:202F8000CB21D6A003F079F847B1012F06D0022F04D04FF43371D1A003F06FF8DFF87493D8
:202FA000D9F80000012600F00700DB4C4FF4003A4FF0007B41F28838B8427DD2D9F80010A7
:202FC00021F007013943C9F80010D9F8000000F00700B84271D1287880071CD5A868A0B10E
:202FE000802812D0902810D0A0280ED0B0280CD0C0280AD0D02808D0E02806D0F02804D0F9
:203000004FF43971B5A003F038F86068A96820F0F000084360602878C0075FD0686868B1E8
:20302000012816D0022822D040F2EB21ABA003F024F8686801280CD0022818D0022191FA38
:20304000A1F0B0FA80F040F0200040091DD020681CE09AFAAAF0B0FA80F040F020004009DA
:2030600001D0206800E0606A9AFAAAF110E09BFAABF0B0FA80F040F02000400901D02068F2
:2030800000E0606A9BFAABF102E0606A91FAA1F1B1FA81F101F01F018E4030420DD0606879
:2030A000696820F0030008436060FFF74DFE0646686801280CD001E028E0CEE00228474671
:2030C00013D01EE0FFF740FE801BB84201D9B0E047466068C0F381000128F3D1BFE000BF08
:2030E000FFF732FE801BB8427ED86068C0F381000228F5D1B3E000BFFFF726FE801BB842D2
:2031000072D8606810F00C0FF6D1A8E0287880071CD5A868A0B1802812D0902810D0A028D0
:203120000ED0B0280CD0C0280AD0D02808D0E02806D0F02804D04FF44D7168A002F09DFF0A
:203140006068A96820F0F000084360602878C00776D0686868B1012816D0022822D040F298
:203160003B315EA002F089FF686801280CD0022818D0022191FAA1F0B0FA80F040F02000DB
:2031800040091DD020681CE09AFAAAF0B0FA80F040F02000400901D0206800E0606A9AFAFD
:2031A000AAF110E09BFAABF0B0FA80F040F02000400901D0206800E0606A9BFAABF102E08B
:2031C000606A91FAA1F1B1FA81F101F01F018E40304242D06068696820F0030008436060D1
:2031E000FFF7B2FD064600E023E06868012808D0022812D020E000BFFFF7A6FD811B4145A4
:2032000017D86068C0F381000128F5D118E000BFFFF79AFD811B41450BD86068C0F381008F
:203220000228F5D10CE000BFFFF78EFD811B414502D90320BDE8F09F606810F00C0FF3D177
:20324000D9F8001021F007013943C9F80010D9F8000000F00700B84201D00120EAE7287802
:203260004FF4806640074FF4A0674FF4C0684FF4E06914D5E86860B1B0420AD0B84208D0B5
:20328000404506D0484504D04FF4637113A002F0F4FE6068E96820F4E060084360602878AC
:2032A000000715D5286960B1B0420AD0B84208D0404506D0484504D040F2933107A002F092
:2032C000DCFE6068296920F4605040EAC10060600020FFF759FD0020ACE700002E2E2F445D
:2032E0007269766572732F53544D3332463178785F48414C5F4472697665722F5372632FBF
:2033000073746D3332663178785F68616C5F7263632E6300002002400010024000B500F058
:2033200043F808494968F02292FAA2F201F0F001B2FA82F2D140044A515CC8400349086054
:2033400000BD000000100240706401080000002000B5FFF7E3FF074949684FF4E06292FAC2
:20336000A2F201F4E061B2FA82F2D140024A515CC84000BD001002407064010800B5FFF7BA
:20338000CDFF074949684FF4605292FAA2F201F46051B2FA82F2D140024A515CC84000BDB6
:2033A000001002407064010810B51AA385B00FCB8DE80F001BA01C4B006804905A681B4886
:2033C00002F00C01042902D0082902D0184805B010BD4FF4701494FAA4F402F47011B4FAF8
:2033E00084F4E140D2031DF801100FD55A684FF4003393FAA3F302F40032B3FA83F3DA4095
:2034000004AB9A5CB0FBF2F04843E0E709484843DDE7000002030405060708090A0B0C0D2E
:203420000E0F101001020000001002408096980000127A0000093D002DE9F84F040003D145
:20344000FE21F1A002F019FEDFF8F493FD4D20684FF0000A4FF002084FF4803B012658B1C3
:20346000C1070CD181076FD401076ED440076DD4FF21E5A002F001FE2078C00732D060684B
:2034800048B1584507D0B0F5A02F04D040F20511DDA002F0F2FD6868C0F38100012807D0CD
:2034A0006868C0F3810002281DD16868C0031AD54FF4003090FAA0F1B1FA81F141F0200171
:2034C000490901D0296800E0696A90FAA0F0B0FA80F000F01F0006FA00F0014202D0606875
:2034E00000287BD086E0286820F480302860286820F480202860FFF727FC4FF40037009028
:2035000006E000BFFFF720FC0099401A64287CD897FAA7F0B0FA80F040F02000400901D075
:20352000286800E0686A97FAA7F1B1FA81F101F01F0106FA01F10842E4D16068584506D1C5
:20354000286840F480300DE057E0EDE08AE110B1B0F5A02F0DD0286820F48030286028681D
:2035600020F480202860606820B3FFF7EDFB00900AE0286840F480202860E1E7FFF7E4FB93
:203580000099401A6428C2D897FAA7F0B0FA80F040F02000400901D0286800E0686A97FA93
:2035A000A7F1B1FA81F101F01F0106FA01F10842E4D01FE0FFF7C8FB009005E0FFF7C4FB73
:2035C0000099401A6428A2D897FAA7F0B0FA80F040F02000400902D0286801E0BCE0686A66
:2035E00097FAA7F1B1FA81F101F01F0106FA01F10842E3D1207880076BD5206940B1012882
:2036000006D04FF4A47180A000E0D6E202F035FD60691F2804D940F249117BA002F02DFDF0
:20362000686810F00C0F07D06868C0F3810002281BD16868C00318D498FAA8F0B0FA80F0EB
:2036400040F02000400901D0286800E0686A98FAA8F1B1FA81F101F01F0106FA01F1084229
:203660002BD02069012877D127E0206990B396FAA6F0B0FA80F049F82060FFF765FB47469E
:20368000009005E0FFF760FB0099401A02289AD897FAA7F0B0FA80F040F02000400901D029
:2036A000286800E0686A97FAA7F1B1FA81F101F01F0106FA01F10842E4D02868F82292FA4B
:2036C000A2F26169B2FA82F220F0F80091400843286026E0FFE796FAA6F1B1FA81F149F84F
:2036E00021A0FFF731FB4746009005E0FFF72CFB0099401A0228CAD897FAA7F0B0FA80F0C7
:2037000040F02000400901D0286800E0686A97FAA7F1B1FA81F101F01F0106FA01F108426A
:20372000E4D12078000744D5A06998B3012806D040F2891134A002F0A0FCA06950B396FAFF
:20374000A6F0B0FA80F009EB8000C0F88064FFF7FBFA4746009007E0DBE100BFFFF7F4FA5B
:203760000099401A022892D897FAA7F0B0FA80F040F06000B6EB501F01D128680CE097FA01
:20378000A7F0B0FA80F040F06000B7EB501F02D1286A01E00EE0686A97FAA7F1B1FA81F18B
:2037A00001F01F0206FA02F10842D7D00120FEF75DFF54E096FAA6F1B1FA81F109EB8101B3
:2037C000C1F880A4FFF7C0FA4746009006E000BFFFF7BAFA0099401A02288CD897FAA7F047
:2037E000B0FA80F040F06000B6EB501F01D128682BE097FAA7F0B0FA80F040F06000B7EB2E
:20380000501F21D1286A20E02E2E2F447269766572732F53544D3332463178785F48414C28
:203820005F4472697665722F5372632F73746D3332663178785F68616C5F7263632E63003B
:203840000000424200100240686A97FAA7F1B1FA81F101F01F0206FA02F10842B8D120780A
:20386000400774D5E06848B1012807D0052805D04FF4DB71AFF2700002F0FFFBE86940F068
:203880008050E861E86900F080500090D948016841F480710160FFF757FA074605E000BF25
:2038A000FFF752FAC01B642897D8D2480068C005F6D5286A20F001002862286A20F004000B
:2038C0002862FFF741FA4746009007E0FFF73CFA0099411A41F288308142E5D897FAA7F076
:2038E000B0FA80F040F04000B6EB501F01D128680BE097FAA7F0B0FA80F040F04000B7EB8D
:20390000501F01D1286A00E0686A97FAA7F1B1FA81F101F01F0106FA01F10842D6D1E068A0
:2039200001280AD008B1052812D0286A20F001002862286A20F0040002E0286A40F0010044
:203940002862E068A0B3FFF7FFF980460EE05EE0286A40F004002862EFE700BFFFF7F4F99A
:20396000A0EB080141F2883081429DD897FAA7F0B0FA80F040F04000B6EB501F01D128686C
:203980000BE097FAA7F0B0FA80F040F04000B7EB501F01D1286A00E0686A97FAA7F1B1FA8F
:2039A00081F101F01F0206FA02F10842D6D02EE0FFE7FFF7C9F9804608E000BFFFF7C4F9D4
:2039C000A0EB080141F28830814286D897FAA7F0B0FA80F040F04000B6EB501F01D1286823
:2039E0000BE097FAA7F0B0FA80F040F04000B7EB501F01D1286A00E0686A97FAA7F1B1FA2F
:203A000081F101F01F0206FA02F10842D6D1E06900287DD001280AD0022808D040F25521D3
:203A2000AFF21C2002F029FBE069002870D06868C0F3810002286CD0E0694FF080770228CF
:203A40000BD097FAA7F1B1FA81F149F821A0FFF77BF907464FF00074B2E0206A38B1584537
:203A600005D040F25E21AFF2602002F006FB606A78B3B0F5802F2CD0B0F5002F29D0B0F5F5
:203A8000402F26D0B0F5801F23D0B0F5A01F20D0B0F5C01F1DD0B0F5E01F1AD0B0F5001F73
:203AA00017D0B0F5101F14D0B0F5201F11D0B0F5301F0ED0B0F5401F0BD0B0F5501F08D005
:203AC000B0F5601F05D040F25F21AFF2C42002F0D4FA97FAA7F15046B1FA81F1BA4649F8D9
:203AE0002100FFF731F980464FF0007706E000BFFFF72AF9A0EB080002285ED897FAA7F030
:203B0000B0FA80F040F02000400903D0286802E06BE06CE0686A97FAA7F1B1FA81F101F00D
:203B20001F0106FA01F10842E2D1206A584510D1A06840B1B0F5003F05D040F27521AFF253
:203B4000383002F09AFA6868A16820F4003008436860D4E908010843696821F47411084380
:203B600068609AFAAAF0B0FA80F049F82060FFF7EBF8044605E000BFFFF7E6F8001B022894
:203B80001BD897FAA7F0B0FA80F040F02000400901D0286800E0686A97FAA7F1B1FA81F1FE
:203BA00001F01F0106FA01F10842E5D01DE000BFFFF7CAF8C01B022802D90320BDE8F88F60
:203BC00094FAA4F0B0FA80F040F02000400901D0286800E0686A94FAA4F1B1FA81F101F0CC
:203BE0001F0106FA01F10842E2D10020E6E70120E4E700000070004010B54FF0E0240428F9
:203C000009D020B14FF4DF7105A002F036FA206920F0040002E0206940F00400206110BD16
:203C20002E2E2F447269766572732F53544D3332463178785F48414C5F4472697665722FFD
:203C40005372632F73746D3332663178785F68616C5F636F727465782E630000704710B538
:203C6000401EB0F1807F01D3012010BD4FF0E02460610F21601700F059FC0020A06107204C
:203C80002061002010BD10B5FFF7E8FF10BD4FF0E020016921F002010161704770470000BA
:203CA00038B5044600680168C26811F0010F02F4807204D01AB1E16B41F00101E16301680E
:203CC000C1F34002416901F0010122B119B1E26B42F00402E2630268C2F3800222B119B1AC
:203CE000E26B42F00202E2630268C2F3C00222B119B1E16B41F00801E1630168C068C1F36F
:203D0000401100F0200019B110B1204600F0F0FC20680168C068C1F3C01100F0800019B19D
:203D200010B1204600F0F2FD21680868CA68C0F3801002F04002012570B16AB1CA682046E1
:203D400022F04002CA6094F83910322911D080F8395000BF00F0AEF9E06B002808D02068AA
:203D600001684068009084F839502046FFF796FF38BD222180F83910ECE7000070B50400B7
:203D800020D0A06936490028364A374B20681BD088420AD0904208D0984206D040F20311CA
:203DA00032A002F06AF9A069F8B1A069B0F5807F1BD0B0F5007F18D0B0F5407F15D04FF4FA
:203DC00082710FE0012070BD88420ED090420CD098420AD03449884207D03449884204D070
:203DE0004FF4847121A002F048F9A06838B1B0F5805F04D04FF485711CA002F03EF9E069E7
:203E000020B140F20B1119A002F037F994F83900002520B984F83850204600F049F8022028
:203E200084F839002068C16821F40051C160204600F0B2FC2068016921F4904101612068CF
:203E4000416921F02A0141612068C16841F40051C160E563012084F83900002070BD000017
:203E60000038014000440040004800402E2E2F447269766572732F53544D33324631787864
:203E80005F48414C5F4472697665722F5372632F73746D3332663178785F68616C5F756194
:203EA00072742E6300000000004C00400050004010B50068154986B0884225D114488169A8
:203EC00041F4804181618069124C00F4804004904FF4007000900220019003200390694620
:203EE0002046FEF729FD00212015CDE90001029169462046FEF720FD002211462520FEF7C7
:203F00009BFF2520FEF768FF06B010BD0038014000100240000801402DE9F047044690F8B0
:203F2000390099460D46012801D0122858D12DB322B394F83800012852D0012684F83860BA
:203F40000027E76394F8390012281AD05FF0220084F83900A285E2854FF48058E08D4B463A
:203F6000401EE085A0684FF0000240454FF02001204616D100F0FDFCB0B904E00120BDE807
:203F8000F0873220E4E7206900282068406803D0C1B225F8011B12E0C0F3080125F8021B45
:203FA0000DE000F0E6FC08B10320E8E7206900282068406801D000F07F0005F8010BE08D00
:203FC0000028CBD194F83900322805D084F8396084F838700020D2E7122084F83900F7E752
:203FE0000220CCE7704700002DE9F047044690F8390099460D46012801D0222858D12DB35E
:2040000022B394F83800012852D0012684F838600027E76394F8390022281AD05FF01200B6
:2040200084F83900A284E2844FF48058E08C4B46401EE084A0684FF0000240454FF08001D7
:20404000204613D100F095FC08BB04E00120BDE8F0873220E4E728882168C0F308004860F8
:20406000206908B16D1C08E0AD1C06E000F081FC68B9216815F8010B4860E08C0028D5D1CC
:204080004B4600224021204600F073FC08B10320DDE794F83900322806D084F8396000BFDE
:2040A00084F838700020D2E7222084F83900F7E70220CCE7704700000022114610F1030025
:2040C000491C10F80139C9B203EB02220429F7D31046704710B5094C0346302020707820CD
:2040E0006070092203F00F001B0900F015F8A054521ED2B2012AF5D8004810BDC0000020CD
:2041000004490870000A4870000A8870000AC8700846704708000020092801D8303004E059
:20412000A0F10A01052902D83730C0B27047FF2070470000014800687047000014000020D9
:2041400010B58378002B14D0042B12D20022114605E08468645C491C04EB0222C9B28B42B3
:20416000F7D802E01202491CC9B20429FAD30148026010BD140000207CB50546C0880C46DE
:20418000022801D200207CBD6946284600F011F80028F8D001A9284600F00BF80028F2D0CE
:2041A0009DF804109DF80000FEF73AF8207001207CBDC2888AB183888268D25C0A70C18845
:2041C000491EC1808188491C89B281800288914201D300218180012070470020704700008B
:2041E00008490020A1F5807208604860C1E90220FF220A700449421EC1E900028860C860E6
:2042000070470000CC010020140000202DE9F04FB14E89B00025B57075600446757001A941
:20422000FFF7C7FF012730B19DF80400BA463A280DD00220E6E02188E088814205D5658066
:20424000A580E580A068FDF7A6FF3773DBE006A92046FFF791FF9DF818804FF6FF7958B33E
:20426000032701A92046FFF787FF9DF8041008EB010202F0FF08C0B34FEA012B052701A942
:204280002046FFF779FF9DF8041008EB010202F0FF0858B30BEB01000290072707A92046DA
:2042A000FFF76AFF9DF81C2008EB020101F0FF0B98B30927002070E02188E088081A012896
:2042C0007EDB4A46A088401E80B2A080904201D1481EA080E088401C7F1E3F04E0803F0CA4
:2042E000F0D100BF86F80CA08DE000E016E02188E088081A0328E3DB4A46A088401E80B26D
:20430000A080904201D1481EA080E088401C7F1E3F04E0803F0CF0D1E4E715E02188E08872
:20432000081A05284CDB4A46A088401E80B2A080904201D1481EA080E088401C7F1E3F04D1
:20434000E0803F0CF0D1CDE72188E088081A072836DB4A46A088401E80B2A080904201D1BE
:20436000481EA080E088401C7F1E3F04E0803F0CF0D1B7E7FFF700FFF0B3B2689DF80410AE
:20438000BF1C02F808109DF80410FFB20BEB010000F0FF0B08F10100C0B29DF818108046F6
:2043A000884201A92046E5D3FFF7E6FE9DF804200BEB0201C9B2E8B3BF1CFFB2002900E034
:2043C00070E07FF436AF01A92046FFF7F2FE90B37F1C9DF80400FFB20D28F2D101A920460F
:2043E000FFF7E7FE40B39DF804000A28E9D1029870609DF81C0000E009E070709DF81800F9
:20440000B0700320307309B03348BDE8F08F2188E088081AB84245DB4A46002F93D0A088C7
:20442000401E80B2A080904201D1481EA080E088401C02E005E01AE02FE07F1EE080BFB2A0
:20444000EBE72188E088081AB8422BDB4A46002F8FD0A088401E80B2A080904201D1481E57
:20446000A080E088401C7F1EE080BFB2EFE72188E088081AB84215DB4A46002FCED0A08872
:20448000401E80B2A080904201D1481EA080E088401C7F1EE080BFB2EFE72188E088081A07
:2044A000B84214DA6580A580E580A068FDF773FE18E7A088401E80B2A080904201D1481E57
:2044C000A080E088401C7F1EE080BFB200E04A46002FEED106E70000CC01002070B5124ECD
:2044E0000546406831684418E00701D0002070BDAA78A968F068FDF7C7FEF060AA782046B3
:20450000A968FDF7F3FF0028F1D07068A04200D97460A878B2680119914202D9641E20446C
:20452000B060012070BD0000140000200907090E002806DA00F00F0000F1E02080F8141D21
:20454000704700F1E02080F8001470472DE9FF478027002601250224DFF8C090CDE90264B8
:20456000CDE90075324639464846FEF7B7FB69464846FEF7E1F94FF48078CDE90264CDE9CB
:204580000085002241464846FEF7A8FB69464846FEF7D2F9CDE900753946214FCDE9026494
:2045A00000223846FEF79AFB69463846FEF7C4F9CDE90085CDE90264002241463846FEF77F
:2045C0008DFB69463846FEF7B7F9164FCDE9026400950022294638460195FEF77FFB6946A8
:2045E0003846FEF7A9F98DE870000022214638460394FEF773FB69463846FEF79DF98DE893
:20460000700021460394084C00222046FEF766FB69462046FEF790F9BDE8FF8700180140E3
:2046200000140140001001400008014010B5FEF791FBBDE81040FFF726BB30B58FB009202C
:2046400000904FF4A0200024CDE9010401200225CDE90605000408904FF4A0100990684609
:20466000FEF7EAFE0F20CDE90A056802CDE90C4002210AA80E94FEF76FFCFEF74FFE4FF4A1
:204680007A71B0FBF1F0FFF7EAFA0420FFF7B4FA00221146501EFEF7CFFB0FB030BD0000AF
:2046A0000E48016841F00101016041680C4A1140416001680B4A11400160016821F4802127
:2046C0000160416821F4FE0141604FF41F0181600548064940F0006008607047001002403A
:2046E0000000FFF8FFFFF6FE0020010008ED00E010B590F83910222903D0322901D00220D9
:2047000010BD8168B1F5805F11D00169002901681FD0496801F07F03816A4A1C82620B70BE
:20472000C18D491E0904090CC18518D030E00269816A002A0268526805D0D2B20A80816AF2
:20474000491C8162ECE7C2F308020A80816A891CF7E74A68816A4B1C83620A70E0E70168F4
:20476000CA6822F02002CA6090F83910322911D00168CA6822F48072CA6001684A6922F0A1
:2047800001024A615FF0010180F83910FFF72AFC002010BD1221F7E72DE9F0410446406806
:2047A0004949884204D340F24E7148A001F065FCE06838B1B0F5005F04D040F24F7143A0BD
:2047C00001F05BFC206950B1B0F5806F07D0B0F5C06F04D04FF4EA613CA001F04EFC606986
:2047E00030F00C0100D120B940F2517137A001F044FC20680169E26821F44051114301614E
:204800002169A0680843616908432168CA6841F20C639A430243CA6020684169A26921F4AB
:204820004071114341613849206864254FF03208884218D1FEF7A2FD00EBC00101EB0010D7
:2048400061688900B0FBF1F0B0FBF5F6FEF796FD00EBC00101EB001061688900B0FBF1F7CF
:20486000FEF78CFD17E0FEF773FD00EBC00101EB001061688900B0FBF1F0B0FBF5F6FEF74D
:2048800067FD00EBC00101EB001061688900B0FBF1F7FEF75DFD00EBC00101EB0010616867
:2048A0008900B0FBF1F0B0FBF5F06FF01801484307EB800108EB0110B0FBF5F0216866F367
:2048C0001F108860BDE8F08121AA44002E2E2F447269766572732F53544D33324631787843
:2048E0005F48414C5F4472697665722F5372632F73746D3332663178785F68616C5F75612A
:2049000072742E63000000000038014090F83910122903D0322901D0022070478168B1F534
:20492000805F016A0BD04A1C0262026809785160C18C491E0904090CC1840ED017E009886B
:204940000268C1F30801516001690029016A02D0491C0162ECE7891CFBE70168CA6822F0E0
:204960008002CA600068C16841F04001C160002070472DE9F0471D4690460E460446FEF777
:20498000E3F907465FEA08004FF000094FF0010808D030E0681C05D095B1FEF7D5F9C01BE8
:2049A000A8420DD82068006836EA0000F2D127E0681C20D025B1FEF7C7F9C01BA8421AD997
:2049C0002068C16821F08001C1602068C16821F02001C1602068C16821F48071C16020680F
:2049E000416921F00101416184F8398084F838900320BDE8F0872068006836EA0000D7D0E9
:204A00000020F6E70148FFF74BB90000800000200949CB886BB18A8888685B1E805C521C30
:204A2000CB8092B28A800B889A4201D300228A807047002070470000DC0100200C49CA883C
:204A40000B88521C9A4210D24B888A68D054C888401CC8804888401C80B248800A88904230
:204A600001D30020488001207047002070470000DC0100200348002181708181C1700182BB
:204A8000704700002400002038B506208DF8000000208DF801006846FDF788FB84B2FDF78E
:204AA00095FD4FF0FF3322466946FFF79DFA38BD38B518208DF8000000208DF8010068465C
:204AC000FDF774FB84B2FDF781FD4FF0FF3322466946FFF789FA38BD38B543208DF8000000
:204AE00000208DF801006846FDF760FB84B2FDF76DFD4FF0FF3322466946FFF775FA38BD9D
:204B00002DE9F84FF74C09270626207805254FF010094FF00D0B4FF0070A4FF0030818284E
:204B200081F06A81DFE800F00C11225D79D5F2F0EFEEEDECEBEAE9E8E7E6E5E4E3E2E1E01E
:204B40000120207000202071C8E3FFF7C5FFFF206071FFF78FFFE448002141808180C180CA
:204B600001888068FDF717FB0220B8E3DD4EA078143630444FF47A7101F037FA0028A07870
:204B800029D0401CC0B2A0700328DDD33146A1F10F0001F04DFA38B13078012806D0022859
:204BA0000FD084F801A036E0677034E08020E081CD480188C088081A80280BD384F800806D
:204BC000C2E7C9484FF48061E1810288C088101A8842F3D2B5E110B1062060701BE008209A
:204BE000FBE74FF47A71684601F0FFF990B19DF80000FFF723FFBB499DF80000103101F055
:204C0000EBF9A089401C80B2A081E18988429BD30420AAE76670257096E7B24FE0780A37FF
:204C200038444FF47A7101F0E0F90028F2D0E078401CC0B2E070022886D33978208AB1EB26
:204C4000102F44D17978C0B2814240D18021A748FDF7A1FADFF8948200274FF0010900BF8E
:204C6000FFF7D6FE30B17F1CFFB208F8010B802FF6D30BE057B1B9F1000F07D0FFF7C8FE7A
:204C800020B1202802D0FDF7B6FAF7E79748FDF78DFAD0B1E069401CE061FFF7F5FEFFF707
:204CA0001BFF9148002545808580C58001888068FDF771FA2571FFF7DDFEFDF70BFCFFF7A5
:204CC0008FFAFDF727FE6570D3E00B2085E70A2083E720790A2803D3012040E2132044E73D
:204CE000401C2071012040E7F4E3F4E3F4E3F4E34CE245E28EE177E153E135E1F8E0D9E02C
:204D0000D4E0BBE084E061E044E0FFE7754EA078143630444FF47A7101F067F90028A0783D
:204D200032D0401CC0B2A070032824D33146A1F10F0001F07DF938B13078012806D0022838
:204D40000DD084F801A03FE067703DE08020E08165480188C088081A802809D2F1E06248A7
:204D60004FF48061E1810288C088101A884276D384F800A0E8E630780428FBD15A48002151
:204D800041808180C1808BE010B1062060701BE00820FBE74FF47A71684601F026F990B1BC
:204DA0009DF80000FFF74AFE4E499DF80000103101F012F9A089401C80B2A081E1898842AB
:204DC000D8D30820D1E666702770BDE6454DE0780A3528444FF47A7101F007F90028F2D09B
:204DE000E078401CC0B2E0700228C3D32978208AB1EB102F0AD16978C0B2814206D1E06946
:204E0000401CE061002060701120AEE60A20BDE73548E2890188C388CB1A934214DA0022EC
:204E200042808280C2808068FDF7B5F912E08188491E89B28180994200D18580C188491CE5
:204E4000521EC18092B203E0491E4FF6FF738DB2002AECD12079052802D302207FE170E0C9
:204E6000401C2071FFF706FE6078082803D001F0CBF8267068E6FFF707FEFAE74FF47A71CE
:204E8000684601F0B2F8F8B19DF8000004281BD100252571FFF7EEFD134845808580C5806D
:204EA00001888068FDF777F90B205EE601F0ACF80C205AE64FF47A71684601F096F818B189
:204EC0009DF80000042802D084F8018006E7FFF7DBFDFFF701FE00252571FFF7CBFD657044
:204EE00090E0000024000020DC010020E8090020FC4EA0784FF47A71304401F076F8002865
:204F0000A0782BD0401CC0B2A0700328B2D3FF2060713146A1F10F0001F08AF838B13078E4
:204F2000012806D002280ED084F801A036E0677034E08020E081EC480188C088081A80287C
:204F40000AD26570CAE6E8484FF48061E1810288C088101A8842F4D30E2006E610B10620AC
:204F600060701BE00820FBE74FF47A71684601F03CF890B19DF80000FFF760FDD9499DF87B
:204F80000000091F01F028F8A089401C80B2A081E1898842BAD30F20E7E5667084F8009062
:204FA000D2E5D04DE0780A3D28444FF47A7101F01CF800283FF407AFE078401CC0B2E07058
:204FC0000228EDD32978208AB1EB102F0AD16978C0B2814206D1E069401CE061FFF754FDCC
:204FE0001220C2E50A20BBE72079052801D30420B5E0401C2071FFF73DFD6078082804D0C0
:2050000001F002F884F800B09EE5FFF73DFDFFF763FDF7E7B448FFF7F9F8A061017B012908
:2050200005D003290AD0206A401C206215E0FFF72BFD00202071FFF71DFD1AE7216A491C68
:20504000216201290CD04278042A15D0052A13D0AAB1012A7ED0491E216284F801B03DE6DA
:205060004178042903D0052901D0002075E0FFF767F80120E07167E5FFF762F864E5E079FE
:20508000F0B30026E671FFF755F8A169974D49680844A84218D3FFF74DF8A16949680844AB
:2050A0009349884210D2A6712846FDF75BFA9048401EFDF75DFA4FF40031284642E0206A8B
:2050C000401E20620F204AE0FFF734F8A169894D4FF000664968B542014402D0864885429C
:2050E00000D18648814236D3FFF724F8A169B5424968014402D08048854200D17F4800E063
:2051000024E000F55840814225D20120A071B54202D07948854200D17848FDF723FAB54228
:2051200002D07548854200D174484DF6FF710844FDF71EFAB54202D06F48854200D16F48B2
:205140004FF46041FDF78EF90028B8D02078112807D0F9E40CE0206A401E20620C20607069
:20516000BCE5A069FFF7BAF9002884D10E20F6E7FFF78AFC00202071FFF77CFC0A20F4E4B7
:20518000A07908B11520F0E41420EEE4FFF790FCFFF78EFCFFF78CFCFFF78AFCFFF788FCB8
:2051A0004FF47A70FDF762FAFDF710FA4FF0FF352B460C2252A1FEF717FF607810287DD205
:2051C000DFE800F07C0819FDFCFBFAF9F8F7F6F5F4F3F28F4E48FCF7E9FF86B2FDF7F6F9C6
:2051E0002B4632464A49FEF7FFFEFDF7EFF92B462B2248A127E04648FCF7D8FF86B2FDF733
:20520000E5F92B4632464249FEF7EEFEFDF7DEF92B461E224AA1FEF7E7FEE069FEF75AFF83
:20522000FCF7C4FF86B2E069FEF754FF0746FDF7CDF92B4632463946FEF7D6FEFDF7C6F904
:205240002B460A2246A1FEF7CFFE4848FCF7AEFF86B2FDF7BBF92B4632464449FEF7C4FECB
:20526000DFF888804FF4FC3241494046FDF73EF80746FDF783F98146FDF786F90646002F32
:205280002ED0FDF7A3F92F462B46232239A1FEF7ABFEFDF79BF93B460D223FA1FEF7A4FE2E
:2052A0003046FEF717FFFCF781FF85B23046FEF711FF0646FDF78AF93B4600E0A4E12A462F
:2052C0003146FEF791FEFDF781F93B46022226A1FEF78AFEFDF77AF93B4671E0FCE3FCE385
:2052E000A3E180E138000020DC0100200000020800000408002001080040000800200108C4
:205300000D0A0D0A0D0A0D0A0D0A0D0A00000000A66501084572726F72206F636375722089
:205320007768656E20726563656976696E67206669727374207061636B616765210D0A0073
:205340004572726F72206F63637572207768656E20726563656976696E67204E6F2E00004E
:20536000207061636B6167650D0A00004765010800F80308506F7765724D4355206170701F
:205380006C69636174696F6E207665726966792070617373210D0A004352432076616C7546
:2053A000652069733A000000F4E0CAE0B8E0A6E094E07EE06CE05AE048E036E024E012E02A
:2053C0001B22EAA1FEF710FEEF48FCF7EFFE85B2FDF7FCF83B462A46EB49FEF705FE404629
:2053E000FCF7FEFE78E3E948FCF7E0FE86B2FDF7EDF82B463246E549FEF7F6FDFDF7E6F87F
:205400002B462922E2A11EE7E048FCF7CFFE86B2FDF7DCF82B463246DC49FEF7E5FDFDF787
:20542000D5F82B462A22E5A10DE7D848FCF7BEFE86B2FDF7CBF82B463246D449FEF7D4FDDE
:20544000FDF7C4F82B461F22E7A1FCE6CF48FCF7ADFE86B2FDF7BAF82B463246CB49FEF7FB
:20546000C3FDFDF7B3F82B462322E7A1EBE6C748FCF79CFE86B2FDF7A9F82B463246C34960
:20548000FEF7B2FDFDF7A2F82B462722E7A1DAE6BE48FCF78BFE86B2FDF798F82B463246B1
:2054A000BA49FEF7A1FDFDF791F82B461A22E9A1C9E6B648FCF77AFE86B2FDF787F82B466E
:2054C0003246B249FEF790FDFDF780F82B462522E7A1B8E6FDE3FDE345E300E1AB48FCF7DE
:2054E00065FE86B2FDF772F82B463246A749FEF77BFDFDF76BF82B462122E7A1A3E6A34866
:20550000FCF754FE86B2FDF761F82B4632469F49FEF76AFDFDF75AF82B462F22E7A192E68C
:205520009A48FCF743FE86B2FDF750F82B4632469649FEF759FDFDF749F82B463C22EBA13E
:2055400081E69248FCF732FE86B2FDF73FF82B4632468E49FEF748FDFDF738F82B461C22B7
:20556000F2A1FEF741FD206AFEF7B4FDFCF71EFE86B2206AFEF7AEFD0746FDF727F82B46F3
:2055800032463946FEF730FDFDF720F82B461922EEA158E67D48FCF709FE86B2FDF716F874
:2055A0002B4632467949FEF71FFDFDF70FF82B461D22EDA1FEF718FD206AFEF78BFDFCF7F2
:2055C000F5FD87B2206AFEF785FD0646FCF7FEFF2B463A463146FEF707FDFCF7F7FF2B46A8
:2055E0002222E9A12FE66948FCF7E0FD86B2FCF7EDFF2B4632466549FEF7F6FCFCF7E6FFDA
:205600002B462122E9A11EE66048FCF7CFFD86B2FCF7DCFF2B4632465C49FEF7E5FCFCF784
:20562000D5FF2B461622EAA10DE6FCF7CFFF2B463722EDA1FEF7D8FCFCF7C8FF2B46182228
:20564000F7A1FEF7D1FC4846FEF744FDFCF7AEFD87B24846FEF73EFD8046FCF7B7FF2B46B7
:205660003A464146FEF7C0FCFCF7B0FF2B4602225CA1FEF7B9FCFCF7A9FF2B461522EFA1C1
:20568000FEF7B2FC3046FEF725FDFCF78FFD87B23046FEF71FFD0646FCF798FF2B463A46D4
:2056A0003146FEF7A1FCFCF791FF2B4602224DA1FEF79AFCFCF78AFF2B461322E5A1FEF7B3
:2056C00093FC3148FCF772FD86B2FCF77FFF2B4632462D49FEF788FC4FF0006080E64FF497
:2056E000FC32E149E148FCF701FE05466420FCF7BDFFD5B3FCF76AFF4FF0FF373B461222AB
:20570000DBA1FEF771FCDF48FCF750FD85B2FCF75DFF3B462A46DB49FEF766FCFCF756FF0A
:205720003B461822D8A1FEF75FFCFCF727FF0546FCF74CFF3B460D22AFF2A431FEF754FCD8
:205740002846FEF7C7FCFCF731FD86B22846FEF7C1FC0546FCF73AFF3B4632462946FEF7D6
:2057600043FCFCF733FF3B46F9E19BE1526561647920746F2072756E206170706C69636187
:2057800074696F6E210D0A0047650108A66501084572726F72206F63637572207768656E36
:2057A00020726563656976696E6720454F54207061636B616765210D0A0000004572726F49
:2057C00072206F63637572207768656E20726563656976696E67206C617374207061636BDA
:2057E000616765210D0A00005265636569766520627566666572206973206E6F7420656E87
:205800006F756768210D0A005061636B61676520726563656976696E6720697320696E74AE
:205820006572727570746564210D0A005265636569766564207061636B6167652773206395
:205840006F6465206973206E6F74206D61746368210D0A004E6F2061636B207061636B6112
:20586000676520696E636F6D696E67210D0A00005265636569766564207061636B6167659D
:20588000277320534E206973206E6F74206D61746368210D0A0000005265636569766564B4
:2058A000207061636B61676520766572696679206661696C6564210D0A00000043616E6E0A
:2058C00027742066657463682066696C65206E616D652066726F6D20726563656976656447
:2058E000207061636B616765210D0A004572726F72206F63637572207768656E206665740D
:205900006368696E67206261736520616464726573732066726F6D20726563656976656482
:205920002066696C65210D0A000000004572726F72206F63637572207768656E20706172F4
:2059400073696E67204E6F2E00000000206C696E65206F6620726563656976656420666978
:205960006C65210D0A0000004572726F72206F63637572207768656E207772697474696ED5
:2059800067204E6F2E000000206C696E65206F662072656365697665642066696C6520741D
:2059A0006F20666C617368210D0A00004572726F72206F63637572207768656E20657261A2
:2059C00073696E6720666C617368210D0A000000556E6B6E6F776E206572726F72206F6384
:2059E000637572210D0A0000506F7765724D4355206170706C69636174696F6E2076657212
:205A0000696679206661696C6564212121212121212121212121212121212121210D0A002F
:205A200043616C63756C61746564204352432076616C75652069733A000000004352432011
:205A400076616C756520696E20666C617368206973000000526561647920746F20726573A6
:205A600074617274210D0A0000F80308000002084170706C636174696F6E2066696C65203B
:205A800022200000E8090020202220646F776E6C6F616420737563636565642121210D0A83
:205AA00000000000FCF792FD4FF0FF3633461222AFF24401FEF798FAD048FCF777FB85B222
:205AC000FCF784FD33462A46CC49FEF78DFAFCF77DFD3346172201E0B3E0B1E0C8A1FEF756
:205AE00083FAFCF74BFD0546FCF770FD33461822AFF2D401FEF778FA2846FEF7EBFAFCF778
:205B000055FB87B22846FEF7E5FA0546FCF75EFD33463A462946FEF767FAFCF757FD3346A3
:205B20000222AFF24031FEF75FFAFCF72DFD0746FCF74CFD33461622B7A1FEF755FA384670
:205B4000FEF7C8FAFCF732FB85B23846FEF7C2FA0746FCF73BFD33462A463946D4E0022250
:205B6000AFF280312AE1B2484FF00062904202D0B049884200D1B049904201F5584102D0C9
:205B8000AC4B984200D1AC4B4FF458421846FCF7ADFB05466420FCF769FDE5B3FCF716FDD0
:205BA0004FF0FF373B460C22A4A1FEF71DFA9348FCF7FCFA85B2FCF709FD3B462A468F49B3
:205BC000FEF712FAFCF702FD3B461822AFF24811FEF70AFAFCF7D2FC0546FCF7F7FC3B46B1
:205BE0000D22AFF64C01FEF7FFF92846FEF772FAFCF7DCFA86B22846FEF76CFA0546FCF7C0
:205C0000E5FC3B4632462946FEF7EEF9FCF7DEFC3B46022200E01DE0AFF23841FEF7E4F924
:205C2000207A88B1FCF7D2FC3B46122287A100BFFEF7DAF98A48217A405C002872D01620C3
:205C400020702078BDE8F88FFCF7C0FC3B46122284A1EDE7FCF7BAFC4FF0FF3633460C22CF
:205C600076A1FEF7C1F96548FCF7A0FA85B2FCF7ADFC33462A466149FEF7B6F9FCF7A6FC85
:205C8000334617225EA1FEF7AFF9FCF777FC0546FCF79CFC33461822AFF27C21FEF7A4F9F7
:205CA0002846FEF717FAFCF781FA87B22846FEF711FA0546FCF78AFC33463A462946FEF73A
:205CC00093F9FCF783FC3346022264A1FEF78CF901E07EE01EE0FCF757FC0546FCF776FC77
:205CE000334616224CA1FEF77FF92846FEF7F2F9FCF75CFA87B22846FEF7ECF90546FCF743
:205D000065FC33463A462946FEF76EF9FCF75EFC334624E7607A80B1FCF758FC4FF0FF33CA
:205D2000302200E04CE054A1FEF75EF9404D4FF00067BD4208D13F4807E0FCF747FC4FF0D6
:205D4000FF33302259A1EFE73948FCF70BFCBD4201D1384800E036484DF6FF710844FCF7D3
:205D600007FC344E4FF40068BD4201D1304600E02F48414600F55840FCF774FB0028F3D0F4
:205D8000BD4201D1314600E029494FF458420020FCF77AFAC043FEF7B3F90146BD4200D04B
:205DA000234E042206F55840FCF7A0FB607A48B1FCF70CFC4FF0FF332A2249A1FEF714F9B4
:205DC00017203DE7FCF702FC4FF0FF332A224FA1F4E7FCF7FBFB4FF0FF3633461322AFF243
:205DE0008C31FEF701F95448FCF7E0F985B2FCF7EDFB33462A466CE4002021E7E80900200B
:205E0000202220646F776E6C6F6164206661696C65642121210D0A004352432076616C7519
:205E20006520696E20666C6173682069733A0000002001080040000800200108426F6F7474
:205E40002066696C65202220000000004C3220626F6F743220757064617461210D0A0000C5
:205E6000360000204C3220626F6F743120757064617461210D0A0000526561647920746F7A
:205E80002065726173652063757272656E742072756E6E696E6720626F6F74284C32206292
:205EA0006F6F743229210D0A00000000526561647920746F20657261736520637572726594
:205EC0006E742072756E6E696E6720626F6F74284C3220626F6F743129210D0A00000000DF
:205EE00063757272656E742072756E6E696E6720626F6F74284C3220626F6F743229206550
:205F000072617365204F6B210D0A000063757272656E742072756E6E696E6720626F6F74CC
:205F2000284C3220626F6F743129206572617365204F6B210D0A00004765010870B51F4C06
:205F400000251F4A257065712571A570A582A5754FF40061118055809580D58002F10C00E9
:205F60009060FCF718F9E5816570E56125621549A5714FF000621448E571914201D08142F7
:205F800001D1012300E000232372914203D0814201D0012100E0002161724FF458452A46F3
:205FA0000A49FCF7A3F9054C2A461234084920700848FCF79BF9607070BD000024000020FF
:205FC000DC01002000200108004000080018010800F801080020010813B50C460A8801213A
:205FE0006846FCF739F920801CBD70B50C460546FCF7ECFA234601222946FDF78DFF08B186
:20600000002070BD012070BD38B515208DF8000000208DF801006846FCF7C8F884B2FCF70E
:20602000D5FA4FF0FF3322466946FDF7DDFF38BD10B54B780278DC43E4B2FF2A08D0521C1E
:20604000D2B29A4202D18978A14203D0002103E00022F6E701210270084610BD02E008C8F2
:20606000121F08C1002AFAD170477047002001E001C1121F002AFBD17047704710B54FF463
:2060800000410448FCF7FEFD08B1002010BD012010BD00000018014005494A68904202D8EC
:2060A0000968884201D2002070470120704700000C00002008B5FCF755FEFEF7BEFA92486D
:2060C000816941F010018161816901F010010091816941F00401816180698C4900F0040081
:2060E00000908B480C2201604FF4E131416000218160C160C0E904128161C161FDF73EFEA2
:20610000FCF768FAFEF722FAFCF792FAFCF794F880484FF0FF34B0F1006F02D07E4988426E
:2061200007D17E48FCF742F882B2794823467B4908E07A482C30FCF739F8784982B2744897
:2061400023462C31FDF750FF74485830FCF72EF8724982B26E4823465831FDF745FF6F4853
:206160007630FCF723F86D4982B2694823467631FDF73AFF69489830FCF718F8674982B233
:20618000634823469831FDF72FFF6448B130FCF70DF8624982B25E482346B131FDF724FF94
:2061A0005E48C730FCF702F85C4982B258482346C731FDF719FFFCF77BF832215848FCF723
:2061C000E9F920B152482346202256A18EE05F4F4FF4FC325C493846FCF788F80546FCF76F
:2061E000CDF98046FCF7D0F906464948002D234633D0232256A1FDF7F7FE454823460D2297
:206200005CA1FDF7F1FE3046FDF764FFFBF7CEFF85B23046FDF75EFF01463D4823462A466F
:20622000FDF7E2FE3A482346022256A1FDF7DCFE374823461B2254A1FDF7D6FE3748C7305E
:20624000FBF7B4FF354982B231482346C731FDF7CBFE3846FBF7C4FF4AE0372251A1FDF7B4
:20626000C3FE2B48234618225CA1FDF7BDFE4046FDF730FFFBF79AFF85B24046FDF72AFF8D
:206280000146234823462A46FDF7AEFE2048234602223CA1FDF7A8FE1D482346152256A16B
:2062A000FDF7A2FE3046FDF715FFFBF77FFF85B23046FDF70FFF0146154823462A46FDF73C
:2062C00093FE1348234602222EA1FDF78DFE104823463A224EA1FDF787FE1048C730FBF731
:2062E00065FF0E4982B20A482346C731FDF77CFEFFF724FE06482346222254A1FDF774FE20
:20630000FEF7FEFBFCE70000001002400038014080000020002001080040000880640108E3
:206320007D600108526561647920746F2072756E20696E746F20757064617461206D6F6431
:2063400065210D0A0000000000F8030800000208506F7765724D4355206170706C696361A7
:2063600074696F6E207665726966792070617373210D0A004352432076616C75652069738E
:206380003A0000000D0A0000526561647920746F2072756E206170706C69636174696F6E8B
:2063A000210D0A00506F7765724D4355206170706C69636174696F6E20766572696679202A
:2063C0006661696C6564212121212121212121212121212121212121210D0A0043616C635B
:2063E000756C61746564204352432076616C75652069733A000000004352432076616C7503
:206400006520696E20666C617368206973000000537461727420596D6F64656D20636F6DFE
:206420006D756E69636174696F6E20746F207265636569766564206170706C6963617469E4
:206440006F6E2066696C65210D0A0000596D6F64656D20636F6D6D756E69636174696F6E66
:206460002069732072756E6E696E67210D0A00000000000001020304010203040607080995
:20648000494F206D6F64756C65277320506F7765724D4355204C3220626F6F743120697373
:2064A0002072756E6E696E67210D0A00494F206D6F64756C65277320506F7765724D435599
:2064C000204C3220626F6F74322069732072756E6E696E67210D0A00486172647761726595
:2064E0002076657273696F6E20636F64652069733A20410D0A00536F66747761726520762C
:20650000657273696F6E20636F64652069733A2056302E39320D0A00417574686F722069A8
:20652000732045696E666163686D616E6E210D0A004461746520697320323031362E30393E
:206540002E3133210D0A002D2D2D2D2D2D2D2D2D2D2D2D2D2D2D2D2D2D2D2D2D2D2D2D2D0C
:206560002D2D2D2D2D2D2D2D2D2D2D2D2D2D2D2D2D2D2D2D2D2D2D2D2D2D2D2D2D2D2D2D7B
:206580002D2D2D2D2D2D2D2D2D2D2D2D2D2D2D2D2D2D2D2D2D2D2D2D2D2D2D2D2D2D2D2D5B
:2065A0002D0D0A0D0A00596D6F64656D20636F6D6D756E69636174696F6E206572726F7235
:2065C000210D0A0000002110422063308440A550C660E770088129914AA16BB18CC1ADD112
:2065E000CEE1EFF13112100273325222B5529442F772D662399318837BB35AA3BDD39CC39F
:20660000FFF3DEE36224433420040114E664C774A44485546AA54BB528850995EEE5CFF55A
:20662000ACC58DD55336722611163006D776F6669556B4465BB77AA719973887DFF7FEE71E
:206640009DD7BCC7C448E5588668A7784008611802282338CCC9EDD98EE9AFF9488969995A
:206660000AA92BB9F55AD44AB77A966A711A500A333A122AFDDBDCCBBFFB9EEB799B588B9E
:206680003BBB1AABA66C877CE44CC55C222C033C600C411CAEED8FFDECCDCDDD2AAD0BBD5A
:2066A000688D499D977EB66ED55EF44E133E322E511E700E9FFFBEEFDDDFFCCF1BBF3AAF1E
:2066C000599F788F8891A981CAB1EBA10CD12DC14EF16FE18010A100C230E3200450254038
:2066E00046706760B9839893FBA3DAB33DC31CD37FE35EF3B1029012F322D232354214529E
:2067000077625672EAB5CBA5A89589856EF54FE52CD50DC5E234C324A01481046674476459
:2067200024540544DBA7FAB79987B8975FE77EF71DC73CD7D326F2369106B016576676761D
:20674000154634564CD96DC90EF92FE9C899E9898AB9ABA94458654806782768C018E10859
:206760008238A3287DCB5CDB3FEB1EFBF98BD89BBBAB9ABB754A545A376A167AF10AD01A9D
:20678000B32A923A2EFD0FED6CDD4DCDAABD8BADE89DC98D267C076C645C454CA23C832C59
:2067A000E01CC10C1FEF3EFF5DCF7CDF9BAFBABFD98FF89F176E367E554E745E932EB23E1D
:2067C000D10EF01EE467010800000020500000005C60010834680108500000201810000006
:2067E0006C60010800A24A04000000000000000000000000000000000000000000000000D4
:20680000000000000000000000000000000000000000000000000000000000000000000078
:206820000000000000000000000000000000000000000000FFFFFFFFFFFFFFFFFFFFFFFF64
:20684000FFFFFFFFFFFFFFFFFFFFFFFFFFFFFFFFFFFFFFFFFFFFFFFFFFFFFFFFFFFFFFFF58
:20686000FFFFFFFFFFFFFFFFFFFFFFFFFFFFFFFFFFFFFFFFFFFFFFFFFFFFFFFFFFFFFFFF38
:20688000FFFFFFFFFFFFFFFFFFFFFFFFFFFFFFFFFFFFFFFFFFFFFFFFFFFFFFFFFFFFFFFF18
:2068A000FFFFFFFFFFFFFFFFFFFFFFFFFFFFFFFFFFFFFFFFFFFFFFFFFFFFFFFFFFFFFFFFF8
:04F8000078A5BE8A9F
:00000001FF
