:020000040802F0
:20000000300E00207902020881020208830202088502020887020208890202080000000028
:200020000000000000000000000000008B0202088D020208000000008F0202087550020826
:200040009302020893020208930202089302020893020208930202089302020893020208A8
:20006000930202089302020893020208930202089302020893020208930202089302020888
:20008000930202089302020893020208930202089302020893020208930202089302020868
:2000A000930202089302020893020208930202089302020893020208930202089302020848
:2000C00093020208930202089302020893020208930202080D5B0208930202089302020855
:2000E000930202089302020893020208930202089302020893020208930202089302020808
:200100009302020893020208930202089302020893020208930202089302020875520208B5
:200120009302020893020208930202089302020800F002F800F090F80AA090E8000C8244ED
:200140008344AAF10107DA4501D100F085F8AFF2090EBAE80F0013F0010F18BFFB1A43F03C
:2001600001031847186A0000386A0000103A24BF78C878C1FAD8520724BF30C830C144BF58
:2001800004680C60704700000023002400250026103A28BF78C1FBD8520728BF30C148BFC9
:2001A0000B6070476E2900F08B81702900F0CD82662905F06C86652905F06986672905F045
:2001C0006686612905F0658603681B0A28BF41F08001692900F03881642900F03581752994
:2001E00000F032816F2900F05B82782900F09982E92900F0F581E42900F0F281F52900F055
:20020000EF81EF2900F05882F82900F098820368DB0928BF41F08001632900F09987732941
:2002200000F09E87E32900F0A987F32900F0AE87002070471FB500F0FBFF04000020002162
:2002400005F0F4FD401C60600020002105F0D8FDE0601FBD10B510BD00F0BCFF1146FFF7EB
:20026000E9FF05F0C5FC01F095F803B4FFF7F2FF03BC01F0DDF8000009488047094800478F
:20028000FEE7FEE7FEE7FEE7FEE7FEE7FEE7FEE7FEE7FEE704480549054A064B704700007B
:2002A000255202083101020830080020300E0020300C0020300C00201CB50C46064B7B44E0
:2002C00069460090204600F014F904460020694600F022F920461CBD5702000010B5431C9C
:2002E00002E010F8011B71B18107FAD14FF0013202C88C1A8C4314EAC211F9D0C01A0A064E
:2003000003D0C01E10BDC01A10BD0A0401D0801E10BD0902FCD0401E10BD10B5203AC0F09D
:200320000B80B1E81850203AA0E81850B1E81850A0E81850BFF4F5AF5FEA027C24BFB1E85C
:200340001850A0E8185044BF18C918C0BDE810405FEA827C24BF51F8043B40F8043B08BFA4
:200360007047D20728BF31F8023B48BF11F8012B28BF20F8023B48BF00F8012B704770478F
:200380007047704770B5044685690068C10601D5302600E02026C00707D070BDD4E9012167
:2003A00030469047206A401C20626D1EF6D570BD70B5044685690078C00707D170BDD4E9A7
:2003C000012120209047206A401C20626D1EF6D570BD09684A0501D540B27047C905FCD51B
:2003E00000B2704709684A0501D5C0B27047C905FCD580B2704770B50C460546012A05D08B
:200400002878800600D5EA69002302E0012305E05B1C934202D2E05C0028F9D1A869E61823
:20042000C01AA861286A184428622846FFF7AAFF04E0D5E9012114F8010B9047B442F8D3E0
:200440002846FFF7B5FF70BD2DE9F0410646002410687529314616A510D0FFF7BAFF0028A1
:2004600002DA404213A507E031688A0701D512A502E0490704D511A5012401E0FFF7B2FF5A
:2004800000210A2206F1240709E0B0FBF2FCB0FBF2F302FB1C00303078541846491C0028AB
:2004A000F3D123462A463046BDE8F04100F061BA000000002D0000002B00000020000000D0
:2004C00011680268006A530501D508700AE0D30501D5088006E0130603D5C217C1E90002AD
:2004E00000E008600120704701694A1C02610878704700B58FB0CDE9013100210591054991
:200500007944CDE903101146684600F029F90FB000BD0000E5FFFFFF0A6802F8010B0A60FE
:20052000704700002DE9FF5F15468A460446DFF8AC80F8440027D8E900103E46CDE900109A
:2005400010E03AF816106A4602A800F023FE411C07D02178890603D5E269391891420DD860
:200560000744761C2078800602D5E069B84205DDAE42E6DB3AF816000028E2D1A069C01BCC
:20058000A0612046FFF7FEFED8E90010CDE90010002017E03AF818106A4602A800F0FAFDB9
:2005A000B0F1FF3F81460BD000250DF1080B05E0D4E901211BF8050090476D1C4D45F7D3EC
:2005C00008F10100B0428046E4DB206A384420622046FFF7EDFEBDE8FF9F0000EA5E000050
:2005E0002DE9F0418046D21D22F007020025D2E90002F52915A614D0011E72F1000106DAE2
:200600000023D0EB030063EB020211A608E0D8F800108B0701D50FA602E0490701D50EA64F
:2006200001251146002408F1240704E000F05CF930323A55641C50EA0102F7D12B4632466D
:2006400021464046BDE8F04100F093B9000000002D0000002B0000002000000030B400211E
:2006600000F1240408E002F00705D208303542EA4372DB086554491C52EA0305F3D10468E6
:20068000002310A2250708D504F020040C4304D0C46901230CA2641EC46130BC00F069B99D
:2006A00010B5044621461068FFF79CFE02462046BDE810400023D1E7D21D22F00701D1E97B
:2006C0000023CBE70000000030000000F0B40D460188090502D5214C7C4402E01F4C7C4476
:2006E0000E34002100F1240608E002F00F071209E75D42EA03721B097754491C52EA0307F2
:20070000F3D102780023120704D5702D06D009B1022311342246F0BC00F02BB9012310349F
:20072000F8E770B504460D4621461068FFF75AFE024629462046BDE870400023C6E7D21DBA
:2007400022F00703D3E90023C0E70368126843F0200303600823C3610023B7E74C5D0000A0
:200760002DE9F05F894604464FF0000ADFF874B1FB44C0F820A02046E1688847002874D015
:20078000252806D0D4E901219047206A401C2062F1E700265F462046E16888472028054664
:2007A00007DB312D05D2781910F8200C08B10643F1E7B00701D526F00406C4F81CA0002737
:2007C000C4F818A02A2D09D0284605F0F5F938B304EB8708303DC8F8185019E059F8041BBD
:2007E000204604EB87029161E1688847012F054618D1E069002820DA26F020061DE0D8F839
:20080000180000EB800005EB40003038C8F818002046E1688847054605F0CEF90028EED179
:20082000012F0AD02E2D08D12046E16888477F1C0546022F46F02006C4DBA069002803DADC
:20084000404246F00106A061F00701D026F010066C2D0BD0682D09D04C2D39D06A2D35D0E4
:20086000742D35D07A2D33D016E038E0E1682F4620468847B842054609D16C2F26D04FF434
:200880008060E168064320468847054604E06C2F1AD04FF4807006430DB3A5F141001928A9
:2008A00002D8203546F400664A462946204626604E46FFF777FC80B101280BD0F61D26F023
:2008C000070000F1080956E74020E4E78020D8E70020D6E706F104094DE7284652E7206A02
:2008E000BDE8F09FDC5C000030B5B0F10A024FEA900E71F100034EEA817EB0EB0E0061EB92
:2009000091014FEA101E4EEA017E10EB0E0041EB11114FEA102E4EEA016E10EB0E0041EB7D
:2009200011214FEA104E4EEA014E10EB0E0041EB1141401841F100014FEAD00040EA417071
:200940004FEAD10110EB80054FEA810444EA907444EB01046D1944EB0404521BA3414FF09B
:20096000000348BF0A3200D530BD401C41F1000130BD2DE9F0470D4699469246044600F161
:2009800024080168880604D5E06921F01001216000E00120A84201DD471B00E00027A16933
:2009A0007A1902EB0900081AA0612078C00602D42046FFF7E7FC002608E0D4E901211AF819
:2009C00006009047206A401C761C20624E45F4DB2078C0060AD52046FFF7D4FC06E0D4E9D2
:2009E000012130209047206A401C2062381EA7F10107F4DC07E0D4E9012118F805009047CE
:200A0000206A401C2062281EA5F10105F3DC2046FFF7CEFC2078000602D50220BDE8F087E4
:200A20000120FBE770472DE9FF4F0C461E464FF0FF378BB0D2E90001DDF860800A908A4657
:200A4000C1F30A5505B93D46002108464FF00000BAF1000F00F4400005DA00EB80004FF419
:200A6000400101EA50004FEA9059B9F1010F00DDB9460A9850EA4A000ED044F61050A5F20D
:200A8000FF3545432F14B8F1000F1ED07542291E1EDDC9F100021CE0B8F1010F4FF0000008
:200AA00001D0302103E0F24305E02154401CB042FBDB30460022002121540B99C1F808806B
:200AC000C1E900200FB0BDE8F08FBD1B6D1CDEE74A4600DA694206A800F0EEFB06AB93E87B
:200AE000070003AB83E8070050460A9900F0A7FC8DE80700A0F500501F3800900398002DF3
:200B000009DD42F21F014A46084403A90390684600F006FF08E0A0F500504A461F3803A97D
:200B20000390684600F010FF8DE807000004000C03D04FF0FF30410800E01046B8F1000F71
:200B400003D00022009215461EE0751E05D4FFF7CBFE303262556D1EF9D5B34601220843B1
:200B600002D000227F1C04E02078302801D100227F1E002A099786D01DE0112D07DAFFF74F
:200B8000B3FE303262556D1C50EA0102F5D1084302D00098C8B10EE00021681E05E0235CD8
:200BA000625C63542254401E491C8142F7DBAB46A81B401E0990002004F80B000B98099ADA
:200BC000C0F80880C0E9002B7CE711264FF0000859E72DE9F04F88460446D21D22F007016A
:200BE00091B0D1E90001CDE90A0104F0D1FF02460B98C00F01D02D2007E02068810701D5CF
:200C00002B2002E0202101EAC000032A099001D0072A05DB03464146204600F00DFB0BE1F9
:200C20002078800601D5E06900E00620B8F1650F814606D0B8F1660F18D0B8F1670F70D151
:200C400031E00020B9F1110F009001DB112301E009F101030AAA01A90CA8FFF7E4FEDDE96A
:200C60000C70002609F10105834647E001204B4600904FF000470AAA01A90CA8FFF7D3FE41
:200C8000DDE90DB00C995D46002610B909F101000D18B9EB050003D4C0F1FF3609F1010514
:200CA000A5EB09002BE0B9F1010F01DA4FF001090020B9F1110F0090484601DD112300E0B8
:200CC00003460AAA01A90CA8FFF7ADFEDDE90C704D4600268346207800070AD4AB4500DA0D
:200CE0005D4601A8012D04DD411911F8011C302907D04F4502DA17F1040F04DA0120824697
:200D00000FE06D1EEEE7002F02DCED1B3E4403E0781CA84200DD7D1CB81B00F1010A4FF008
:200D200000472078000703D4AA4501DB4FF0FF3A0021B7F1004F0DF143088DF8431024D086
:200D400002202B23002F01DA7F422D230A21021EA0F1010000DC5FB197FBF1FC97FBF1F24B
:200D600001FB1C7C17460CF1300C08F801CDEEE7A8F1010003702188090501D5452100E0C6
:200D80006521A0F1010800F8011C09980FA9A1EB0807FF1D00B10120411901EBEA70A16992
:200DA0003844081A401EA0612078C00602D42046FFF7E8FA099828B1D4E901219047206A0A
:200DC000401C20622078C00622D52046FFF7DAFA1EE0002E04DBB34502DD01A8805D00E068
:200DE0003020D4E901219047206A401C2062761CAAF101005FEA000A0AD100F019FAC068FE
:200E00000168405CD4E901219047206A401C2062281EA5F10105DCDC07E0D4E9012118F83F
:200E2000010B9047206A401C2062381EA7F10107F3DC2046FFF7BCFA032011B043E6000083
:200E40002DE9F04F04460D46D21D22F0070089B0D0E900974846394604F09AFE0246F80F27
:200E600001D02D2307E02068810701D52B2302E0202101EAC0038DF820300BB1012000E0D3
:200E80000020032A824601D0072A04DB2946204600F0D2F93FE12078800601D40D2500E0A7
:200EA000E569C7F30A560D2D49DA00214FEA175B08464FF00000002F00F4400007DA00EBE5
:200EC00080004FF4400100EBD07001EA60008115012901DD4FF0FF3100224FEA850CBCF1F2
:200EE000180F06D31346ACF118004FF08052C24003E04FF4801323FA0CF30CF10C0CBCF13A
:200F0000200F04D3ACF1200C09FA0CF001E007FA0CF000294FF0004801DD18B90FE00ED1F8
:200F200040450CD319EB02095F4121B9404502D19F4329EA0209BBEB175F00D0761C208846
:200F4000000502D57B48784402E07A487844193808AA302302F80A30037C0AF10101002EA2
:200F60000AF1020A53546A4602DC4FF0300101E04FF031014FF001088DF8001002D0A6F22C
:200F8000FF3603E059EA470100D06B4E002D02DC2178090704D54FF002082E218DF801106A
:200FA000C44600210BE0C7F303433F01C35C491C6D1E02F80830052908F1010801DA002D62
:200FC000F1DC00210CE000EB1973491C1B786D1E082902F808304FEA091908F1010801DAA2
:200FE000002DF0DC21688B0602D516E0A8F10108E04505DD02EB080313F8013C302BF5D008
:20100000B8F1000F09DD02EB080313F8013C2E2B03D1090701D4A8F10108002D05DD3E21D0
:2010200002F808106D1E08F10108407C002E02F8080008F1010804DA2D20764202F808003E
:2010400002E02B2002F808000A214FF47A70864208F101080BDB96FBF0F3303302F8083050
:2010600096FBF0F308F1010800FB136601E0642E0CDB642096FBF0F3303302F8083096FB0E
:20108000F0F308F1010800FB136601E00A2E06DB96FBF1F0303002F8080008F1010896FB96
:2010A000F1F001FB1060303002F80800A16908F1010808EB050202EB0A00081AA0612078C9
:2010C000C00602D42046FFF75DF9216A08AE01EB0A00206204E0D4E9012116F8010B904755
:2010E000BAF1010AF7D22078C00602D52046FFF749F96E4609E016F8010B3E280FD0D4E9E5
:2011000001219047206A401C2062B8F10108F2D22046FFF74DF909B00320BDE8F08F206ACC
:201120002844206203E0D4E90121302090476D1EEBD3F8E72A55000002FCFFFF10B54369C4
:2011400013B1AFF3008001E0FFF755F9012010BD127800F124010A7000224A700122EDE7A9
:2011600011684FF0FF32E9E710B5436913B1AFF3008001E0FFF7D6F9012010BD128800F140
:20118000240182840022C2840122EDE711684FF0FF32E9E770B516460C46054600F040F8C6
:2011A000036893F80101012806D0FF2C0FD8185D68B101202C7070BDD3F8070132462146FC
:2011C00003F2071303442846BDE8704018474FF0FF3070BD754600F0E7F8AE4605006946CA
:2011E000534620F00700854618B020B5FFF752F8BDE820404FF000064FF000074FF00008C0
:201200004FF0000B21F00701AC46ACE8C009ACE8C009ACE8C009ACE8C0098D46704700007B
:2012200010B500F005F8001D10BD00BF014C000000487047F00700202DE9F0411F460446FA
:2012400003260168072A01F4006004DB08B116A505E016A503E008B115A500E015A521F082
:2012600010002060A069C01EA0610FB1401EA0612046FFF787F84FB1D4E9012138469047C8
:20128000206A401C2062C01C206206E0206AFAE7D4E9012115F8010B9047761EF8D22046A4
:2012A000FFF786F8BDE8F0814E414E006E616E00494E4600696E66002DE9F0478146164600
:2012C0008AB0334878440DC88DE80D0030487844801C03AC0DC884E80D0041F69B3008442B
:2012E000372190FBF1F290FBF1F5A5F1800501FB12041B3C02D56442012000E00020DFF8BE
:2013000090A080460027FA44AAF1BE0A0DE0E00709D03246684607EB47010AEB810100F09B
:2013200013FB8DE8070064107F1C002CEFD1184F7F44AC3F18E0E80714D007EB04100DF144
:20134000180A90E80E008AE80E00C068F04201D198190890324606A903A800F0F5FA03AB91
:2013600083E807006D10641C002DE4D132466946B8F1000F03A802D000F0D2FA01E000F033
:20138000E3FAC9E90001C9F808200AB0BDE8F0873C52000010B50446AFF300802046BDE834
:2013A0001040FEF762BF000000487047D00700204FF0013C50F8042B51F8043B9A4221D188
:2013C000A2EB0C03934313EACC1317D150F8042B51F8043B9A4215D1A2EB0C03934313EAA7
:2013E000CC130BD150F8042B51F8043B9A4209D1A2EB0C03934313EACC13DBD04FF0000045
:20140000704700BFD01A01BAB1FA81F101F0180122FA01F0CB40C1F12001DBB2C0B2C01AC6
:201420002CFA01F3D11A914311EAC311E6D1704701491820ABBEFEE72600020070475FEA9E
:20144000400C08BF91F0000F4FEA8C234FEAC12243EA51514FEA1C5018BF00F5F0404FEA3C
:20146000300018BF41F000415FEA6C5C00F02980BCF1FF3F08BF40F080407047130C06BF0C
:2014800012044FF0100C4FF0000C130E04BF12020CF1080C130F04BF12010CF1040C930FE0
:2014A00004BF92000CF1020CD30F04BF52000CF1010C11464FF00002A0F11F00A0EB0C00EC
:2014C000704711F0004F08BF704731F000413FF4D5AF0B0C06BF09044FF0100C4FF0000CDF
:2014E0000B0E04BF09020CF1080C0B0F04BF09010CF1040C8B0F04BF89000CF1020CCB0F35
:2015000004BF49000CF1010CCCF12003A0EB0C0022FA03F302FA0CF241EA030100F1010011
:20152000704720F07F4C80EA030023F07F47ACEB070303F57C5300F0004003F1FF032DE92F
:2015400080494FEA154B09B44FEA144325EA0B4E24EA03480FF2042606EB132749083E78BE
:201560005FEA320203FB0667C7F5000707FB06F64FEA54374FEAD64606F1020607FB066C36
:20158000CCF1005C4FEA1C472CEA074C07FB06F40CFB06F504EB15464FEA961634BF0020ED
:2015A0004FF000404FEAD13706FB07FC4FEA1C4C0CFB0BF7D21B03FB0CF761EB07010CFB74
:2015C0000EF7B0EB074072EB17420CFB08F734BFA2EB0742B2EB074261EB17414FEA0C448C
:2015E0004FEA910706FB07FC4FEA1C4C0CFB0BF7B0EBC74072EB573203FB0CF734BFA2EB63
:20160000C742B2EBC74261EB57310CFB0EF7B0EBC70072EB57720CFB08F734BFA2EBC70264
:20162000B2EBC70261EB5771039F4FEA816141EA921104EBCC044FEAD1374FEA826206FB87
:2016400007FC42EA90124FEA80604FEA1C4C0CFB0BF7D21B03FB0CF761EB07010CFB0EF7A8
:20166000B0EB074072EB17420CFB08F734BFA2EB0742B2EB074261EB17414FEA8C554FEA26
:20168000910704EB9C2406FB07FC4FEA1C4C0CFB0BF7B0EBC74072EB573203FB0CF734BFD9
:2016A000A2EBC742B2EBC74261EB57310CFB0EF7B0EBC70072EB57720CFB08F734BFA2EB00
:2016C000C702B2EBC70261EB577115EB4C254FEA816141EA92114FEA82624FEAD13742EAE3
:2016E000901206FB07FC44F100044FEA80604FEA1C4C0CFB0BF7D21B03FB0CF761EB070106
:201700000CFB0EF7B0EB074072EB17420CFB08F734BFA2EB0742B2EB074261EB174115EBCC
:201720001C154FEA813141EA92414FEA823242EA90424FEA80304FEA0C7644F1000448EA95
:2017400003434EEA0B484FF0000EB2EB080C71EB030724BF624639464EEB0E0E4FF0000BAB
:201760000018524149414BEB0B0BB2EB080C71EB03077BF1000B24BF624639464EEB0E0EFB
:201780004FF0000B0018524149414BEB0B0BB2EB080C71EB03077BF1000B24BF62463946E6
:2017A0004EEB0E0E51EA020718BF46F0010616EB0E7655F1000254F1000103D5BDE8890162
:2017C000BDE80088BDE88901BDE80048B619524141EB0101A3F10103704780807F7E7D7CEB
:2017E0007B7A7978777676757473727171706F6E6E6D6C6C6B6A6A69686867666665646418
:20180000636362616160605F5F5E5E5D5D5C5C5B5B5A5A5959585857575656555555545465
:20182000535352525251515050504F4F4F4E4E4D4D4D4C4C4C4B4B4B4A4A4A4949494848FC
:201840004847474747464646454545444444444343434342424242414141002B26D4770000
:2018600021D01CB54FEA370703B44FF010004FF010014FF000000FBCBDE810400BF1010BD2
:20188000BBF1010F08BF5FEA170722BF12F1010211F101014FF0004143F1000300F000408C
:2018A00043EA00007047F9D35708DAE746EA064613F1400F4FEA16461FDD13F1200FDFBF27
:2018C00016430A46002120335B42C8D0C3F1200746EA064602FA07F74FEA164646EA070693
:2018E000C3F1200722FA03F201FA07F721FA03F14FF0000342EA0702B1E746EA020646EA7D
:2019000006464FEA164646EA0106BCBF46EA0646360C4FF000034FF000024FF000019EE72E
:201920002DE9C048934630B491E8380007C831EA400C48BF34EA430C03D5FFF7F2FDFFF7BE
:201940008CFFF0BCBDE800882DE9C048934630B491E8380007C810F0804F08BF13F0804F60
:2019600003D100F005F8FFF778FFF0BCBDE8008820F07F4780EA030023F07F4C07EB0C033E
:20198000A3F57C5300F00040A3F1FE0392F0000F00F0B38095F0000F00F077802DE901498C
:2019A0004FEA11404FEA144621EA004800FB06FC24EA064708FB06F607FB08F800FB07F765
:2019C00018EB06484CEB164C4FEA124B18EB07484FEA15464CEB174022EA0B4E0BFB06FCA6
:2019E00025EA06470EFB06F607FB0EFE0BFB07F71EEB064E4CEB164C4FF000061EEB074EDB
:201A00004CEB174B18EB0B0840F1000018EB0E0B58EB000840F100008F1A4FF000013CBF6A
:201A2000C943661B14BFB5EB040C00213CBFC943F61B4FEA17444EEA8E0E27EA04454FEA62
:201A40001C4704FB07622CEA074C05FB07F70CFB05F604FB0CFC16EB074642EB174216EB76
:201A60000C4642EB1C421BEB060658EB0202414146EA9E0601D5BDE80189B619524141EB47
:201A80000101A3F10103BDE801894FEA14454FEA114724EA054621EA074C05FB07F406FBA7
:201AA00007F70CFB06F105FB0CFC11EB074144EB17444FEA124711EB0C4144EB1C4422EADE
:201AC000074C05FB07F206FB07F70CFB06F605FB0CFC16EB074642EB174216EB0C4642EB5C
:201AE0001C456A1854F1000148BF7047B619524141EB0101A3F10103704795F0000F37D085
:201B00004FEA11424FEA144721EA024624EA074C02FB07F106FB07F70CFB06F402FB0CFCF7
:201B200014EB074441EB17414FEA154714EB0C4441EB1C4125EA074C02FB07F506FB07F710
:201B40000CFB06F602FB0CFC16EB074645EB174516EB0C4645EB1C42121951F1000148BF4D
:201B60007047B619524141EB0101A3F1010370474FEA14454FEA114724EA054621EA074CF5
:201B800005FB07F106FB07F70CFB06F24FF0000605FB0CFC12EB074241EB174112EB0C42ED
:201BA00051EB1C4148BF7047921841EB0101A3F10103704770B5134D002400BF04EB04103C
:201BC00005EB001000F0D4F9641CE4B2032CF5D35FF0000404EB041005EB001000F0A6F956
:201BE000641CE4B2032CF5D35FF0000404EB041005EB001000F00FFA641CE4B2032CF5D37C
:201C000070BD0000C40100202DE9F04FADB0834600F0FCFD93490968401A42F21071884228
:201C20007ED3002587E0012080F310888E4805EB0511002422AE0DF108080DF168090DF150
:201C4000480A00EB011700BF07EB4410018A428C8A1A49F82420818C428A8A1A4AF82420A5
:201C6000008C46F8240000EB800046F8240004F0FBF86FF00B0204F040F908EBC402641CF0
:201C8000E4B2C2E90001082CDED3002080F31088002D5AD012991A98012DCDE900017DD00C
:201CA000DDE90223714803F037FF13991B98CDE90001DDE904236E4803F02EFF14991C981D
:201CC000CDE90001DDE906236A4803F025FF1D981599DDE90823CDE90001674803F01CFFCD
:201CE00016991E98CDE90001DDE90A23634803F013FF17991F98DDE90C23CDE9000160486A
:201D000003F00AFF18992098CDE90001DDE90E235C4803F001FF19992198CDE9000100E017
:201D200010E0DDE91023584803F0F6FE57A003F0F3FE6D1CEDB25D45FFF475AF00F066FD24
:201D4000484908602DB0BDE8F08F12991A98DDE90223CDE900014E4803F0DEFE13991B98C6
:201D6000CDE90001DDE904234A4803F0D5FE14991C98CDE90001DDE90623474803F0CCFE14
:201D80001D981599DDE90823CDE90001434803F0C3FE16991E98CDE9000100E01CE0DDE93B
:201DA0000A233F4803F0B8FE17991F98DDE90C23CDE900013B4803F0AFFE18992098CDE971
:201DC0000001DDE90E23384803F0A6FE19992198CDE9000135483FE0DDE90223344803F0DC
:201DE0009BFE13991B98CDE90001DDE90423314803F092FE14991C98CDE90001DDE9062344
:201E00002D4803F089FE1D981599DDE90823CDE900012A4803F080FE16991E98CDE90001C9
:201E2000DDE90A23264803F077FE17991F98DDE90C23CDE90001234803F06EFE1899209893
:201E4000CDE90001DDE90E231F4803F065FE19992198CDE900011D48DDE9102303F05CFE4A
:201E600067E7000004000020C40100205C690208F46A0208C46702082C6602089068020801
:201E8000286A0208F8660208606502080D0A00004C680208E4690208B46602081C65020894
:201EA00018690208B06A020880670208E8650208D46802086C6A02083C670208A465020845
:201EC000A0690208386B02080868020870660208F0B5154F00254FF4C25600BF05EB05109B
:201EE00007EB0014606802F06EF90028F6D16068314602F079FC606802F065F90028FAD11B
:201F000060680068C0686068314602F06DFC606802F059F90028FAD160680068C0686D1CEF
:201F2000EDB2032DDAD3F0BDC401002010B590F80911002380F80A1190F8081180F8091143
:201F400090F808111A46491CC9B2082900D3002100EB4114247A1CB180F80811012305E036
:201F6000521CD2B2082AEED300210170184610BD2DE9F0410446007800284AD094F80B01DC
:201F8000002846D0606802F01EF94FF00108002678BB606802F024FC070BC0F30B0502F0F0
:201FA000C5F928B394F80A01B8422ED104EB47110D84488CA84200D24D84888CA84200D9E8
:201FC0008D84088AA84208D2CE83488B8A8A90421DD2488B401C488319E0488AA84209D910
:201FE000CE83888BCA8A904211D2888B401C88830DE00AE0C88B0A8B904203D2C88B401CE5
:20200000C88304E04E838E8301E084F80C8184F80B61BDE8F08110B50446007800280CD03C
:2020200094F80801C00140F4C251606802F0DCFB002802D0012084F80B0110BD2DE9F047B5
:20204000DFF85490002600BF06EB061109EB01173878D0B15FF0000507EB451494F80980E7
:20206000404603F0BBFD217A59B150B1608BA18A884203D2A08BE18A884202D3E1684046D0
:2020800088476D1CEDB2082DE6D3761CF6B2032EDAD3BDE8F0870000C40100202DE9F041FB
:2020A000214C0126267000F019F96060370204F108003A461D49F434FEF72FF90025257514
:2020C0006575A575E5752576267700F00BF920623A46174904F12400FEF71FF984F824510D
:2020E00084F8255184F8265184F8275184F8285184F82C6100F0FAF8C4F830013A460D4964
:2021000004F59A70FEF709F984F8345284F8355284F8365284F8375284F8385200F076FB50
:2021200005490860BDE8F081C40100200461020804620208046302080400002010B5002095
:2021400003F002FB012003F0FFFA022003F0FCFABDE8104000F018B810B50024204603F080
:2021600067FA204603F028FA641CE4B2032CF5D3BDE8104000F010B800220121014800F04C
:202180000FBB0000000C014001221146014800F007BB0000000C014000220221014800F0E8
:2021A000FFBA00000008014001220221014800F0F7BA0000000801402DE9FF4100254FF4E6
:2021C0000071012402268DE87200184F2A46384600F0E6FA6946384600F010F921028DE877
:2021E0007200134F0022384600F0DAFA6946384600F004F9E1028DE872000022384600F033
:20220000CFFA6946384600F0F9F821038DE872000022384600F0C4FA6946384600F0EEF88B
:2022200000F0F4FA03490860BDE8FF810010014000080140080000202DE9F04100F0E6FA0E
:202240001E4D04461E4E2868201AB0F5FA7F0CD3B7143946304600F077FA012826D0012233
:202260003946304600F09CFA2C60002003F0B6FC020014484FF400711AD0002200F090FAFA
:20228000012003F0ABFC4FF4807198B10022304600F086FA022003F0A1FC4FF4006158B19F
:2022A00000223046BDE8F04100F07ABA0022D7E70122E3E70122EAE70122F2E708000020A7
:2022C0000008014000100140034900EB001001EB0010083070470000C4010020004870474E
:2022E00040000020004870479800002000487047F000002000487047480100200048704751
:2023000084010020154808B5816941F004018161816901F004010091816941F00801816185
:20232000816901F008010091816941F010018161816901F010010091816941F0200181617F
:20234000816901F020010091816941F040018161806900F04000009008BD000000100240F2
:2023600010B50446007800281CD0A068804701004FF000000BD02071E0786178884201D07B
:20238000401CE070C0B288420CD1012009E0E0702179A278914201D0491C2171C9B2914281
:2023A00000D1207310BD00001FB540210120CDE90010002002900220084C0390002220468D
:2023C00000F0EEF96946204600F018F80448416821F0E06141F0007141601FBD0014014056
:2023E0000000014031B500F011FA044600F00EFA0099001B8842F9D338BD00002DE9F84FDD
:20240000DFF8BCB20D4604464FF00009584515D0AC48844212D0AC4884420FD0AB48844222
:202420000CD0AB48844209D0AA48844206D0AA48844203D0CF21A9A003F0C5FB2888000475
:20244000000C03D1D021A5A003F0BDFB6868F8B101281DD011281BD0022819D0122817D0D4
:20246000AD49884214D0AD49884211D0AC4988420ED0AC4988420BD0AB49884208D0AB4956
:20248000884205D0032803D0D12194A003F09BFB00274FF0010A00BF2E680AFA07F806EA37
:2024A0000806464575D15C4515D08648844212D0854884420FD0854884420CD084488442CE
:2024C00009D08448844206D08348844203D0DF2182A003F078FB904869680A1A814259D016
:2024E0000EDC032976D006DC002953D0012919D002296AD131E0112921D0122965D13AE012
:20250000B2F5881F46D006DCB2F5803F42D0B2F5801F5AD13EE0B2F5001F3BD0B2F5041FD3
:2025200053D137E0E868022807D0012805D0032803D0E72169A003F046FBE8683FE0E8680F
:20254000022807D0012805D0032803D0EE2163A003F039FBE868001D31E0E868022807D076
:20256000012805D0032803D0F5215CA003F02BFBE868083023E0E868022807D0012805D05A
:20258000032803D0FC2155A003F01DFBE8680C3015E08FE0A86888B1012812D0022808D0DA
:2025A00040F209114DA003F00EFBA86830B1012807D04FF00809C4F8148006E00420814684
:2025C00003E04FF00809C4F81080FF2E05D8224605E0FFE74FF00000F1E704F104024FEAF4
:2025E000870001D9A0F1200013684FF00F0101FA00FC23EA0C0309FA00FC43EA0C0313603E
:202600006868C00056D54A48826942F001028261806927F0030200F0010000904548024411
:202620009068BB071B0F994088435C4501D1002119E024498C4201D1012114E022498C4229
:2026400001D102210FE021498C4201D103210AE01F498C4201D1042105E01E498C4201D165
:20266000052100E006219940014391606868C0033148016801D5314300E0B143016068685B
:2026800080032E48016801D5314300E0B14301606868C0022A48016801D5314300E0B143CE
:2026A0000160686880022748016801D5314300E0B14301607F1C102FFFF4EEAEBDE8F88F7B
:2026C00000080140000C0140001001400014014000180140001C0140002001402E2E2F44D8
:2026E0007269766572732F53544D3332463178785F48414C5F4472697665722F5372632FCB
:2027000073746D3332663178785F68616C5F6770696F2E63000000000000111000002110F4
:202720000000311000001210000022100000321000100240000001400004014004040140A1
:20274000080401400C04014070B50C00054604D14FF4E27103A003F036FAA868204000D0EE
:20276000012070BD2E2E2F447269766572732F53544D3332463178785F48414C5F44726900
:202780007665722F5372632F73746D3332663178785F68616C5F6770696F2E6300000000F3
:2027A00070B515460C00064604D14FF4F27108A003F009FA45B1012D04D040F2E51104A064
:2027C00003F001FA346170BD2004306170BD00002E2E2F447269766572732F53544D333275
:2027E000463178785F48414C5F4472697665722F5372632F73746D3332663178785F686185
:202800006C5F6770696F2E630000000001480068704700002800002002480168491C016084
:202820007047000028000020074810B5016841F010010160032000F0B1F8002000F006F8AF
:2028400000F016F8002010BD0020024010B5044600F0C6FA4FF47A71B0FBF1F001F0B7F812
:2028600000222146501E00F049F8002010BD0000094808B5816941F001018161806900F05D
:2028800001000090032000F089F80022BDE808401146501E00F032B80010024010B504004A
:2028A00003D5E62106A003F08EF904F01F01012088406109890001F1E021C1F8000110BDAF
:2028C0002E2E2F447269766572732F53544D3332463178785F48414C5F4472697665722F71
:2028E0005372632F73746D3332663178785F68616C5F636F727465782E63000070B51546A8
:202900000C460646102A03D3D22114A003F05BF9102C03D3D32111A003F055F91E48006855
:20292000C0F30223C3F107022046042A00D90422191D072901D2002300E0DB1E012404FA17
:2029400002F1491E014099409C40641E2C4021433046BDE8704001F091BC00002E2E2F44FD
:202960007269766572732F53544D3332463178785F48414C5F4472697665722F5372632F48
:2029800073746D3332663178785F68616C5F636F727465782E6300000CED00E010B50446F6
:2029A00007280BD0062C09D0052C07D0042C05D0032C03D0BA2108A003F005F9154904F02D
:2029C000070208684FF6FF03184040EA0220124A1043086010BD00002E2E2F44726976652A
:2029E00072732F53544D3332463178785F48414C5F4472697665722F5372632F73746D33F7
:202A000032663178785F68616C5F636F727465782E6300000CED00E00000FA052DE9F05FA7
:202A20000F46050004D140F2CA21DDA003F0CBF82868C1070AD1810708D4410706D4000757
:202A400004D440F2CB21D6A003F0BDF847B1012F06D0022F04D04FF43371D1A003F0B3F869
:202A6000DFF87493D9F80000012600F00700DB4C4FF4003A4FF0007B41F28838B8427DD2EF
:202A8000D9F8001021F007013943C9F80010D9F8000000F00700B84271D1287880071CD5D3
:202AA000A868A0B1802812D0902810D0A0280ED0B0280CD0C0280AD0D02808D0E02806D0C9
:202AC000F02804D04FF43971B5A003F07CF86068A96820F0F000084360602878C0075FD0E7
:202AE000686868B1012816D0022822D040F2EB21ABA003F068F8686801280CD0022818D0FF
:202B0000022191FAA1F0B0FA80F040F0200040091DD020681CE09AFAAAF0B0FA80F040F0DA
:202B20002000400901D0206800E0606A9AFAAAF110E09BFAABF0B0FA80F040F02000400927
:202B400001D0206800E0606A9BFAABF102E0606A91FAA1F1B1FA81F101F01F018E4030420A
:202B60000DD06068696820F0030008436060FFF74DFE0646686801280CD001E028E0CEE0C8
:202B80000228474613D01EE0FFF740FE801BB84201D9B0E047466068C0F381000128F3D1F4
:202BA000BFE000BFFFF732FE801BB8427ED86068C0F381000228F5D1B3E000BFFFF726FE4E
:202BC000801BB84272D8606810F00C0FF6D1A8E0287880071CD5A868A0B1802812D0902829
:202BE00010D0A0280ED0B0280CD0C0280AD0D02808D0E02806D0F02804D04FF44D7168A036
:202C000002F0E1FF6068A96820F0F000084360602878C00776D0686868B1012816D002282F
:202C200022D040F23B315EA002F0CDFF686801280CD0022818D0022191FAA1F0B0FA80F008
:202C400040F0200040091DD020681CE09AFAAAF0B0FA80F040F02000400901D0206800E050
:202C6000606A9AFAAAF110E09BFAABF0B0FA80F040F02000400901D0206800E0606A9BFAF0
:202C8000ABF102E0606A91FAA1F1B1FA81F101F01F018E40304242D06068696820F00300A3
:202CA00008436060FFF7B2FD064600E023E06868012808D0022812D020E000BFFFF7A6FD00
:202CC000811B414517D86068C0F381000128F5D118E000BFFFF79AFD811B41450BD86068E7
:202CE000C0F381000228F5D10CE000BFFFF78EFD811B414502D90320BDE8F09F606810F068
:202D00000C0FF3D1D9F8001021F007013943C9F80010D9F8000000F00700B84201D00120D9
:202D2000EAE728784FF4806640074FF4A0674FF4C0684FF4E06914D5E86860B1B0420AD05B
:202D4000B84208D0404506D0484504D04FF4637113A002F038FF6068E96820F4E06008433A
:202D600060602878000715D5286960B1B0420AD0B84208D0404506D0484504D040F2933110
:202D800007A002F020FF6068296920F4605040EAC10060600020FFF759FD0020ACE7000093
:202DA0002E2E2F447269766572732F53544D3332463178785F48414C5F4472697665722F8C
:202DC0005372632F73746D3332663178785F68616C5F7263632E63000020024000100240EC
:202DE00000B500F043F808494968F02292FAA2F201F0F001B2FA82F2D140044A515CC840A9
:202E00000349086000BD0000001002400E6402080000002000B5FFF7E3FF074949684FF482
:202E2000E06292FAA2F201F4E061B2FA82F2D140024A515CC84000BD001002400E6402083D
:202E400000B5FFF7CDFF074949684FF4605292FAA2F201F46051B2FA82F2D140024A515C15
:202E6000C84000BD001002400E64020810B51AA385B00FCB8DE80F001BA01C4B006804908C
:202E80005A681B4802F00C01042902D0082902D0184805B010BD4FF4701494FAA4F402F447
:202EA0007011B4FA84F4E140D2031DF801100FD55A684FF4003393FAA3F302F40032B3FA3B
:202EC00083F3DA4004AB9A5CB0FBF2F04843E0E709484843DDE70000020304050607080912
:202EE0000A0B0C0D0E0F101001020000001002408096980000127A0000093D002DE9F84F35
:202F0000040003D1FE21F1A002F05DFEDFF8F493FD4D20684FF0000A4FF002084FF4803B1C
:202F2000012658B1C1070CD181076FD401076ED440076DD4FF21E5A002F045FE2078C007E6
:202F400032D0606848B1584507D0B0F5A02F04D040F20511DDA002F036FE6868C0F3810003
:202F6000012807D06868C0F3810002281DD16868C0031AD54FF4003090FAA0F1B1FA81F108
:202F800041F02001490901D0296800E0696A90FAA0F0B0FA80F000F01F0006FA00F0014202
:202FA00002D0606800287BD086E0286820F480302860286820F480202860FFF727FC4FF49A
:202FC0000037009006E000BFFFF720FC0099401A64287CD897FAA7F0B0FA80F040F020000E
:202FE000400901D0286800E0686A97FAA7F1B1FA81F101F01F0106FA01F10842E4D1606865
:20300000584506D1286840F480300DE057E0EDE08AE110B1B0F5A02F0DD0286820F4803006
:203020002860286820F480202860606820B3FFF7EDFB00900AE0286840F480202860E1E795
:20304000FFF7E4FB0099401A6428C2D897FAA7F0B0FA80F040F02000400901D0286800E066
:20306000686A97FAA7F1B1FA81F101F01F0106FA01F10842E4D01FE0FFF7C8FB009005E00A
:20308000FFF7C4FB0099401A6428A2D897FAA7F0B0FA80F040F02000400902D0286801E064
:2030A000BCE0686A97FAA7F1B1FA81F101F01F0106FA01F10842E3D1207880076BD5206973
:2030C00040B1012806D04FF4A47180A000E0D6E202F079FD60691F2804D940F249117BA0F4
:2030E00002F071FD686810F00C0F07D06868C0F3810002281BD16868C00318D498FAA8F0EB
:20310000B0FA80F040F02000400901D0286800E0686A98FAA8F1B1FA81F101F01F0106FA90
:2031200001F108422BD02069012877D127E0206990B396FAA6F0B0FA80F049F82060FFF794
:2031400065FB4746009005E0FFF760FB0099401A02289AD897FAA7F0B0FA80F040F020009B
:20316000400901D0286800E0686A97FAA7F1B1FA81F101F01F0106FA01F10842E4D028681C
:20318000F82292FAA2F26169B2FA82F220F0F80091400843286026E0FFE796FAA6F1B1FAA1
:2031A00081F149F821A0FFF731FB4746009005E0FFF72CFB0099401A0228CAD897FAA7F073
:2031C000B0FA80F040F02000400901D0286800E0686A97FAA7F1B1FA81F101F01F0106FAD2
:2031E00001F10842E4D12078000744D5A06998B3012806D040F2891134A002F0E4FCA06958
:2032000050B396FAA6F0B0FA80F009EB8000C0F88064FFF7FBFA4746009007E0DBE100BFF1
:20322000FFF7F4FA0099401A022892D897FAA7F0B0FA80F040F06000B6EB501F01D12868DF
:203240000CE097FAA7F0B0FA80F040F06000B7EB501F02D1286A01E00EE0686A97FAA7F170
:20326000B1FA81F101F01F0206FA02F10842D7D00120FFF7B7F854E096FAA6F1B1FA81F1FD
:2032800009EB8101C1F880A4FFF7C0FA4746009006E000BFFFF7BAFA0099401A02288CD83E
:2032A00097FAA7F0B0FA80F040F06000B6EB501F01D128682BE097FAA7F0B0FA80F040F04D
:2032C0006000B7EB501F21D1286A20E02E2E2F447269766572732F53544D333246317878A0
:2032E0005F48414C5F4472697665722F5372632F73746D3332663178785F68616C5F726341
:20330000632E63000000424200100240686A97FAA7F1B1FA81F101F01F0206FA02F108427C
:20332000B8D12078400774D5E06848B1012807D0052805D04FF4DB71AFF2700002F043FCC8
:20334000E86940F08050E861E86900F080500090D948016841F480710160FFF757FA07468D
:2033600005E000BFFFF752FAC01B642897D8D2480068C005F6D5286A20F001002862286AC0
:2033800020F004002862FFF741FA4746009007E0FFF73CFA0099411A41F288308142E5D8CF
:2033A00097FAA7F0B0FA80F040F04000B6EB501F01D128680BE097FAA7F0B0FA80F040F08C
:2033C0004000B7EB501F01D1286A00E0686A97FAA7F1B1FA81F101F01F0106FA01F10842F3
:2033E000D6D1E06801280AD008B1052812D0286A20F001002862286A20F0040002E0286ACC
:2034000040F001002862E068A0B3FFF7FFF980460EE05EE0286A40F004002862EFE700BF91
:20342000FFF7F4F9A0EB080141F2883081429DD897FAA7F0B0FA80F040F04000B6EB501F30
:2034400001D128680BE097FAA7F0B0FA80F040F04000B7EB501F01D1286A00E0686A97FAB5
:20346000A7F1B1FA81F101F01F0206FA02F10842D6D02EE0FFE7FFF7C9F9804608E000BF89
:20348000FFF7C4F9A0EB080141F28830814286D897FAA7F0B0FA80F040F04000B6EB501F17
:2034A00001D128680BE097FAA7F0B0FA80F040F04000B7EB501F01D1286A00E0686A97FA55
:2034C000A7F1B1FA81F101F01F0206FA02F10842D6D1E06900287DD001280AD0022808D07E
:2034E00040F25521AFF21C2002F06DFBE069002870D06868C0F3810002286CD0E0694FF04A
:20350000807702280BD097FAA7F1B1FA81F149F821A0FFF77BF907464FF00074B2E0206AE1
:2035200038B1584505D040F25E21AFF2602002F04AFB606A78B3B0F5802F2CD0B0F5002F0E
:2035400029D0B0F5402F26D0B0F5801F23D0B0F5A01F20D0B0F5C01F1DD0B0F5E01F1AD0DE
:20356000B0F5001F17D0B0F5101F14D0B0F5201F11D0B0F5301F0ED0B0F5401F0BD0B0F5CD
:20358000501F08D0B0F5601F05D040F25F21AFF2C42002F018FB97FAA7F15046B1FA81F1D3
:2035A000BA4649F82100FFF731F980464FF0007706E000BFFFF72AF9A0EB080002285ED85C
:2035C00097FAA7F0B0FA80F040F02000400903D0286802E06BE06CE0686A97FAA7F1B1FA8E
:2035E00081F101F01F0106FA01F10842E2D1206A584510D1A06840B1B0F5003F05D040F26D
:203600007521AFF2383002F0DEFA6868A16820F4003008436860D4E908010843696821F41A
:203620007411084368609AFAAAF0B0FA80F049F82060FFF7EBF8044605E000BFFFF7E6F84E
:20364000001B02281BD897FAA7F0B0FA80F040F02000400901D0286800E0686A97FAA7F11B
:20366000B1FA81F101F01F0106FA01F10842E5D01DE000BFFFF7CAF8C01B022802D90320B4
:20368000BDE8F88F94FAA4F0B0FA80F040F02000400901D0286800E0686A94FAA4F1B1FA48
:2036A00081F101F01F0106FA01F10842E2D10020E6E70120E4E700000070004010B5040046
:2036C0007DD05F492068884209D05E49884206D05D49884203D06B215CA002F074FA606890
:2036E00030B1B0F5827F03D06C2158A002F06BFAA06848B1B0F5806F06D0B0F5004F03D062
:203700006D2152A002F05FFAE068B0F5006F04D018B16E214DA002F056FA206928B102289B
:2037200003D06F2149A002F04EFA606928B1012803D0702145A002F046FAA069B0F5007F90
:2037400007D030B1B0F5802F03D071213FA002F03AFAE06988B108280FD010280DD018280D
:203760000BD0202809D0282807D0302805D0382803D0722135A002F026FA206A28B1802841
:2037800003D0732131A002F01EFA606A18B174212EA002F018FAA06A30B1B0F5005F03D02B
:2037A00075212AA002F00FFAE06A4FF6FE71401E884203D9762125A002F005FA00E003E09C
:2037C00094F8510010B104E0012010BD204600F05DF8022084F851002068016821F040019C
:2037E0000160D4E901010843D4E903121143084361690843218B01F400710843E1690843E6
:20380000216A0843A16A084321680860A069042101EA1040616A0843216848602168E06A08
:2038200008612068C16921F40061C1611649002008706065012084F85100002010BD00003E
:203840000030014000380040003C00402E2E2F447269766572732F53544D333246317878AA
:203860005F48414C5F4472697665722F5372632F73746D3332663178785F68616C5F7370AD
:20388000695F65782E6300002C000020F0B5304B016800242F48022503262F4A85B09942A9
:2038A00017D1816941F4805181618069694600F480500490B020CDE9000503961546104689
:2038C000FEF79CFD4020CDE9000469462846029417E0224B224F994217D1C16941F48041D5
:2038E000C161C069694600F4804004904FF43040CDE9000503963846FEF780FD4FF480408C
:203900001FE0FEF77BFD05B0F0BD164B9942FAD1C16941F40041C161C069694600F4004004
:203920000490D813CDE9000503961046FEF766FD2820CDE90005694603963846FEF75EFDED
:203940001020CDE90004694638460294D9E700000030014000100240000801400038004076
:20396000000C0140003C004010B54FF0E024042809D020B14FF4DF7105A002F024F92069D0
:2039800020F0040002E0206940F00400206110BD2E2E2F447269766572732F53544D333234
:2039A000463178785F48414C5F4472697665722F5372632F73746D3332663178785F6861B3
:2039C0006C5F636F727465782E630000704710B5401EB0F1807F01D3012010BD4FF0E02477
:2039E00060610F21601700F049FC0020A06107202061002010BD10B5FFF7E8FF10BD70474E
:203A00007047000070B50D46044600683049884219D03049884216D0B0F1804F13D02E49A6
:203A2000884210D02D4988420DD02D4988420AD02C49884207D02C49884204D040F28C615D
:203A40002AA002F0C0F8286890B1102810D020280ED030280CD040280AD0502808D0602895
:203A600006D0702804D040F28D6120A002F0ABF86868802805D020B140F28E611BA002F0A3
:203A8000A2F894F8380001281FD0012084F83800022184F8391021684A6822F070024A608A
:203AA00021684A682B681A434A6021688A6822F080028A6021688A686B681A438A6084F827
:203AC0003900002084F8380070BD022070BD0000002C0140003401400004004000080040EF
:203AE000000C004000100040001400402E2E2F447269766572732F53544D3332463178787D
:203B00005F48414C5F4472697665722F5372632F73746D3332663178785F68616C5F746910
:203B20006D5F65782E63000010B504003AD027492068884218D02649884215D0B0F1804F40
:203B400012D0244988420FD0234988420CD02349884209D02249884206D02249884203D039
:203B6000D72121A002F02FF8A06858B1102809D0202807D0402805D0602803D0D8211AA0E7
:203B800002F021F8206948B1B0F5807F06D0B0F5007F03D0D92114A002F015F894F83900B5
:203BA00010B107E0012010BD002084F83800204600F036F8022084F83900211D206801F089
:203BC00063FB012084F83900002010BD002C0140003401400004004000080040000C00400A
:203BE00000100040001400402E2E2F447269766572732F53544D3332463178785F48414C94
:203C00005F4472697665722F5372632F73746D3332663178785F68616C5F74696D2E630045
:203C200008B500680B49884212D10B48C16941F02001C161C069002200F02000009011462B
:203C40003720FEF75BFEBDE808403720FEF726BE08BD0000001400400010024010B5044628
:203C600001681448814219D01348814216D0B1F1804F13D01148814210D0114881420DD086
:203C8000104881420AD01048814207D00F48814204D04FF4AF710EA001F095FF2068C16808
:203CA00041F00101C1602068016841F001010160002010BD002C0140003401400004004018
:203CC00000080040000C004000100040001400402E2E2F447269766572732F53544D3332BA
:203CE000463178785F48414C5F4472697665722F5372632F73746D3332663178785F686170
:203D00006C5F74696D2E6300704770B50446006801694FF00005C943890715D4C168C94307
:203D2000890711D4E91E016101202076206880698007204602D0FFF7E7FF04E000F098F87E
:203D4000204600F096F8257620680169C943490717D4C168C943490713D46FF00401016179
:203D6000022020762068806910F4407F204602D0FFF7CAFF04E000F07BF8204600F079F852
:203D8000257620680169C943090716D4C168C943090712D46FF00801016104202076206859
:203DA000C0698007204602D0FFF7AEFF04E000F05FF8204600F05DF8257620680169C94309
:203DC000C90617D4C168C943C90613D46FF010010161082020762068C06910F4407F2046D4
:203DE00002D0FFF791FF04E000F042F8204600F040F8257620680169C943C90708D1C16864
:203E0000C943C90704D1891E0161204600F032F820680169C943090609D4C168C94309063A
:203E200005D46FF0800101612046FFF7E8FD20680169C943490609D4C168C943490605D49F
:203E40006FF040010161204600F015F820680169C94389060BD4C168C943890607D46FF093
:203E6000200101612046BDE87040FFF7C9BD70BD70477047704770477047000038B5044691
:203E800000680168C26811F0010F02F4807204D01AB1E16B41F00101E1630168C1F340026D
:203EA000416901F0010122B119B1E26B42F00402E2630268C2F3800222B119B1E26B42F041
:203EC0000202E2630268C2F3C00222B119B1E16B41F00801E1630168C068C1F3401100F0CB
:203EE000200019B110B1204601F086FC20680168C068C1F3C01100F0800019B110B120463F
:203F000001F088FD21680868CA68C0F3801002F04002012570B16AB1CA68204622F040023B
:203F2000CA6094F83910322911D080F8395000BF00F048F9E06B002808D020680168406871
:203F4000009084F839502046FFF796FF38BD222180F83910ECE7000070B5040020D0A069ED
:203F600036490028364A374B20681BD088420AD0904208D0984206D040F2031132A001F01E
:203F800022FEA069F8B1A069B0F5807F1BD0B0F5007F18D0B0F5407F15D04FF482710FE03D
:203FA000012070BD88420ED090420CD098420AD03449884207D03449884204D04FF4847138
:203FC00021A001F000FEA06838B1B0F5805F04D04FF485711CA001F0F6FDE06920B140F2C3
:203FE0000B1119A001F0EFFD94F83900002520B984F83850204600F049F8022084F83900DA
:204000002068C16821F40051C160204601F048FC2068016921F4904101612068416921F050
:204020002A0141612068C16841F40051C160E563012084F83900002070BD00000038014077
:2040400000440040004800402E2E2F447269766572732F53544D3332463178785F48414CC7
:204060005F4472697665722F5372632F73746D3332663178785F68616C5F756172742E636F
:2040800000000000004C00400050004010B50068154986B0884225D11448816941F4804147
:2040A00081618069124C00F4804004904FF400700090022001900320039069462046FEF7D9
:2040C0009DF900212015CDE90001029169462046FEF794F9002211462520FEF70FFC252010
:2040E000FEF7DCFB06B010BD003801400010024000080140704700002DE9F047044690F887
:20410000390099460D46012801D0222858D12DB322B394F83800012852D0012684F83860C8
:204120000027E76394F8390022281AD05FF0120084F83900A284E2844FF48058E08C4B465B
:20414000401EE084A0684FF0000240454FF08001204613D101F091FC08BB04E00120BDE8DA
:20416000F0873220E4E728882168C0F308004860206908B16D1C08E0AD1C06E001F07DFC43
:2041800068B9216815F8010B4860E08C0028D5D14B4600224021204601F06FFC08B10320C8
:2041A000DDE794F83900322806D084F8396000BF84F838700020D2E7222084F83900F7E7A0
:2041C0000220CCE77047002802D0006880680020704700000C480B494FF4006201604FF441
:2041E000827141600021C0E90212D2010161C0E905121022C0E90721416281620A21C16281
:20420000FFF75CBA00300140400000200C480B494FF4006201604FF4827141600021C0E972
:204220000212D2010161C0E905120822C0E90721416281620A21C162FFF740BA003800403E
:20424000980000200C480B494FF4006201604FF4827141600021C0E90212D2010161C0E965
:2042600005120822C0E90721416281620A21C162FFF724BA003C0040F00000200907090ED1
:20428000002806DA00F00F0000F1E02080F8141D704700F1E02080F8001470472DE9FF413C
:2042A0004FF48057012401AB002502260097DFF86C8083E87000224639464046FEF770FAC5
:2042C00069464046FEF79AF8CDE900743946144FCDE9025601223846FEF762FA69463846E9
:2042E000FEF78CF820218DE872000E4F01223846FEF756FA69463846FEF780F801A8009403
:2043000080E870002146084C01222046FEF748FA69462046FEF772F8BDE8FF810018014058
:204320000014014000100140000C01400348806808B1002070470120704700000C000020C3
:204340002DE9FF4100240126CDE90064DFF81881022569464046CDE90245FEF74FF8CDE9E7
:204360000064424F69463846CDE90245FEF746F8CDE9005469464046CDE90245FEF73EF884
:20438000CDE9005469463846CDE90245FEF736F80426CDE9006469464046CDE90245FEF75B
:2043A0002DF8CDE9006469463846CDE90245FEF725F80826CDE9006469464046CDE9024508
:2043C000FEF71CF8CDE9006469463846CDE90245FEF714F81026CDE9006469464046CDE954
:2043E0000245FEF70BF8CDE9006469463846CDE90245FEF703F82026CDE9006469464046B5
:20440000CDE90245FDF7FAFFCDE9006469463846CDE90245FDF7F2FF4020CDE90004144E0D
:2044200069463046CDE90245FDF7E8FF8020CDE9000469463046CDE90245FDF7DFFFE80148
:20444000CDE9000469463046CDE90245FDF7D6FF2802CDE9000469463046CDE90245FDF7BD
:20446000CDFFBDE8FF8100000018014000140140000C01402DE9F041FEF7C8F91B4909687E
:20448000814230D01A4D002405F1300605F1600705F1900805EB0410FDF762FF06EB041059
:2044A000FDF75EFF07EB0410FDF75AFF08EB0410FDF756FF641CE4B2032CEBD30C48C030C1
:2044C000FDF74EFF0A48D030FDF74AFF0848E030FDF746FF0648F030FDF742FFBDE8F041FA
:2044E0000448FDF73DBFBDE8F08100002000002040050020400600202DE9F041434D002365
:2045000003201A46012105F1300605F1600705F1900C00BF05EB031422606260A260E2608D
:204520006070A0702173217006EB031422606260A260E2606070A0702173217007EB0314D8
:2045400022606260A260E2606070A070217321700CEB03145B1C22606260A260E2606070F1
:20456000A0702173DBB22170032BD3D3284BAB60284BAB61284BAB62284BB360284BB3611B
:20458000284BB362284BBB60284BBB61284BBB62284BCCF80830284BCCF81830274BCCF8C2
:2045A00028301A4B264CC03358709870DA701A7119739C6019701033224C58709870DA7058
:2045C0001A7119739C60197010331F4C58709870DA701A7119739C60197010331B4C587069
:2045E0009870DA701A7119739C601970103358709870DA701A711973154898601970FEF786
:2046000005F914490860BDE8F0810000400500209D530208755402084D550208B5530208D1
:204620008D540208655502080D530208E5530208BD54020825530208FD530208D5540208F5
:20464000454F02085D4F0208154F02082D4F0208954E0208200000202DE9FF474FF480774F
:20466000012500260224DFF8C490CDE90264CDE900752A4639464846FEF792F8694648461D
:20468000FDF7BCFE4FF08008CDE90264CDE90085012241464846FEF783F869464846FDF775
:2046A000ADFECDE900753946214FCDE9026401223846FEF775F869463846FDF79FFECDE9A2
:2046C0000085CDE90264012241463846FEF768F869463846FDF792FE8DE87000154F01229F
:2046E000214638460394FEF75BF869463846FDF785FECDE9026400950122294638460195FB
:20470000FEF74EF869463846FDF778FE8DE8700021460394084C01222046FEF741F869462A
:204720002046FDF76BFEBDE8FF870000001801400014014000100140000801402DE9F047F6
:20474000264C2079002840D1012560792F4610B9A06830B100250026B846A719387B48B932
:2047600003E0FDF721FD6771F5E704EB8600006958B10025761CF6B2032EEED30026A71972
:20478000387BE0B1387FD8B905E0304600F06AFF87F80C80EEE704EB8609D9F8200020B1B9
:2047A00000256421C9F838100AE0304600F0F2FE10B1D9F8380001E0D9F82C0038B1002550
:2047C000761CF6B2032EDAD32571BDE8F087304600F00CFF87F81C80F2E70000F404002092
:2047E0000068C06880B2704710B510B10123026802E000230FE0D4689468E443E407FAD024
:20480000146844F0400414600268D1600068016821F040010160184610BD00002DE9FF4190
:204820004FF48047012401AB002503260097DFF8A48083E87000224639464046FDF7B0FFD2
:2048400069464046FDF7DAFDCDE900743946224FCDE9025601223846FDF7A2FF69463846CD
:20486000FDF7CCFD80218DE87200DFF8708001224046FDF795FF69464046FDF7BFFDA7026D
:2048800001AB009783E87000012239464046FDF787FF69464046FDF7B1FD04218DE8720075
:2048A000DFF83C8001224046FDF77AFF69464046FDF7A4FDCDE900740A4CCDE902560122D4
:2048C00039462046FDF76CFF69462046FDF796FDBDE8FF81001801400014014000100140D4
:2048E00000080140000C014010B500F043F8BDE8104000F085BA00002DE9F04100241B4E3A
:204900001B4D20463470747001232B54401CC0B20328FAD3EB702C7164216C71002040F628
:20492000B83C42F2107EA9602F1805EB80023C7311613C77401CC2F82CE0C0B2C2F820C0FD
:2049400091630328F0D305F8443F6C70FDF75EFF6860FDF75BFFF060B4703461F4703471A0
:204960004FF4FA70B060BDE8F08100000C000020F404002070B5214C032520780A283BD28F
:20498000DFE800F005070B101C2024282C3001200EE0FDF79DFA02200AE0FDF7ABFCFFF71E
:2049A0005DF907E0FFF7CAFEFFF7C0FC00BB01E0607000E065706078207070BDFDF73EFB67
:2049C0000520F5E700F0EEFE0620F1E700F064FE0720EDE701F0BAF80820E9E700F06CFABE
:2049E0000920E5E70320FDF70FF90548007908B10420DDE70320DBE70020D9E70C0000204B
:204A0000F40400202DE9FF5F00244FF48066CDE90064DFF810A1022569465046CDE90245B2
:204A2000FDF7ECFC2F02CDE9007469465046CDE90245FDF7E3FCCDE90064DFF8EC9069460E
:204A40004846CDE90245FDF7D9FCCDE9007469464846CDE90245FDF7D1FC0827CDE9007484
:204A6000DFF8C8B069465846CDE90245FDF7C6FC0420CDE9000469465846CDE90245FDF7CB
:204A8000BDFC4FF40048CDE9008469465046CDE90245FDF7B3FCAE02CDE9006469465046A4
:204AA000CDE90245FDF7AAFCCDE9008469464846CDE90245FDF7A2FCCDE900646946484602
:204AC000CDE90245FDF79AFCE801CDE9000469465846CDE90245FDF791FC1020CDE90004F7
:204AE00069465846CDE90245FDF788FCCDE90064032569465846CDE90245FDF77FFCCDE943
:204B0000007469460A48CDE90245FDF777FCCDE9006469460748CDE90245FDF76FFCBDE8A3
:204B2000FF9F000000180140001401400010014000080140000C01402DE9F84FFDF766FE8D
:204B4000DFF81C810646D8F80010451A6CD0DFF81491002409F1600709F1300A07F1300BB2
:204B600009EB0410FDF7FCFB0AEB0410FDF7F8FB07EB0410FDF7F4FB0BEB0410FDF7F0FB80
:204B80003848C03000EB0410FDF7EAFB641CE4B2032CE5D3DFF8CC900027BB4609F1F00982
:204BA00007EB470109EB01142078E0B36078D0BBA078009061698847824694F82100D8B1E5
:204BC00094F82010606A514528446062606A08D16168884201D9012000E0002060706078B2
:204BE00033E0A168884201D2012000E0002060706078C4F824B028E0E16800988847F8B142
:204C000094F82800E0B1009800F0DEFF90B121690098884770B194F8201051450AD0C4F8AF
:204C200024B0012101E012E015E084F8211084F828B00AE0E06AA84203D9E06A401BE062D4
:204C400003E084F828B00120607084F820A07F1CFFB2032FA4D3C8F80060BDE8F88F0000AF
:204C600024000020500600202DE9F05F0027DFF83881DFF838A1DFF838B14FF47A793D4635
:204C80005FF0010607EB470108EB011426706570A770C4F80490A560C4F80CA0C4F810B0C1
:204CA000444860614448A0614448E06161693846884784F8200084F82150656284F82860E2
:204CC00041F28830E0627F1CFFB2032FDAD3364A0020F03A0A2102F1300802F1600302F113
:204CE00090044FF0030C02F1C00900BF02EB00173D607D60BD60FD607970B9703E7008EBAC
:204D000000173D607D60BD60FD607970B9703E7003EB00173D607D60BD60FD607970B970BD
:204D20003E7004EB00173D607D60BD60FD6087F801C087F802C03E7009EB0017401C3D6098
:204D40007D60BD60FD607970B970C0B23E700328CCD31B4890601B4890611B4890621B48A1
:204D6000C8F808001A48C8F818001A48C8F828001948986019489861194898621948A06078
:204D80001948A06119481A49A062C9F808101949C9F818101849C9F82810FDF737FD1749E5
:204DA0000860BDE8F09F000040070020E957020895550208215602088950020845510208AE
:204DC000555302082D540208055502083D53020815540208ED540208CD530208A5540208AD
:204DE0007D5502086D530208455402081D550208855302085D540208355502082400002079
:204E000070B5FDF703FD21498A6C8864821A4879002430B98868904202D3801A886000E0CA
:204E20008C600023C818057B15B1007F50B120E001EB83000569954202D3AD1A056118E00F
:204E4000046116E001EB8300C56A954202D3AD1AC56200E0C462056A954202D3AD1A056270
:204E600000E00462856B954202D3AD1A856300E084635B1CDBB2032BD4D3054881689142F8
:204E800002D3891A816070BD846070BDF40400200C00002010B540210348FDF755FC012858
:204EA00000D0002010BD0000001801400148007B70470000400600202DE9F041FFF7F6FFC9
:204EC000134C012618B184F84460BDE8F08194F84400002760B194F8450060B1FDF73CF93A
:204EE000FDF72CF9FFF708FDFFF7BEFE84F8457084F84470E9E700F049F80025284600F007
:204F0000EFF86D1CEDB2032DF8D384F84560EFE7F404002010B580210348FDF715FC012899
:204F200000D0002010BD0000000C014010B54FF400710348FDF708FC012800D0002010BDC5
:204F4000000C014010B540210348FDF7FDFB012800D0002010BD0000000C014010B54FF46C
:204F600080710348FDF7F0FB012800D0002010BD000C014004490020087010310870103104
:204F800008701031087070470006002010B5FDF703F9FDF7F1F803490020C870BDE81040D8
:204FA000FFF7E8BFF40400202DE9F0412C4C21692C482D4FDFF8B48000264FF48065A1B158
:204FC000E67026712169491E216101222946FDF7E7FB012204213846FDF7E2FB294640467D
:204FE000BDE8F0410122FDF7DBBB2149E278895C22794AB12279092A1CD022790123521E06
:205000009340DAB2114215D100222946FDF7C8FB002204213846FDF7C3FB00222946404622
:20502000FDF7BEFB207909280FD32671E078401CE0700DE001222946FDF7B2FB0122042114
:205040003846FDF7ADFB0122E8E72079401C2071E0780A2802D34FF466702061BDE8F081AF
:205060000C0000200010014000080140000C01400464020810B5FDF7CFFBFEF7BCFCBDE8D6
:205080001040FFF791BF000010B5044603281DD200F0CEFA204600F08FFA0D4900202144DF
:2050A000087308774FF4804154B1012C0BD0022C0CD1002207488021BDE81040FDF770BBB4
:2050C00000220548F8E700220448F5E710BD0000F404002000100140001801400014014054
:2050E00070B50646032829D200F0A2FA304600F063FA134C0025A0190577304600F00AFBA6
:20510000A55500242046FDF7DFF801465FF0000001EB40125378B34200D11570401CC0B288
:205120000828F5D3641CE4B2032CEBD3304600F04BFB3046BDE8704000F01EBD70BD000005
:20514000F40400202DE9F0410446032828D24FF4804124B1012C05D0022C07D122E001227B
:20516000124801E001221248FDF71AFB114D002620462E7100F05CFA2F1905EB84053E732D
:205180004FF064082046C5F8108000F015FA3E7740F6B830286242F21070C5F83880E862E2
:2051A000BDE8F081012280210348DDE70018014000140140F40400200010014010B590B0EA
:2051C000092000904FF4A02001904FF40030029001200224CDE90604000408904FF4401047
:2051E00009906846FDF78AFE0F20CDE90A0400206102CDE90C010E9002210AA8FDF70EFC42
:20520000FDF7EEFD4FF47A71B0FBF1F0FEF7DFFB0420FEF7A9FB00221146501EFDF76EFB25
:2052200010B010BD0E48016841F00101016041680C4A1140416001680B4A114001600168C4
:2052400021F480210160416821F4FE0141604FF41F0181600548064940F00060086070474A
:20526000001002400000FFF8FFFFF6FE0000020008ED00E010B5FCF79DFCBDE8104001488D
:20528000FEF743BD48010020F0B502681A4B1B4D1B4E1C4F1C4C4FF0804C984209D0A042F8
:2052A00007D0604505D0A84203D0B04201D0B84204D122F0700E4A6842EA0E02984209D01D
:2052C000A04207D0604505D0A84203D0B04201D0B84203D122F44075CA682A4302608A688F
:2052E000C2620A688262984201D0A04201D10969016301214161F0BD002C014000040040DD
:2053000000080040000C00400034014010B508210348FDF719FA012800D0002010BD00005E
:205320000018014010B508210348FDF70DFA012800D0002010BD00000014014010B54FF49D
:2053400000710348FDF700FA012800D0002010BD0018014010B54FF480610348FDF7F4F94F
:20536000012800D0002010BD0018014010B54FF400610348FDF7E8F9012800D0002010BD7F
:205380000018014010B54FF400610348FDF7DCF9012800D0002010BD0010014010B5012119
:2053A0000348FDF7D1F9012800D0002010BD00000018014010B501210348FDF7C5F9012898
:2053C00000D0002010BD00000014014010B54FF400410348FDF7B8F9012800D0002010BD9C
:2053E0000018014010B510210348FDF7ADF9012800D0002010BD00000018014010B5102144
:205400000348FDF7A1F9012800D0002010BD00000014014010B54FF400710348FDF794F933
:20542000012800D0002010BD0014014010B54FF480610348FDF788F9012800D0002010BDA2
:205440000014014010B54FF400610348FDF77CF9012800D0002010BD0014014010B50821B1
:205460000348FDF771F9012800D0002010BD00000008014010B502210348FDF765F90128A6
:2054800000D0002010BD00000018014010B502210348FDF759F9012800D0002010BD000097
:2054A0000014014010B54FF400410348FDF74CF9012800D0002010BD0014014010B5202189
:2054C0000348FDF741F9012800D0002010BD00000018014010B520210348FDF735F9012878
:2054E00000D0002010BD00000014014010B504210348FDF729F9012800D0002010BD000069
:205500000010014010B508210348FDF71DF9012800D0002010BD00000010014010B51021CA
:205520000348FDF711F9012800D0002010BD00000010014010B54FF400610348FDF704F946
:20554000012800D0002010BD000C014010B504210348FDF7F9F8012800D0002010BD000018
:205560000018014010B504210348FDF7EDF8012800D0002010BD00000014014010B54FF481
:2055800080710348FDF7E0F8012800D0002010BD00100140074901EB0011097B41B10549BB
:2055A000303101EB0010007B002800D001207047002070475006002040B101280AD00228D8
:2055C0000CD1002201210648FDF7EAB8002280210448F9E7002280210348F5E77047000036
:2055E00000100140001801400014014040B101280AD002280CD1012211460648FDF7D0B86D
:20560000012280210448F9E7012280210348F5E770470000001001400018014000140140F9
:20562000024901EB0010007B70470000E00600204FF4807140B1012809D002280AD100229D
:2056400002210548FDF7ACB800220448FAE700220348F7E770470000001001400018014087
:20566000001401404FF4807140B1012809D002280AD1012202210548FDF792B80122044869
:20568000FAE701220348F7E77047000000100140001801400014014070B5FDF7B7F81849FE
:2056A000CA68821A0A2A2AD3C8608878002805D04FF0000505D14FF0010004E04FF0010543
:2056C000F8E74FF000000F4C88704FF48046207B20B12A4631460C48FDF762F8607B20B1AF
:2056E0002A4631460948FDF75BF8A07B002806D02A46BDE8704080210548FDF751B870BD35
:205700000C000020F40400200018014000140140001001404FF4805140B1012809D0022815
:205720000AD1002220210548FDF73AB800220448FAE700220348F7E7704700000010014056
:2057400000180140001401404FF4805140B1012809D002280AD1012220210548FDF720B812
:2057600001220448FAE701220348F7E77047000000100140001801400014014003280BD2CF
:20578000074901EB0011097B01B10121044A303202EB0010007B00B900210846704700005D
:2057A0004005002010B50024204600F017FA30B12046FFF7E3FF10B92046FFF791FC641CE3
:2057C000E4B2032CF0D310BD032809D2054A002102EB00121170034A303202EB0010017061
:2057E0007047000040050020024901EB0010007B70470000B006002010B590F8391022295D
:2058000003D0322901D0022010BD8168B1F5805F11D00169002901681FD0496801F07F033C
:20582000816A4A1C82620B70C18D491E0904090CC18518D030E00269816A002A02685268FF
:2058400005D0D2B20A80816A491C8162ECE7C2F308020A80816A891CF7E74A68816A4B1CA4
:2058600083620A70E0E70168CA6822F02002CA6090F83910322911D00168CA6822F4807259
:20588000CA6001684A6922F001024A615FF0010180F83910FEF72EFC002010BD1221F7E7D3
:2058A0002DE9F041044640684949884204D340F24E7148A000F087F9E06838B1B0F5005FFE
:2058C00004D040F24F7143A000F07DF9206950B1B0F5806F07D0B0F5C06F04D04FF4EA618E
:2058E0003CA000F070F9606930F00C0100D120B940F2517137A000F066F920680169E2687D
:2059000021F44051114301612169A0680843616908432168CA6841F20C639A430243CA6090
:2059200020684169A26921F44071114341613849206864254FF03208884218D1FDF780FA42
:2059400000EBC00101EB001061688900B0FBF1F0B0FBF5F6FDF774FA00EBC00101EB001021
:2059600061688900B0FBF1F7FDF76AFA17E0FDF751FA00EBC00101EB001061688900B0FB0F
:20598000F1F0B0FBF5F6FDF745FA00EBC00101EB001061688900B0FBF1F7FDF73BFA00EBBC
:2059A000C00101EB001061688900B0FBF1F0B0FBF5F06FF01801484307EB800108EB011042
:2059C000B0FBF5F0216866F31F108860BDE8F08121AA44002E2E2F447269766572732F532D
:2059E000544D3332463178785F48414C5F4472697665722F5372632F73746D3332663178ED
:205A0000785F68616C5F756172742E63000000000038014090F83910122903D0322901D04A
:205A2000022070478168B1F5805F016A0BD04A1C0262026809785160C18C491E0904090C9D
:205A4000C1840ED017E009880268C1F30801516001690029016A02D0491C0162ECE7891CB3
:205A6000FBE70168CA6822F08002CA600068C16841F04001C160002070472DE9F0471D4640
:205A800090460E460446FCF7C1FE07465FEA08004FF000094FF0010808D030E0681C05D071
:205AA00095B1FCF7B3FEC01BA8420DD82068006836EA0000F2D127E0681C20D025B1FCF73B
:205AC000A5FEC01BA8421AD92068C16821F08001C1602068C16821F02001C1602068C16852
:205AE00021F48071C1602068416921F00101416184F8398084F838900320BDE8F087206858
:205B0000006836EA0000D7D00020F6E70148FEF7B5B90000840100200FB410B5ADF5007D61
:205B200083AA68468299FAF7C7FB6846FAF7D6FB84B2FCF7E3FB4FF0FF3322466946FEF7C8
:205B4000DBFA0DF5007D10BC5DF814FB70B5094D002400BF04EB440005EB0010017821B1E5
:205B6000417811B1816920468847641CE4B2032CF0D370BD40070020032806D2034A00EBB4
:205B8000400002EB001000210170704740070020490050EAC12018BF04204A0D18BF40F05B
:205BA000010040F2FF72B2EB515F08BF40F00200012808BF0520704730380A2801D20120A1
:205BC0007047002070477047032803D202490844007F704700207047F4040020032802D2C5
:205BE0000249085C7047002070470000F40400201CB5FCF719FEFFF7E1FA7B48816941F0C6
:205C000004018161816901F004010091816941F008018161806900F008000090FCF772FB55
:205C2000FCF7C2FBFCF7C8FAFEF716FDFEF736FBFEF786FBFEF7E6FEFEF7F0FDFCF78CFA27
:205C4000FCF77CFAFEF7C6FAFEF7E0FAFEF7FAFA67486649002401604FF4E131C0E9011478
:205C60000C21C460C0E904418461C461FEF774F95F4860493C38C0E9001440F23F61C0E97D
:205C80000241FDF751FF5A48009469463C380194FDF7B8FE5848FAF721FB82B2641E5448E6
:205CA00023465549FEF728FA53482730FAF716FB514982B24E4823462731FEF71DFA4E480B
:205CC0004530FAF70BFB4C4982B2494823464531FEF712FA48486730FAF700FB464982B248
:205CE000434823466731FEF707FA43488030FAF7F5FA414982B23E4823468031FEF7FCF9BF
:205D00003D489630FAF7EAFA3B4982B2384823469631FEF7F1F93848001FFAF7DFFA364934
:205D200082B233482346091FFEF7E6F93248C01EFAF7D4FA304982B22D482346C91EFEF7D1
:205D4000DBF92D48F530FAF7C9FA2B4982B228482346F531FEF7D0F92748801EFAF7BEFA06
:205D6000254982B222482346891EFEF7C5F92248401EFAF7B3FA204982B21D482346491E1C
:205D8000FEF7BAF91D48FAF7A9FA82B2184823461A49FEF7B1F919483830FAF79FFA1749B0
:205DA00082B2134823463831FEF7A6F913488F38FAF794FA114982B20D4823468F39FEF744
:205DC0009BF9FEF799FBFCF769F9FEF74DFFFEF793FD00BFFCF730FAFEF74CFBFEF7ACFED4
:205DE000FEF782FDF6E70000001002400038014084010020001400408A5F0208AF60020882
:205E000010B500290AD00878002807D005487844FBF7CEFA002801D0002010BD024878448C
:205E200010BD00008E0D0000860D000010B500290AD00878002807D005487844FBF7B8FA73
:205E4000002801D0002010BD0248784410BD00007E0D0000760D000002494FF0000000F001
:205E60001AB800BF0000F87FB0FA80F310FA03F10AD0C3F11D0303F580634FEA41504FEA73
:205E8000035202EBD12170474FF000007047FAF7A0BEFAF7D5BF0CF00F03092B08BF08201C
:205EA00000F059800A2B0BD0082B18BF704708BF1CF0400F0AD04FF000004FF00001704716
:205EC0001CF0400F18BF4FF0004070471CF0100F08D020F0704300F07F4242EAD3014FEAAA
:205EE0004370704700F0604021F07F4242EA000201F07F4040EA727070474FF0FF0C4CF4AB
:205F0000E06C1CEA11531CBF9CEA030C9445C2BFDA4201EB02517047002B0DD0BCF1000F2B
:205F20000FD0002A01F00041A4BF41F0E04141F07F614FF00000704701F000414FF00000F9
:205F4000704750EA01334FF09B0C18BF4CF0806C7FF482AF70471CF4801F11D01CF4E02F2D
:205F600003D06FEACC31490070474FF04050EFF3008222F0704242EA000282F3008870471F
:205F80004FF00000704700000000494F7320506F7765724D4355206170706C696361746917
:205FA0006F6E2069732072756E6E696E67210D0A0048617264776172652076657273696FC9
:205FC0006E20636F64652069733A20410D0A00536F6674776172652076657273696F6E2059
:205FE000636F64652069733A2056302E39360D0A00417574686F722069732045696E666104
:2060000063686D616E6E210D0A004461746520697320323031362E30392E3133210D0A000F
:206020002D2D2D2D2D2D2D2D2D2D2D2D2D2D2D2D2D2D2D2D2D2D2D2D2D2D2D2D2D2D2D2DC0
:206040002D2D2D2D2D2D2D2D2D2D2D2D2D2D2D2D2D2D2D2D2D2D2D2D2D2D2D2D2D2D2D2DA0
:206060002D2D2D2D2D2D2D2D2D2D2D2D2D2D2D2D2D2D2D2D2D2D2D2D2D2D0D0A0D0A00431D
:20608000504C44277320706F77657220766F6C74616765207375706572766973696F6E2020
:2060A00069732064697361626C6564210D0A00446F6E277420737570706F727420746F2058
:2060C000726573746172742073797374656D207768656E20574454206973206F76657266D7
:2060E0006C6F77210D0A00446562756720427574746F6E20697320616374697665210D0AC3
:206100000000000001000000E1500208F20A2B0A030003000A000000000000000000000002
:20612000FFFF000001000000E15002084F089907030003000A00000000000000000000001E
:20614000FFFF000001000000E15002080904A503030003000A000000000000000000000040
:20616000FFFF000001000000E1500208A4036703030003000A0000000000000000000000C4
:20618000FFFF000001010000E1500208F20A2B0A030003000A000000000000000000000083
:2061A000FFFF000001010000E15002084F089907030003000A00000000000000000000009D
:2061C000FFFF000001010000E15002080904A503030003000A0000000000000000000000BF
:2061E000FFFF000001010000E1500208A4036703030003000A000000000000000000000043
:20620000FFFF000001010000E1500208F20A2B0A030003000A000000000000000000000002
:20622000FFFF000001010000E15002084F089907030003000A00000000000000000000001C
:20624000FFFF000001010000E15002080904A503030003000A00000000000000000000003E
:20626000FFFF000001010000E1500208A4036703030003000A0000000000000000000000C2
:20628000FFFF000001020000E1500208F20A2B0A030003000A000000000000000000000081
:2062A000FFFF000001020000E15002084F089907030003000A00000000000000000000009B
:2062C000FFFF000001020000E15002080904A503030003000A0000000000000000000000BD
:2062E000FFFF000001020000E1500208A4036703030003000A000000000000000000000041
:20630000FFFF000001020000E1500208F20A2B0A030003000A000000000000000000000000
:20632000FFFF000001020000E15002084F089907030003000A00000000000000000000001A
:20634000FFFF000001020000E15002080904A503030003000A00000000000000000000003C
:20636000FFFF000001020000E1500208A4036703030003000A0000000000000000000000C0
:20638000FFFF000001000000E1500208F20A2B0A030003000A000000000000000000000082
:2063A000FFFF000001000000E15002084F089907030003000A00000000000000000000009C
:2063C000FFFF000001000000E15002080904A503030003000A0000000000000000000000BE
:2063E000FFFF000001000000E1500208A4036703030003000A000000000000000000000042
:20640000FFFF00006801090001010200010F000000000102030401020304060708090000C6
:2064200000000000000000003031323334353637383941424344454640305800303132332C
:206440003435363738396162636465664030780004000008000000000000000200010000A9
:20646000103031323334353637383961626364656678700030313233343536373839414232
:20648000434445465850000002400000000000A00000000005400000000000C80000000053
:2064A0000C4000000000409C00000000194000000020BCBE0000000034400000BFC91B8E1C
:2064C00000000004B5400000504BCFD06607E2CF010000006C4100003E8251AADFEEA7345A
:2064E00001000000D9420000DCB5A0E23A301F97FFFFFFFFB4450000FD25A0C8E9A3C14F32
:20650000FFFFFFFFFF3F00000000008000000000FF3F00000000008000000000436869707F
:2065200031204368203320697320544D525F4120312E31562C204375722026204D61782035
:206540004D617267696E2026204D696E204D617267696E3A25660925640925640D0A0000D5
:206560004368697033204368203720697320544D525F4120312E31562C20437572202620B1
:206580004D6178204D617267696E2026204D696E204D617267696E3A256609256409256466
:2065A0000D0A00004368697032204368203320697320544D525F4220312E31562C20437536
:2065C000722026204D6178204D617267696E2026204D696E204D617267696E3A2566092544
:2065E000640925640D0A00004368697031204368203720697320544D525F4220312E315601
:206600002C204375722026204D6178204D617267696E2026204D696E204D617267696E3AB8
:2066200025660925640925640D0A00004368697033204368203320697320544D525F4320EE
:20664000312E31562C204375722026204D6178204D617267696E2026204D696E204D61720A
:2066600067696E3A25660925640925640D0A00004368697032204368203720697320544D47
:20668000525F4320312E31562C204375722026204D6178204D617267696E2026204D696EF6
:2066A000204D617267696E3A25660925640925640D0A000043686970312043682032206901
:2066C0007320544D525F4120312E32562C204375722026204D6178204D617267696E2026C7
:2066E000204D696E204D617267696E3A25660925640925640D0A0000436869703320436856
:20670000203620697320544D525F4120312E32562C204375722026204D6178204D617267C4
:20672000696E2026204D696E204D617267696E3A25660925640925640D0A000043686970F6
:2067400032204368203220697320544D525F4220312E32562C204375722026204D61782011
:206760004D617267696E2026204D696E204D617267696E3A25660925640925640D0A0000B3
:206780004368697031204368203620697320544D525F4220312E32562C2043757220262090
:2067A0004D6178204D617267696E2026204D696E204D617267696E3A256609256409256444
:2067C0000D0A00004368697033204368203220697320544D525F4320312E32562C20437512
:2067E000722026204D6178204D617267696E2026204D696E204D617267696E3A2566092522
:20680000640925640D0A00004368697032204368203620697320544D525F4320312E3256DC
:206820002C204375722026204D6178204D617267696E2026204D696E204D617267696E3A96
:2068400025660925640925640D0A00004368697031204368203020697320544D525F4120D3
:20686000332E33562C204375722026204D6178204D617267696E2026204D696E204D6172E4
:2068800067696E3A25660925640925640D0A00004368697033204368203420697320544D27
:2068A000525F4120332E33562C204375722026204D6178204D617267696E2026204D696ED2
:2068C000204D617267696E3A25660925640925640D0A0000436869703220436820302069E0
:2068E0007320544D525F4220332E33562C204375722026204D6178204D617267696E2026A1
:20690000204D696E204D617267696E3A25660925640925640D0A0000436869703120436835
