:020000040800F2
:20000000D00A0020CD010008D5010008D7010008D9010008DB010008DD01000800000000A6
:20002000000000000000000000000000DF010008E101000800000000E30100086115000884
:20004000E7010008E7010008E7010008E7010008E7010008E7010008E7010008E701000820
:20006000E7010008E7010008E7010008E7010008E7010008E7010008E7010008E701000800
:20008000E7010008E7010008E7010008E7010008E7010008E7010008E7010008E7010008E0
:2000A000E7010008E7010008E7010008E7010008E7010008E7010008E7010008E7010008C0
:2000C000E7010008E7010008E7010008E7010008E7010008E7010008E7010008E7010008A0
:2000E000E7010008E7010008E7010008E7010008E7010008E7010008E7010008E701000880
:20010000E7010008E7010008E7010008E7010008E7010008E7010008E7010008E70100085F
:20012000E7010008E7010008E7010008E701000800F002F800F03AF80AA090E8000C8244FF
:200140008344AAF10107DA4501D100F02FF8AFF2090EBAE80F0013F0010F18BFFB1A43F092
:2001600001031847881F0000A81F0000103A24BF78C878C1FAD8520724BF30C830C144BF0E
:2001800004680C60704700000023002400250026103A28BF78C1FBD8520728BF30C148BFC9
:2001A0000B6070471FB51FBD10B510BD00F050F81146FFF7F7FF01F01FFB00F06EF803B448
:2001C000FFF7F2FF03BC00F075F800000948804709480047FEE7FEE7FEE7FEE7FEE7FEE70E
:2001E000FEE7FEE7FEE7FEE704480549054A064B70470000D515000831010008D00400205A
:20020000D00A0020D0080020D008002010B5431C02E010F8011B71B18107FAD14FF00132E3
:2002200002C88C1A8C4314EAC211F9D0C01A0A0603D0C01E10BDC01A10BD0A0401D0801E59
:2002400010BD0902FCD0401E10BD704770477047754600F02BF8AE4605006946534620F08B
:200260000700854618B020B5FFF7BEFFBDE820404FF000064FF000074FF000084FF0000B3B
:2002800021F00701AC46ACE8C009ACE8C009ACE8C009ACE8C0098D46704710B50446AFF3A4
:2002A00000802046BDE81040FFF789BF004870477004002001491820ABBEFEE7260002009A
:2002C000704710B5044600F0C3FFD4E9000180F30888BDE81040084770B5C0430023074E01
:2002E00007E0CC5C050A4440E4B256F8240068405B1C9342F5D3C04370BD000064000020E4
:2003000030B50B4B0B4C002108460022C5074FEA500000D05840521C082AF7D344F8210036
:20032000491CFF29F0D9044900200860486030BD2083B8ED640000200C00002070B50D468D
:2003400001460020FFF7C8FF064C2060284601F047F860602168814201D1012070BD0020BD
:2003600070BD00000C0000202DE9FF4100254FF40071012402268DE87200184F2A4638466C
:2003800000F08AF96946384600F092F821028DE87200134F0022384600F07EF969463846A3
:2003A00000F086F8E1028DE872000022384600F073F96946384600F07BF821038DE872006E
:2003C0000022384600F068F96946384600F070F800F068F903490860BDE8FF81001001402C
:2003E000000801400800002001480068704700000C00002001484068704700000C00002024
:20040000154808B5816941F004018161816901F004010091816941F008018161816901F06E
:2004200008010091816941F010018161816901F010010091816941F020018161816901F09E
:2004400020010091816941F040018161806900F04000009008BD0000001002401FB54021B7
:200460000120CDE90010002002900220084C03900022204600F010F96946204600F018F844
:200480000448416821F0E06141F0007141601FBD001401400000014031B500F003F9044644
:2004A00000F000F90099001B8842F9D338BD00002DE9F84FDFF8B8A100220AF1040B144601
:2004C00001274FF00F090BF1040E00BF0B6807FA04F52B40AB4274D1DFF898C14E68A6EB4F
:2004E0000C0866452BD00DDC032E34D005DC36B3012E19D0022E2FD11BE0112E16D0122EB2
:200500002AD119E0B8F5881F19D006DCB8F5803F15D0B8F5801F1FD111E0B8F5001F0ED0A0
:20052000B8F5041F18D10AE0CA6815E0CA68121D12E0CA6808320FE0CA680C320CE08A68F5
:200540002AB1012A4FF0080203D0456104E0042202E0056100E00022FF2B01D8064601E04F
:2005600000F104064FEA840501D9A5F12005D6F800C009FA05F82CEA080C02FA05F54CEA45
:20058000050CC6F800C04D68ED006AD53A4DAE6946F00106AE61AD6924F0030605F00105D3
:2005A0000095364D06EB050CDCF80850A6074FEA167809FA08F6B543314EB04202D100261E
:2005C0001AE04EE02F4EB04201D1012614E02E4EB04201D102260FE02C4EB04201D10326D9
:2005E0000AE02B4EB04201D1042605E0294EB04201D1052600E0062606FA08F62E43CCF820
:2006000008604D68DAF80060ED03554601D51E4300E09E432E604D68AD0305D5DBF8006008
:200620001E43CBF8006004E0DBF800509D43CBF800504D68DEF80060ED02754601D51E4370
:2006400000E09E432E604D68AD0205D5084D0C352E681E432E6004E0054E0C3635689D43FC
:200660003560641C102CFFF431AFBDE8F88F00000004014000001110001002400000014031
:2006800000080140000C0140001001400014014000180140001C01400AB101617047090487
:2006A000FBE7000001480068704700000400002010B5040008D02068C168C943C90705D1C8
:2006C000C068C043800701D4012010BD607B20B900202073204600F018F80220607321685A
:2006E00045F25550086020684168626821F007011143416020688168A2686FF30B01114370
:20070000816001206073002010BD7047017B01290FD001210222427303684CF6CC421A60AB
:2007200003684AF6AA221A604173002101730846704702207047000002480168491C016028
:200740007047000004000020074810B5016841F010010160032000F059F8002000F006F82C
:2007600000F016F8002010BD0020024010B5044600F0A2F94FF47A71B0FBF1F000F050FD9B
:2007800000222146501E00F021F8002010BD00000C4808B5816941F001018161806900F083
:2007A00001000090032000F031F800221146501E00F00CF80448416821F0E06141F00071A8
:2007C000416008BD0010024000000140F0B40E4B1B680C46C3F30223C3F10705042D00D9A9
:2007E0000425191D072901D2002300E0DB1E012606FA05F1491E214099409E40761E164015
:200800003143F0BC00F02CBE0CED00E0064900F0070208684FF6FF03184040EA0220034A15
:2008200010430860704700000CED00E00000FA052DE9F047DFF8789205460E46D9F80000D0
:20084000022300F00707012041044206994C41F28838B74271D2D9F800C02CF0070C4CEABD
:20086000060CC9F800C0D9F8007007F00707B7426FD12E78B60705D56668AF6826F0F00638
:200880003E4366602E78F60756D06E68012E0BD0022E1ED093FAA3F1B1FA81F141F02001BA
:2008A000490924D0216823E091FAA1F2B2FA82F242F02002520901D0226800E0626A91FAE7
:2008C000A1F1B1FA81F101F01F018840024240D017E092FAA2F1B1FA81F141F02001490965
:2008E00001D0216800E0616A92FAA2F202E0616A93FAA3F2B2FA82F202F01F0290400142BE
:2009000027D0606820F0030030436060FFF7CAFE06466868012809D00228474613D01EE05E
:20092000FFF7C0FE801BB84201D992E047466068C0F381000128F3D1A1E015E0FFF7B2FE90
:20094000801BB84273D86068C0F381000228F5D195E092E0FFF7A6FE801BB84279D860689C
:2009600010F00C0FF6D18AE02F78BF0707D56768D5F808C027F0F00747EA0C0767602F78BE
:20098000FF076DD06F68012F0BD0022F1ED093FAA3F1B1FA81F141F02001490924D02168B4
:2009A00023E091FAA1F2B2FA82F242F02002520901D0226800E0626A91FAA1F1B1FA81F106
:2009C00001F01F018840024257D017E092FAA2F1B1FA81F141F02001490901D0216800E0C2
:2009E000616A92FAA2F202E0616A93FAA3F2B2FA82F202F01F02904001423ED0606820F011
:200A0000030038436060FFF74DFE07466868012807D0022811D01FE0FFF744FEC11B414596
:200A200017D86068C0F381000128F5D118E010E0FFF738FEC11B41450BD86068C0F3810087
:200A40000228F5D10CE000BFFFF72CFEC11B414502D90320BDE8F087606810F00C0FF3D1B8
:200A6000D9F8001021F007013143C9F80010D9F8000000F00700B04201D00120EAE728781A
:200A8000400705D56068E96820F4E060084360602878000706D56068296920F4605040EAF3
:200AA000C10060600020FFF761FE0020D2E70000002002400010024000B500F043F8084982
:200AC0004968F02292FAA2F201F0F001B2FA82F2D140044A515CC8400349086000BD0000AC
:200AE00000100240201F00080000002000B5FFF7E3FF074949684FF4E06292FAA2F201F415
:200B0000E061B2FA82F2D140024A515CC84000BD00100240201F000800B5FFF7CDFF074945
:200B200049684FF4605292FAA2F201F46051B2FA82F2D140024A515CC84000BD0010024008
:200B4000201F000810B51AA385B00FCB8DE80F001BA01C4B006804905A681B4802F00C01F7
:200B6000042902D0082902D0184805B010BD4FF4701494FAA4F402F47011B4FA84F4E140E6
:200B8000D2031DF801100FD55A684FF4003393FAA3F302F40032B3FA83F3DA4004AB9A5C11
:200BA000B0FBF2F04843E0E709484843DDE7000002030405060708090A0B0C0D0E0F10101F
:200BC00001020000001002408096980000127A0000093D002DE9F84F05460078FA4EC00711
:200BE0004FF0010425D070686704C0F38100012807D07068C0F3810002281BD17068C00388
:200C000018D597FAA7F0B0FA80F040F02000400901D0306800E0706A97FAA7F1B1FA81F1A3
:200C200001F01F0104FA01F1084202D06868002876D081E0306820F480303060306820F460
:200C400080203060FFF72EFD804605E0FFF72AFDA0EB080064287CD897FAA7F0B0FA80F0C6
:200C600040F02000400901D0306800E0706A97FAA7F1B1FA81F101F01F0104FA01F1084227
:200C8000E4D16868B0F5803F0BD010B1B0F5A02F11D0306820F480303060306820F4802042
:200CA00002E0306840F480303060686820B3FFF7F9FC80460AE0306840F480203060F0E735
:200CC000FFF7F0FCA0EB08006428C4D897FAA7F0B0FA80F040F02000400901D0306800E053
:200CE000706A97FAA7F1B1FA81F101F01F0104FA01F10842E4D01FE0FFF7D4FC804605E065
:200D0000FFF7D0FCA0EB08006428A4D897FAA7F0B0FA80F040F02000400902D0306801E050
:200D2000B7E0706A97FAA7F1B1FA81F101F01F0104FA01F10842E3D12878DFF890828007ED
:200D40004FF000094FF002075AD5706810F00C0F00E07AE14FF0F80B07D07068C0F3810081
:200D600002281BD17068C00318D497FAA7F0B0FA80F040F02000400901D0306800E0706AD8
:200D800097FAA7F1B1FA81F101F01F0104FA01F108422AD0286901287BD126E0286980B3F8
:200DA00094FAA4F0B0FA80F048F82040FFF77AFC824605E0FFF776FCA0EB0A00022884D8BB
:200DC00097FAA7F0B0FA80F040F02000400901D0306800E0706A97FAA7F1B1FA81F101F0DE
:200DE0001F0104FA01F10842E4D030689BFAABF26969B2FA82F220F0F80091400843306075
:200E000025E0FFE794FAA4F1B1FA81F148F82190FFF748FC824605E0FFF744FCA0EB0A0004
:200E20000228CCD897FAA7F0B0FA80F040F02000400901D0306800E0706A97FAA7F1B1FA12
:200E400081F101F01F0104FA01F10842E4D1287800076ED5A869B8B394FAA4F0B0FA80F07E
:200E600008EB8000C0F88044FFF71CFC824605E0FFF718FCA0EB0A000228A0D897FAA7F05F
:200E8000B0FA80F040F06000B4EB501F02D130680CE096E197FAA7F0B0FA80F040F06000FA
:200EA000B7EB501F01D1306A00E0706A97FAA7F1B1FA81F101F01F0104FA01F21042D7D0BA
:200EC0000120FFF7E9FA34E0FFE794FAA4F1B1FA81F108EB8101C1F88094FFF7E3FB824600
:200EE00006E000BFFFF7DEFBA0EB0A00022898D897FAA7F0B0FA80F040F06000B4EB501F6F
:200F000001D130680BE097FAA7F0B0FA80F040F06000B7EB501F01D1306A00E0706A97FAE2
:200F2000A7F1B1FA81F101F01F0104FA01F21042D8D12878400770D5F06940F08050F06129
:200F4000F069DFF88CB000F080500090DBF8001041F48071CBF80010FFF7A4FB824605E0B7
:200F6000FFF7A0FBA0EB0A0064286ED8DBF80000C005F5D5306A20F001003062306A20F030
:200F800004003062FFF78EFB834641F2883A05E0FFF788FBA0EB0B01514556D897FAA7F09D
:200FA000B0FA80F040F04000B4EB501F01D1306811E097FAA7F0B0FA80F040F04000B7EBEA
:200FC000501F07D1306A06E0001002400000424200700040706A97FAA7F1B1FA81F101F0B3
:200FE0001F0104FA01F10842D2D1E86801280AD008B1052812D0306A20F001003062306A02
:2010000020F0040002E0306A40F001003062E86898B3FFF747FB83460CE05AE0306A40F0F1
:2010200004003062EFE700BFFFF73CFBA0EB0B0151450AD897FAA7F0B0FA80F040F0400097
:20104000B4EB501F02D130680CE09DE097FAA7F0B0FA80F040F04000B7EB501F01D1306A7F
:2010600000E0706A97FAA7F1B1FA81F101F01F0204FA02F10842D7D02BE0FFE7FFF712FB88
:20108000834605E0FFF70EFBA0EB0B0151457BD897FAA7F0B0FA80F040F04000B4EB501F63
:2010A00001D130680BE097FAA7F0B0FA80F040F04000B7EB501F01D1306A00E0706A97FA61
:2010C000A7F1B1FA81F101F01F0204FA02F10842D8D1E86980B37168C1F38101022970D067
:2010E0004FF080714F000228484609D091FAA1F1B1FA81F148F82100FFF7D4FA054669E0ED
:20110000894691FAA1F1B1FA81F1C24648F82100FFF7C8FA804605E0FFF7C4FAA0EB0800B3
:20112000022854D897FAA7F0B0FA80F040F02000400902D0306801E061E0706A97FAA7F1EF
:20114000B1FA81F101F01F0104FA01F10842E3D1286AB0F5803F05D17068A96820F400307A
:2011600008437060D5E908010843716821F474110843706099FAA9F0B0FA80F04AF82040CC
:20118000FFF790FA054606E021E000BFFFF78AFA401B02281BD897FAA7F0B0FA80F040F07A
:2011A0002000400901D0306800E0706A97FAA7F1B1FA81F101F01F0104FA01F10842E5D05D
:2011C0001DE01EE0FFF76EFA401B022802D90320BDE8F88F97FAA7F0B0FA80F040F0200075
:2011E000400901D0306800E0706A97FAA7F1B1FA81F101F01F0104FA01F10842E2D100201F
:20120000E6E70120E4E74FF0E0210428086903D020F004000861704740F00400FAE7704765
:2012200010B5401EB0F1807F01D3012010BD4FF0E02460610F21601700F012F90020A06162
:2012400007202061002010BD10B5FFF7E8FF10BD4FF0E020016921F002010161704770B58F
:20126000040004D094F83900002510B106E0012070BD84F83850204600F020F8022084F8A7
:2012800039002068C16821F40051C160204600F0C5F92068016921F490410161206841695D
:2012A00021F02A0141612068C16841F40051C160E563012084F83900002070BD10B5006860
:2012C000114986B088421DD11048816941F48041816180690E4C00F4804004904FF400706E
:2012E0000090022001900320039069462046FFF7DFF800212015CDE900010291694620465E
:20130000FFF7D6F806B010BD0038014000100240000801402DE9F047044690F8390099463B
:201320000D46012801D0222858D12DB322B394F83800012852D0012684F838600027E7637D
:2013400094F8390022281AD05FF0120084F83900A284E2844FF48058E08C4B46401EE08418
:20136000A0684FF0000240454FF08001204613D100F0C4F908BB04E00120BDE8F0873220B2
:20138000E4E728882168C0F308004860206908B16D1C08E0AD1C06E000F0B0F968B9216841
:2013A00015F8010B4860E08C0028D5D14B4600224021204600F0A2F908B10320DDE794F801
:2013C0003900322806D084F8396000BF84F838700020D2E7222084F83900F7E70220CCE729
:2013E0000022114610F10300491C10F80139C9B203EB02220429F7D31046704710B5094C1E
:2014000003463020207078206070092203F00F001B0900F009F8A054521ED2B2012AF5D819
:20142000004810BD64040020092801D8303004E0A0F10A01052902D83730C0B27047FF206E
:2014400070470000054804490160062141604FF47A718160FFF72CB9003000401400002084
:201460000907090E002806DA00F00F0000F1E02080F8141D704700F1E02080F800147047B9
:201480002DE9FF478027002601250224DFF8C090CDE90264CDE90075324639464846FFF7EE
:2014A000FBF869464846FFF703F84FF48078CDE90264CDE90085002241464846FFF7ECF868
:2014C00069464846FEF7F4FFCDE900753946214FCDE9026400223846FFF7DEF86946384618
:2014E000FEF7E6FFCDE90085CDE90264002241463846FFF7D1F869463846FEF7D9FF164F76
:20150000CDE9026400950022294638460195FFF7C3F869463846FEF7CBFF8DE870000022D1
:20152000214638460394FFF7B7F869463846FEF7BFFF8DE8700021460394084C00222046EB
:20154000FFF7AAF869462046FEF7B2FFBDE8FF8700180140001401400010014000080140C5
:2015600010B5FFF7E9F8BDE81040FFF76DBE30B58FB0092000904FF4A0200024CDE90104FA
:2015800001200225CDE90605000408904FF4A01009906846FFF71EFB0F20CDE90A056802FF
:2015A000CDE90C4002210AA80E94FFF741F9FFF783FA4FF47A71B0FBF1F0FFF731FE04200C
:2015C000FFF721FE00221146501EFFF7FFF80FB030BD00000D48016841F00101016041687B
:2015E0000B4A1140416001680A4A11400160016821F480210160416821F4FE0141604FF414
:201600001F0181600449C00308607047001002400000FFF8FFFFF6FE08ED00E02DE9F04143
:20162000044600680169E26821F44051114301612169A0680843616908432168CA6841F208
:201640000C639A430243CA6020684169A26921F44071114341612849206864254FF03208DB
:20166000884218D1FFF758FA00EBC00101EB001061688900B0FBF1F0B0FBF5F6FFF74CFA17
:2016800000EBC00101EB001061688900B0FBF1F7FFF742FA17E0FFF729FA00EBC00101EBE3
:2016A000001061688900B0FBF1F0B0FBF5F6FFF71DFA00EBC00101EB001061688900B0FBF4
:2016C000F1F7FFF713FA00EBC00101EB001061688900B0FBF1F0B0FBF5F06FF01801484306
:2016E00007EB800108EB0110B0FBF5F0216866F31F108860BDE8F081003801402DE9F0470E
:201700001D4690460E460446FEF7CCFF07465FEA08004FF000094FF0010808D030E0681C98
:2017200005D095B1FEF7BEFFC01BA8420DD82068006836EA0000F2D127E0681C20D025B10E
:20174000FEF7B0FFC01BA8421AD92068C16821F08001C1602068C16821F02001C16020683D
:20176000C16821F48071C1602068416921F00101416184F8398084F838900320BDE8F0877A
:201780002068006836EA0000D7D00020F6E7000010B54FF0FF3413482346022212A1FFF7CD
:2017A000B9FDC820FEF778FE0E48234602220FA1FFF7B0FDC820FEF76FFE0A4823460222C1
:2017C0000BA1FFF7A7FDC820FEF766FE05482346022208A1FFF79EFDBDE81040C820FEF79C
:2017E0005BBE000024000020087C0000082F0000082D0000085C000008B5FEF7A5FFFFF7EC
:20180000B6FEF248816941F004018161806900F004000090FEF7F4FDFFF732FEFEF71EFE4E
:20182000FEF7A2FDFEF76CFDEA48E949082201604FF4E131416000218160C160C0E90412EF
:201840008161C161FFF70BFD4FF0FF34E14823460A22E1A1FFF75EFDE248FEF7D7FC82B25D
:20186000DC482346DF49FFF755FDDE481F30FEF7CDFCDC4982B2D74823461F31FFF74AFDCA
:20188000D8483D30FEF7C2FCD64982B2D14823463D31FFF73FFDD3485F30FEF7B7FCD14927
:2018A00082B2CC4823465F31FFF734FDCD487830FEF7ACFCCB4982B2C64823467831FFF708
:2018C00029FDC8488E30FEF7A1FCC64982B2C14823468E31FFF71EFD4FF46052C2494FF0BE
:2018E0000060FEF72BFD0746FEF77EFD8046FEF781FD0546B748002F234673D01F22BBA1B3
:20190000FFF708FDB34823460D22C0A1FFF702FD2846FFF773FDFEF779FC87B22846FFF708
:201920006DFD0146AB4823463A46FFF7F3FCA94823460222AAA1FFF7EDFCAA488E30FEF7E8
:2019400065FCA84982B2A34823468E31FFF7E2FC4FF458473A46B149B148FEF7EFFC60F392
:2019600007068346FEF740FD0546FEF743FD82463A46AC49AC48FEF7E1FC60F30F26B1465D
:201980000746FEF731FD0646FEF734FD80469148BBF1000F23467DD02022A4A1FFF7BAFC22
:2019A0008C4823460D2299A1FFF7B4FC2846FFF725FDFEF72BFC1FFA80FA2846FFF71EFD27
:2019C0000146844823465246FFF7A4FC81482346022283A1FFF79EFC7E48002F234676D0AF
:2019E000202200E033E09AA1FFF794FC794823460D2286A1FFF78EFC3046FFF7FFFCFEF795
:201A000005FC85B24FEA0600FFF7F8FC0146714823462A46FFF77EFC6E482346022270A1C8
:201A2000FFF778FC6F488E30FEF7F0FB6D4982B2684823468E31FFF76DFC19F0FF0F7CD063
:201A40006448002F234679D01E228AA1D5E1332290A1FFF75FFC5F48234618229AA1FFF786
:201A600059FC4046FFF7CAFCFEF7D0FB86B24046FFF7C4FC0146574823463246FFF74AFC98
:201A800054482346022256A1FFF744FC51482346152200E029E093A1FFF73CFC2846FFF708
:201AA000ADFCFEF7B3FB86B22846FFF7A7FC0146484823463246FFF72DFC464823460222A9
:201AC00047A1FFF727FC43482346172200E043E08AA1FFF71FFCFFF7B5FC3E481038FEF72F
:201AE00015FE00BFFFF754FEFCE7342289A1FFF711FC38482346182273A1FFF70BFC2846C4
:201B0000FFF77CFCFEF782FB1FFA80FB2846FFF775FC01462F4823465A46FFF7FBFB2D4854
:201B2000234602222EA1FFF7F5FB2A48234615226CA1FFF7EFFB504601E03AE055E1FFF7A7
:201B40005DFCFEF763FB85B25046FFF757FC0146204823462A4637E734227CA1FFF7DAFBDF
:201B60001C482346182258A1FFF7D4FB3046FFF745FCFEF74BFB85B23046FFF73FFC014693
:201B8000144823462A46FFF7C5FB12482346022213A1FFF7BFFB0F482346152251A1FFF730
:201BA000B9FB4046FFF72AFCFEF730FB85B240462AE7084823463FB141227249FFF7AAFB7F
:201BC000044823463122DFE0F5E000000010024000380140240000200D0A0D0A0D0A0D0AFE
:201BE0000D0A0000301F000800380008506F7765724D4355204C3120626F6F742076657267
:201C00006966792070617373210D0A004352432076616C75652069733A0000000018010801
:201C20000040000800F8010800200108506F7765724D4355204C3220626F6F7431207665A2
:201C4000726966792070617373210D0A00000000506F7765724D4355204C3220626F6F7457
:201C600032207665726966792070617373210D0A00000000426F7468204C3220626F6F746F
:201C8000312632207665726966792070617373210D0A0000506F7765724D4355204C312048
:201CA000626F6F7420766572696679206661696C6564212121212121212121212121212168
:201CC00021212121210D0A0043616C63756C61746564204352432076616C75652069733AEB
:201CE000000000004352432076616C756520696E20666C6173682069730000005761697419
:201D000074696E6720666F72207265736574212D2D2D2D00506F7765724D4355204C3220E2
:201D2000626F6F743120766572696679206661696C656421212121212121212121212121D7
:201D40002121212121210D0A00000000506F7765724D4355204C3220626F6F743220766515
:201D600072696679206661696C6564212121212121212121212121212121212121210D0A9A
:201D800000000000A820000825A1FFF7C3FA31482346182230A1FFF7BDFA3648FEF736FABD
:201DA00082B22C4823463349FFF7B4FA324800BFFEF787FAFEE7322230A1FFF7ABFA254831
:201DC000234643223A49FFF7A5FA22482346132238A1FFF79FFAFFF735FB1E481038FEF7E4
:201DE00095FC00BFFFF7D4FCFCE741223649FFF791FA18482346312234A1FFF78BFA1548BE
:201E0000234618223EA1FFF785FA1A48FEF7FEF982B2104823461749FFF77CFA3F48C7E787
:201E20005265636F6D6D616E6420746F20757064617461204C3220626F6F74312121212143
:201E40002121212121212121212121212121210D0A00000024000020526561647920746F40
:201E60002072756E204C3220626F6F7432210D0A00000000BE1F000800200108426F746876
:201E8000204C3220626F6F7431263220766572696679206661696C65642121212121212126
:201EA0002121212121212121212121210D0A000020200008526561647920746F20726573D5
:201EC0006574212D2D2D2D00642000085265636F6D6D616E6420746F207570646174612070
:201EE0004C3220626F6F7432212121212121212121212121212121212121210D0A000000D4
:201F0000526561647920746F2072756E204C3220626F6F7431210D0A000000000040000831
:201F200000000000010203040102030406070809506F7765724D4355204C3120626F6F740C
:201F40002069732072756E6E696E67210D0A0048617264776172652076657273696F6E20B8
:201F6000636F64652069733A20410D0A00536F6674776172652076657273696F6E20636FB5
:201F800064652069733A2056302E39310D0A00417574686F722069732045696E66616368B0
:201FA0006D616E6E210D0A004461746520697320323031362E30392E3132210D0A002D2D22
:201FC0002D2D2D2D2D2D2D2D2D2D2D2D2D2D2D2D2D2D2D2D2D2D2D2D2D2D2D2D2D2D2D2D61
:201FE0002D2D2D2D2D2D2D2D2D2D2D2D2D2D2D2D2D2D2D2D2D2D2D2D2D2D2D2D2D2D2D2D41
:202000002D2D2D2D2D2D2D2D2D2D2D2D2D2D2D2D2D2D2D2D2D2D2D2D0D0A0D0A000000005A
:202020005265636F6D6D616E6420746F2075736520656D6C7561746F7220746F20757064A5
:20204000617461204C3220626F6F74312632212121212121212121212121212121212121FD
:20206000210D0A004C3220626F6F74312076657269667920706173732C204C3220626F6FEF
:20208000743220766572696679206661696C65642121212121212121212121212121212150
:2020A0002121210D0A0000004C3220626F6F743120766572696679206661696C65642C209D
:2020C0004C3220626F6F743220766572696679207061737321212121212121212121212164
:2020E000212121212121210D0A0000000C21000800000020140000006C01000820210008BB
:2021000014000020BC0A00008801000800A24A040000000000000000000000000000000044
:20212000FFFFFFFFFFFFFFFFFFFFFFFFFFFFFFFFFFFFFFFFFFFFFFFFFFFFFFFFFFFFFFFFBF
:20214000FFFFFFFFFFFFFFFFFFFFFFFFFFFFFFFFFFFFFFFFFFFFFFFFFFFFFFFFFFFFFFFF9F
:20216000FFFFFFFFFFFFFFFFFFFFFFFFFFFFFFFFFFFFFFFFFFFFFFFFFFFFFFFFFFFFFFFF7F
:20218000FFFFFFFFFFFFFFFFFFFFFFFFFFFFFFFFFFFFFFFFFFFFFFFFFFFFFFFFFFFFFFFF5F
:0438000002AFD8C675
:00000001FF
