:020000040801F1
:10200000500C0020452101084D2101084F210108F5
:102010005121010853210108552101080000000049
:10202000000000000000000000000000572101082F
:1020300059210108000000005B210108D545010875
:102040005F2101085F2101085F2101085F2101086C
:102050005F2101085F2101085F2101085F2101085C
:102060005F2101085F2101085F2101085F2101084C
:102070005F2101085F2101085F2101085F2101083C
:102080005F2101085F2101085F2101085F2101082C
:102090005F2101085F2101085F2101085F2101081C
:1020A0005F2101085F2101085F2101085F2101080C
:1020B0005F2101085F2101085F2101085F210108FC
:1020C0005F2101085F2101085F2101085F210108EC
:1020D0005F210108154901085F2101085F210108FE
:1020E0005F2101085F2101085F2101085F210108CC
:1020F0005F2101085F2101085F2101085F210108BC
:102100005F2101085F2101085F2101085F210108AB
:102110005F2101085F2101085F2101085F2101089B
:102120005F2101085F2101085F2101085F2101088B
:10213000DFF80CD000F042F80048004721540108B5
:10214000500C00200648804706480047FEE7FEE79F
:10215000FEE7FEE7FEE7FEE7FEE7FEE7FEE7FEE757
:102160004546010831210108202A04DB203A21FAE2
:1021700002F00021704721FA02F3D040C2F12002A0
:10218000914008431946704740EA01039B0703D07A
:1021900009E008C9121F08C0042AFAD203E011F8A6
:1021A000013B00F8013B521EF9D27047421C10F867
:1021B000011B0029FBD1801A70470000064C074D17
:1021C00006E0E06840F0010394E807009847103407
:1021D000AC42F6D3FFF7B0FF6457010884570108FB
:1021E00010B5044601F0CEF9D4E9001081F3088857
:1021F000BDE810400047A0F13001092901D8C8B25C
:102200007047A0F14101052901D8373804E0A0F159
:102210006101052902D85738C0B27047FF207047C6
:1022200000B50B46FFF7E7FF02461846FFF7E3FF4E
:1022300000EB0210C0B200BD1FB54FF4007000905B
:10224000002001900290022003906946014800F0AE
:1022500005FB1FBD00180140F0B500244FF6FF7CC0
:10226000DFF820E00AE0E5180CEA00274E5D86EA78
:1022700010253EF815007840641CA4B29442F2D3B5
:10228000F0BD0000045501082DE9F04100250F467E
:1022900016462C4600F098F901688A6842F001025F
:1022A0008A6008E03A5DE14302EB0525890701D128
:1022B00001680D60641CB442F4D300680068C04338
:1022C000BDE8F08170B50D4601460020FFF7DCFF48
:1022D000064C2060284601F0FCFA606021688142CB
:1022E00001D1012070BD002070BD00000C00002055
:1022F000002141808180C1807047C08870478088FC
:10230000085C704710B500230180438083801C4621
:10231000C38002E0D4545B1C9BB28B42FAD310BD45
:10232000C188491EC1808188491C89B28180028888
:10233000914201D3002181807047C188491CC1802E
:102340004188491C89B241800288914201D3002111
:102350004180704710B40288C488131B9BB28B4223
:1023600002D210BCFFF7C4BF6318C38005E08388A6
:102370003BB15B1E491E838089B20029F7D110BC96
:102380007047531EF6E740880A54704706490020FC
:10239000C8610648016941F004010161016941F029
:1023A00040010161704700005800002000200240F9
:1023B000064A0021D16106490A6942F002020A6117
:1023C0004861086940F040000861704758000020EB
:1023D00000200240044B0022DA61044A136943F0F2
:1023E0000103136101807047580000200020024063
:1023F0000E49C868C2060E4803D5C26942F00202FF
:10240000C261CA68520703D5C26942F00102C261C3
:10241000CA69D20707D0C26942F00402C261C86922
:1024200020F00100C8611420C860704700200240FD
:102430005800002070B5054600F00EFB0646114C12
:1024400009E0681C07D025B100F006FB801BA842FC
:1024500001D9032070BDE068C007F2D1E0688006B2
:1024600001D52020E060E068C00605D4E069C0071F
:1024700002D1E068400703D5FFF7BAFF012070BD25
:10248000002070BD002002402DE9F04104464005C7
:1024900086B00F46400D26D17805400D23D1012589
:1024A00000264FF4006818E0204602F0ABFFD0B1E0
:1024B000002000900190E10A0120C902CDE902014B
:1024C0000490694601A800F023F90098401C0CD044
:1024D000761CF6B2032E00D300254745E4D206B0A1
:1024E0002846BDE8F0810025F9E7002604F50064E0
:1024F000A7F50067F1E7000003484FF000610160B5
:10250000024941607047000014000020FFFF0708E7
:1025100070B5064614460D46012036E0304602F0FE
:1025200071FF002806D044EA0600810703D0C007E7
:1025300019D0002070BDE878A978002301EB0020B5
:10254000697801EB0020297801EB00223146022056
:1025500000F032F928B10020241F2D1DA4B2361D31
:1025600011E00120F8E7E878A978002301EB0020CA
:1025700082B23146012000F01FF948B10020A41EAC
:10258000AD1CA4B2B61C0028D4D0002CC6D170BD9E
:102590000120F4E700F050B90149086070470000DD
:1025A000140000200149486070470000140000201A
:1025B00001480068704700000C0000200148406896
:1025C000704700000C0000200048704728000020E1
:1025D0002DE9F0418846074600F03EFA0546B84727
:1025E00007E000BF00F038FA0646B847844202D040
:1025F00035460446F6E7A91B4145F3D32046BDE81E
:10260000F0810000004870479001002001484078A8
:102610007047000030000020154808B5816941F07E
:1026200004018161816901F004010091816941F037
:1026300008018161816901F008010091816941F01F
:1026400010018161816901F010010091816941F0FF
:1026500020018161816901F020010091816941F0CF
:1026600040018161806900F04000009008BD0000D9
:10267000001002401FB540210120CDE900100020CC
:1026800002900220074C03900122204600F0DFF95F
:102690006946204600F0E2F80348416821F0E06115
:1026A00041601FBD001401400000014010B504004E
:1026B00002D0607910B106E0012010BD0020207129
:1026C000204600F005F801206071002010BD0000D8
:1026D00008B500680649884208D10648416941F0BA
:1026E00040014161406900F04000009008BD0000D9
:1026F000003002400010024031B500F0ADF9044650
:1027000000F0AAF90099001B8842F9D338BD0000F7
:102710002DE9F047054626480F460126017E01298E
:102720000FD00121814601762868DFF888804CF2BD
:102730005034022808D0A2462046FFF77BFEA8B1FD
:1027400031E00220BDE8F0872046FFF773FE08BBAA
:102750000120FFF71BFE2046FFF76CFED8F8101093
:10276000064621F00401C8F810101CE04FF0FF30BD
:102770003860AC6811E02046FFF71AFE5046FFF7BC
:1027800059FED8F81010060021F00201C8F8101008
:1027900001D03C6007E004F50064D5E9020100EBDC
:1027A000C120A042E7D8002189F818103046C9E7B7
:1027B00058000020002002402DE9F05F07461C4829
:1027C00088460024017E15461E46012909D00121B4
:1027D000814601764CF2503A5046FFF72BFE18B175
:1027E00022E00220BDE8F09F012F02D0022F00D08E
:1027F0000427D346DFF83CA0220128463146FFF7E4
:10280000B3FC81B208EB4400FFF7E4FD5846FFF744
:1028100011FEDAF8102022F00102CAF8102018B9CF
:10282000641CE4B2BC42E7D3002289F81820D9E73F
:10283000580000200020024005480169090605D51E
:1028400004494160044941600020704701207047FD
:102850000020024023016745AB89EFCD2DE9F84FF9
:10286000DFF8B8A100220AF1040B144601274FF04B
:102870000F090BF1040E00BF0B6807FA04F52B409B
:10288000AB4274D1DFF898C14E68A6EB0C086645E0
:102890002BD00DDC032E34D005DC36B3012E19D03D
:1028A000022E2FD11BE0112E16D0122E2AD119E0A4
:1028B000B8F5881F19D006DCB8F5803F15D0B8F5FB
:1028C000801F1FD111E0B8F5001F0ED0B8F5041F0E
:1028D00018D10AE0CA6815E0CA68121D12E0CA6879
:1028E00008320FE0CA680C320CE08A682AB1012A6B
:1028F0004FF0080203D0456104E0042202E00561C4
:1029000000E00022FF2B01D8064601E000F104069A
:102910004FEA840501D9A5F12005D6F800C009FACF
:1029200005F82CEA080C02FA05F54CEA050CC6F885
:1029300000C04D68ED006AD53A4DAE6946F001061B
:10294000AE61AD6924F0030605F001050095364D32
:1029500006EB050CDCF80850A6074FEA167809FAD2
:1029600008F6B543314EB04202D100261AE04EE0DF
:102970002F4EB04201D1012614E02E4EB04201D1BB
:1029800002260FE02C4EB04201D103260AE02B4E66
:10299000B04201D1042605E0294EB04201D10526FE
:1029A00000E0062606FA08F62E43CCF808604D68CB
:1029B000DAF80060ED03554601D51E4300E09E4362
:1029C0002E604D68AD0305D5DBF800601E43CBF8E3
:1029D000006004E0DBF800509D43CBF800504D68E8
:1029E000DEF80060ED02754601D51E4300E09E430F
:1029F0002E604D68AD0205D5084D0C352E681E437E
:102A00002E6004E0054E0C3635689D433560641C2D
:102A1000102CFFF431AFBDE8F88F00000004014036
:102A200000001110001002400000014000080140A9
:102A3000000C01400010014000140140001801404A
:102A4000001C01408068084000D0012070470AB196
:102A5000016170470904FBE7014800687047000006
:102A60000400002002480168491C01607047000012
:102A700004000020074810B5016841F01001016012
:102A8000032000F05DF8002000F006F800F016F8D2
:102A9000002010BD0020024010B5044600F0A6F949
:102AA0004FF47A71B0FBF1F000F054FD00222146A2
:102AB000501E00F025F8002010BD0000094808B5A0
:102AC000816941F001018161806900F0010000909D
:102AD000032000F035F80022BDE808401146501EE2
:102AE00000F00EB80010024000F01F0201219140DA
:102AF0004009800000F1E020C0F80011704700009C
:102B0000F0B40E4B1B680C46C3F30223C3F1070558
:102B1000042D00D90425191D072901D2002300E046
:102B2000DB1E012606FA05F1491E214099409E4010
:102B3000761E16403143F0BC01F0E8BC0CED00E01D
:102B4000064900F0070208684FF6FF03184040EA04
:102B50000220034A10430860704700000CED00E0BB
:102B60000000FA052DE9F047DFF8789205460E4699
:102B7000D9F80000022300F00707012041044206B3
:102B8000994C41F28838B74271D2D9F800C02CF084
:102B9000070C4CEA060CC9F800C0D9F8007007F021
:102BA0000707B7426FD12E78B60705D56668AF68BC
:102BB00026F0F0063E4366602E78F60756D06E6823
:102BC000012E0BD0022E1ED093FAA3F1B1FA81F19F
:102BD00041F02001490924D0216823E091FAA1F2B3
:102BE000B2FA82F242F02002520901D0226800E0DB
:102BF000626A91FAA1F1B1FA81F101F01F018840F6
:102C0000024240D017E092FAA2F1B1FA81F141F00C
:102C10002001490901D0216800E0616A92FAA2F21C
:102C200002E0616A93FAA3F2B2FA82F202F01F02A2
:102C30009040014227D0606820F00300304360607C
:102C4000FFF70AFF06466868012809D002284746B0
:102C500013D01EE0FFF700FF801BB84201D992E0BD
:102C600047466068C0F381000128F3D1A1E015E078
:102C7000FFF7F2FE801BB84273D86068C0F3810092
:102C80000228F5D195E092E0FFF7E6FE801BB842FE
:102C900079D8606810F00C0FF6D18AE02F78BF0762
:102CA00007D56768D5F808C027F0F00747EA0C0792
:102CB00067602F78FF076DD06F68012F0BD0022F50
:102CC0001ED093FAA3F1B1FA81F141F02001490934
:102CD00024D0216823E091FAA1F2B2FA82F242F004
:102CE0002002520901D0226800E0626A91FAA1F143
:102CF000B1FA81F101F01F018840024257D017E07C
:102D000092FAA2F1B1FA81F141F02001490901D012
:102D1000216800E0616A92FAA2F202E0616A93FA25
:102D2000A3F2B2FA82F202F01F02904001423ED0BA
:102D3000606820F0030038436060FFF78DFE0746AF
:102D40006868012807D0022811D01FE0FFF784FE31
:102D5000C11B414517D86068C0F381000128F5D137
:102D600018E010E0FFF778FEC11B41450BD8606802
:102D7000C0F381000228F5D10CE000BFFFF76CFE24
:102D8000C11B414502D90320BDE8F087606810F0FF
:102D90000C0FF3D1D9F8001021F007013143C9F825
:102DA0000010D9F8000000F00700B04201D0012067
:102DB000EAE72878400705D56068E96820F4E06014
:102DC000084360602878000706D56068296920F408
:102DD000605040EAC10060600020FFF75DFE002007
:102DE000D2E70000002002400010024000B500F0D1
:102DF00043F808494968F02292FAA2F201F0F00182
:102E0000B2FA82F2D140044A515CC84003490860DA
:102E100000BD000000100240F45401080000002032
:102E200000B5FFF7E3FF074949684FF4E06292FA03
:102E3000A2F201F4E061B2FA82F2D140024A515C9E
:102E4000C84000BD00100240F454010800B5FFF76F
:102E5000CDFF074949684FF4605292FAA2F201F49B
:102E60006051B2FA82F2D140024A515CC84000BDC2
:102E700000100240F454010810B51AA385B00FCB1E
:102E80008DE80F001BA01C4B006804905A681B487B
:102E900002F00C01042902D0082902D0184805B01C
:102EA00010BD4FF4701494FAA4F402F47011B4FA43
:102EB00084F4E140D2031DF801100FD55A684FF495
:102EC000003393FAA3F302F40032B3FA83F3DA4047
:102ED00004AB9A5CB0FBF2F04843E0E70948484392
:102EE000DDE7000002030405060708090A0B0C0DC4
:102EF0000E0F101001020000001002408096980092
:102F000000127A0000093D002DE9F84F05460078CF
:102F1000FA4EC0074FF0010425D070686704C0F373
:102F20008100012807D07068C0F3810002281BD1FE
:102F30007068C00318D597FAA7F0B0FA80F040F097
:102F40002000400901D0306800E0706A97FAA7F1CC
:102F5000B1FA81F101F01F0104FA01F1084202D037
:102F60006868002876D081E0306820F480303060D6
:102F7000306820F480203060FFF76EFD804605E069
:102F8000FFF76AFDA0EB080064287CD897FAA7F049
:102F9000B0FA80F040F02000400901D0306800E035
:102FA000706A97FAA7F1B1FA81F101F01F0104FAF2
:102FB00001F10842E4D16868B0F5803F0BD010B150
:102FC000B0F5A02F11D0306820F480303060306828
:102FD00020F4802002E0306840F48030306068687F
:102FE00020B3FFF739FD80460AE0306840F48020C6
:102FF0003060F0E7FFF730FDA0EB08006428C4D88C
:1030000097FAA7F0B0FA80F040F02000400901D014
:10301000306800E0706A97FAA7F1B1FA81F101F027
:103020001F0104FA01F10842E4D01FE0FFF714FD8C
:10303000804605E0FFF710FDA0EB08006428A4D847
:1030400097FAA7F0B0FA80F040F02000400902D0D3
:10305000306801E0B7E0706A97FAA7F1B1FA81F140
:1030600001F01F0104FA01F10842E3D12878DFF8EA
:10307000908280074FF000094FF002075AD5706820
:1030800010F00C0F00E07AE14FF0F80B07D07068F9
:10309000C0F3810002281BD17068C00318D497FACE
:1030A000A7F0B0FA80F040F02000400901D030686D
:1030B00000E0706A97FAA7F1B1FA81F101F01F01FF
:1030C00004FA01F108422AD0286901287BD126E0C0
:1030D000286980B394FAA4F0B0FA80F048F8204050
:1030E000FFF7BAFC824605E0FFF7B6FCA0EB0A004A
:1030F000022884D897FAA7F0B0FA80F040F02000B8
:10310000400901D0306800E0706A97FAA7F1B1FA7F
:1031100081F101F01F0104FA01F10842E4D03068A6
:103120009BFAABF26969B2FA82F220F0F8009140A2
:103130000843306025E0FFE794FAA4F1B1FA81F189
:1031400048F82190FFF788FC824605E0FFF784FCF1
:10315000A0EB0A000228CCD897FAA7F0B0FA80F0CA
:1031600040F02000400901D0306800E0706A97FA12
:10317000A7F1B1FA81F101F01F0104FA01F108424F
:10318000E4D1287800076ED5A869B8B394FAA4F002
:10319000B0FA80F008EB8000C0F88044FFF75CFCD8
:1031A000824605E0FFF758FCA0EB0A000228A0D8F1
:1031B00097FAA7F0B0FA80F040F06000B4EB501F2F
:1031C00002D130680CE096E197FAA7F0B0FA80F0EF
:1031D00040F06000B7EB501F01D1306A00E0706A28
:1031E00097FAA7F1B1FA81F101F01F0104FA01F297
:1031F0001042D7D00120FFF77FFA34E0FFE794FABE
:10320000A4F1B1FA81F108EB8101C1F88094FFF7D4
:1032100023FC824606E000BFFFF71EFCA0EB0A007D
:10322000022898D897FAA7F0B0FA80F040F0600032
:10323000B4EB501F01D130680BE097FAA7F0B0FA59
:1032400080F040F06000B7EB501F01D1306A00E021
:10325000706A97FAA7F1B1FA81F101F01F0104FA3F
:1032600001F21042D8D12878400770D5F06940F0BB
:103270008050F061F069DFF88CB000F08050009071
:10328000DBF8001041F48071CBF80010FFF7E4FB8D
:10329000824605E0FFF7E0FBA0EB0A0064286ED849
:1032A000DBF80000C005F5D5306A20F0010030627F
:1032B000306A20F004003062FFF7CEFB834641F213
:1032C000883A05E0FFF7C8FBA0EB0B01514556D843
:1032D00097FAA7F0B0FA80F040F04000B4EB501F2E
:1032E00001D1306811E097FAA7F0B0FA80F040F011
:1032F0004000B7EB501F07D1306A06E000100240D3
:103300000000424200700040706A97FAA7F1B1FADB
:1033100081F101F01F0104FA01F10842D2D1E868FD
:1033200001280AD008B1052812D0306A20F0010027
:103330003062306A20F0040002E0306A40F00100A0
:103340003062E86898B3FFF787FB83460CE05AE0E9
:10335000306A40F004003062EFE700BFFFF77CFB0B
:10336000A0EB0B0151450AD897FAA7F0B0FA80F00C
:1033700040F04000B4EB501F02D130680CE09DE0FB
:1033800097FAA7F0B0FA80F040F04000B7EB501F7A
:1033900001D1306A00E0706A97FAA7F1B1FA81F1C1
:1033A00001F01F0204FA02F10842D7D02BE0FFE738
:1033B000FFF752FB834605E0FFF74EFBA0EB0B0146
:1033C00051457BD897FAA7F0B0FA80F040F0400062
:1033D000B4EB501F01D130680BE097FAA7F0B0FAB8
:1033E00080F040F04000B7EB501F01D1306A00E0A0
:1033F000706A97FAA7F1B1FA81F101F01F0204FA9D
:1034000002F10842D8D1E86980B37168C1F3810143
:10341000022970D04FF080714F000228484609D031
:1034200091FAA1F1B1FA81F148F82100FFF714FBFC
:10343000054669E0894691FAA1F1B1FA81F1C246E7
:1034400048F82100FFF708FB804605E0FFF704FB82
:10345000A0EB0800022854D897FAA7F0B0FA80F041
:1034600040F02000400902D0306801E061E0706A5D
:1034700097FAA7F1B1FA81F101F01F0104FA01F105
:103480000842E3D1286AB0F5803F05D17068A96889
:1034900020F4003008437060D5E9080108437168E2
:1034A00021F474110843706099FAA9F0B0FA80F021
:1034B0004AF82040FFF7D0FA054606E021E000BFB9
:1034C000FFF7CAFA401B02281BD897FAA7F0B0FAF8
:1034D00080F040F02000400901D0306800E0706AC0
:1034E00097FAA7F1B1FA81F101F01F0104FA01F195
:1034F0000842E5D01DE01EE0FFF7AEFA401B0228AF
:1035000002D90320BDE8F88F97FAA7F0B0FA80F04F
:1035100040F02000400901D0306800E0706A97FA5E
:10352000A7F1B1FA81F101F01F0104FA01F108429B
:10353000E2D10020E6E70120E4E74FF0E021042893
:10354000086903D020F004000861704740F00400CF
:10355000FAE7704710B5401EB0F1807F01D301201B
:1035600010BD4FF0E02460610F21601700F0CEFF26
:103570000020A06107202061002010BD10B5FFF7DA
:10358000E8FF10BD4FF0E020016921F00201016168
:103590007047704738B5044600680168C26811F08A
:1035A000010F02F4807204D01AB1E16B41F0010105
:1035B000E1630168C1F34002416901F0010122B1F8
:1035C00019B1E26B42F00402E2630268C2F38002C6
:1035D00022B119B1E26B42F00202E2630268C2F367
:1035E000C00222B119B1E16B41F00801E163016849
:1035F000C068C1F3401100F0200019B110B120469D
:1036000001F048F820680168C068C1F3C01100F0FB
:10361000800019B110B1204601F000F92168086856
:10362000CA68C0F3801002F04002012570B16AB18F
:10363000CA68204622F04002CA6094F83910322944
:1036400011D080F8395000BF00F042F9E06B00283B
:1036500008D0206801684068009084F839502046FE
:10366000FFF797FF38BD222180F83910ECE770B5DD
:10367000040004D094F83900002510B106E00120C0
:1036800070BD84F83850204600F020F8022084F8FD
:1036900039002068C16821F40051C160204601F062
:1036A0004DF82068016921F4904101612068416969
:1036B00021F02A0141612068C16841F40051C160D4
:1036C000E563012084F83900002070BD10B5006862
:1036D000154986B0884225D11448816941F480415A
:1036E00081618069124C00F4804004904FF40070B6
:1036F0000090022001900320039069462046FFF7C6
:10370000ADF800212015CDE900010291694620465F
:10371000FFF7A4F8002211462520FFF7F1F9252034
:10372000FFF7E2F906B010BD00380140001002407A
:10373000000801402DE9F047044690F83900994609
:103740000D46012801D0122858D12DB322B394F888
:103750003800012852D0012684F838600027E7633A
:1037600094F8390012281AD05FF0220084F839004A
:10377000A285E2854FF48058E08D4B46401EE085DF
:10378000A0684FF0000240454FF02001204616D1BE
:1037900001F077F8B0B904E00120BDE8F0873220ED
:1037A000E4E7206900282068406803D0C1B225F80A
:1037B000011B12E0C0F3080125F8021B0DE001F027
:1037C00060F808B10320E8E7206900282068406815
:1037D00001D000F07F0005F8010BE08D0028CBD16F
:1037E00094F83900322805D084F8396084F83870AC
:1037F0000020D2E7122084F83900F7E70220CCE756
:10380000704700002DE9F047044690F839009946CA
:103810000D46012801D0222858D12DB322B394F8A7
:103820003800012852D0012684F838600027E76369
:1038300094F8390022281AD05FF0120084F8390079
:10384000A284E2844FF48058E08C4B46401EE08412
:10385000A0684FF0000240454FF08001204613D190
:1038600001F00FF808BB04E00120BDE8F08732202A
:10387000E4E728882168C0F308004860206908B19F
:103880006D1C08E0AD1C06E000F0FBFF68B9216884
:1038900015F8010B4860E08C0028D5D14B4600227A
:1038A0004021204600F0EDFF08B10320DDE794F849
:1038B0003900322806D084F8396000BF84F83870A7
:1038C0000020D2E7222084F83900F7E70220CCE775
:1038D00070470246002004215318491E13F8013C8A
:1038E00011F0FF0103EB0020F6D170470E4B10B52D
:1038F00030211970782159705FF0090200F00F0132
:103900000009092901D8303106E0A1F10A04052C8B
:1039100001D8373100E0FF219954521ED2B2012A5A
:10392000ECD8014810BD0000780000200449087060
:10393000000A4870000A8870000AC870084670477C
:103940000800002001480068704700001C000020AB
:1039500010B54378002B14D0042B12D2002211464C
:1039600005E04418491C247AC9B204EB02228B42B8
:10397000F7D802E01202491CC9B20429FAD301485F
:10398000026010BD1C0000207CB50646002000909F
:10399000044601900D463046FEF7AFFC022812D3D4
:1039A0006946304600F011F804000CD001A93046F9
:1039B00000F00BF8040006D09DF804109DF80000FC
:1039C000FEF72EFC287020467CBD10B50C4601F099
:1039D00009FD08B1002010BD00F0A4FF20700120F7
:1039E00010BD00000849002210460A704A704A6063
:1039F0008B18521C1872FF2AFAD904494FF0FF3273
:103A0000C1E9000288607047840000201C0000208B
:103A10002DE9F14F002082B0524C009007466070B3
:103A200060600646207069460298FFF7CEFF0125C8
:103A300028B19DF80000A8463A2876D101E0314629
:103A400075E069460298FFF79FFF9DF8006060B33C
:103A50004FF0030969460298FFF796FF9DF80010A2
:103A60008A1902F0FF08E8B34FEA012A4FF0050B6C
:103A700069460298FFF788FF9DF8001001EB0802E5
:103A800002F0FF0998B1072001EB0A0B019069468B
:103A90000298FFF779FF9DF8008009EB080101F01B
:103AA000FF0A30B14FF009091EE041463FE0594698
:103AB0003DE0DDE9011000BFFEF74CFC84F8085141
:103AC0003AE000BFFFF760FF60B1E1199DF8000028
:103AD0000872504400F0FF0A09F102001FFA80F951
:103AE0007F1C00E011E0FFB20298B7426946E9D3BB
:103AF000FFF74AFF9DF8002002EB0A01C9B220B18E
:103B000009F1020087B281B901E049460FE0694638
:103B10000298FFF75AFF48B17F1C9DF80000BFB222
:103B20000A2818D00D2814D109E012E0394602986D
:103B3000C2E700BF84F808010A48BDE8FE8F694665
:103B40000298FFF742FF0028F0D09DF800000A28F5
:103B500001D00220EEE7C4F804B084F8008066705B
:103B60000320E7E78400002070B50C4C41684678DC
:103B700022688D1800F1080132462846FEF7C8FC7D
:103B8000010009D06068A84200D96560A268A81940
:103B9000904201D9401EA060084670BD1C00002064
:103BA00070B50C460546A04201D105A000E00DA06D
:103BB00000F0EEF921462846BDE8704000F0FCB860
:103BC000506F7765724D4355206170706C69636109
:103BD00074696F6E2076657269667920706173739F
:103BE000210D0A00506F7765724D4355206170704A
:103BF0006C69636174696F6E20766572696679209D
:103C00006661696C65642121212121212121212105
:103C10002121212121212121210D0A0000B587B078
:103C20001C2206A16846FEF7AFFA684600F0B0F91C
:103C3000094800F0ADF907B000BD000052656164AD
:103C40007920746F2072756E206170706C69636189
:103C500074696F6E210D0A000457010810B596B003
:103C600004462C2208A16846FEF78EFA2C2211A1E8
:103C70000BA8FEF789FA2CB10DF12C0000F088F9A1
:103C800016B010BD6846F9E743757272656E742010
:103C900072756E6E696E6720626F6F74284C322089
:103CA000626F6F743129206572617365204F6B21DB
:103CB0000D0A000043757272656E742072756E6E27
:103CC000696E6720626F6F74284C3220626F6F7468
:103CD0003229206572617365204F6B210D0A000047
:103CE00010B59AB00446342208A16846FEF74CFA93
:103CF000342213A10DA8FEF747FA2CB10DF13400C0
:103D000000F046F91AB010BD6846F9E752656164E3
:103D10007920746F206572617365206375727265B6
:103D20006E742072756E6E696E6720626F6F742894
:103D30004C3220626F6F743129210D0A000000009F
:103D4000526561647920746F2065726173652063C8
:103D5000757272656E742072756E6E696E67206220
:103D60006F6F74284C3220626F6F743229210D0AF4
:103D70000000000001A000F00BB90000446562756E
:103D800067206361626C6520697320696E73657278
:103D90007465642C20726561647920746F2072757B
:103DA0006E20696E746F20757064617465206D6F2C
:103DB0006465210D0A00000070B504460D460DA093
:103DC00000F0E6F82046FFF791FD00F0E1F810A0C2
:103DD00000F0DEF80FA000F0DBF82846FFF786FDC4
:103DE00000F0D6F80AA000F0D3F8BDE870400F4804
:103DF00000F0CEB843616C63756C617465642043F8
:103E000052432076616C75652069733A00000000AA
:103E10000D0A00004352432076616C756520696E7F
:103E200020666C6173682069733A000004570108CA
:103E300000B5ADB0242219A116A8FEF7A5F91C22E1
:103E40001FA11FA8FEF7A0F9182224A126A8FEF79B
:103E50009BF92C2227A16846FEF796F92C2230A167
:103E60000BA8FEF791F93948B0F1006F02D038493C
:103E7000884201D1684600E00BA800F089F816A836
:103E800000F086F81FA800F083F826A800F080F85C
:103E9000304800F07DF82DB000BD0000536F66740F
:103EA000776172652076657273696F6E20636F64E7
:103EB000652069733A2056302E3932410D0A0000D0
:103EC000417574686F722069732045696E6661631D
:103ED000686D616E6E210D0A00000000446174651A
:103EE00020697320323031372E30332E3330210D9C
:103EF0000A000000494F206D6F64756C6573205097
:103F00006F7765724D4355204C3220626F6F74316C
:103F10002069732072756E6E696E67210D0A00004C
:103F2000494F206D6F64756C657320506F776572B3
:103F30004D4355204C3220626F6F743220697320DC
:103F400072756E6E696E67210D0A0000002001080F
:103F5000004000080457010800B585B0142206A1EE
:103F60006846FEF711F9684600F012F8074800F0BD
:103F70000FF805B000BD0000526561647920746FD0
:103F80002072657374617274210D0A000457010870
:103F900070B50446FEF736FB05462046FEF706F9E7
:103FA00082B221462846BDE870404FF0FF33FFF74C
:103FB00029BC000070B588B00D460646202242A1FB
:103FC0006846FEF7E1F8FEF721FB044646A0FFF73E
:103FD000DFFF102C73D2DFE804F072080D20252AD1
:103FE0002F34393E43484D525F6C6846FFF7D0FF8F
:103FF00041A00BE06846FFF7CBFF4AA0FFF7C8FFE0
:104000003046FFF773FCFFF7C3FF4EA0FFF7C0FF7A
:104010004F48FFF7BDFF08B070BD6846FFF7B8FF17
:104020004CA0F3E76846FFF7B3FF55A0EEE76846FC
:10403000FFF7AEFF5DA0E9E76846FFF7A9FF63A0C1
:10404000E4E76846FFF7A4FF69A0DFE76846FFF7EB
:104050009FFF71A0DAE76846FFF79AFF75A0D5E7E2
:104060006846FFF795FF7DA0D0E76846FFF790FF11
:1040700083A0CBE76846FFF78BFF8DA0C6E76846B5
:10408000FFF786FF9AA0FFF783FF2846FFF72EFC75
:10409000FFF77EFF9EA0B9E76846FFF779FFA3A070
:1040A000FFF776FF2846FFF721FCFFF771FFA7A077
:1040B000ACE76846FFF76CFFADA0A7E7FFE76846EF
:1040C000FFF766FFB3A0A1E7596D6F64656D2063CC
:1040D0006F6D6D756E69636174696F6E2065727264
:1040E0006F72210D0A0000000D0A0D0A0D0A0D0A5B
:1040F0000D0A0D0A000000004572726F72206F6396
:10410000637572207768656E20726563656976698C
:104110006E67206669727374207061636B61676596
:10412000210D0A004572726F72206F6363757220F1
:104130007768656E20726563656976696E67204E83
:104140006F2E0000207061636B6167650D0A0000CF
:10415000045701084572726F72206F636375722095
:104160007768656E20726563656976696E6720455C
:104170004F54207061636B616765210D0A00000078
:104180004572726F72206F63637572207768656E17
:1041900020726563656976696E67206C617374204F
:1041A0007061636B616765210D0A0000526563658C
:1041B00069766520627566666572206973206E6F28
:1041C0007420656E6F756768210D0A005061636B1E
:1041D00061676520726563656976696E67206973DA
:1041E00020696E746572727570746564210D0A00C1
:1041F0005265636569766564207061636B616765AC
:10420000277320636F6465206973206E6F74206D5F
:1042100061746368210D0A004E6F2061636B20702A
:1042200061636B61676520696E636F6D696E67219D
:104230000D0A0000526563656976656420706163EC
:104240006B616765277320534E206973206E6F740E
:10425000206D61746368210D0A000000526563657A
:1042600069766564207061636B616765207665724D
:10427000696679206661696C6564210D0A00000039
:1042800043616E6E27742066657463682066696C8E
:1042900065206E616D652066726F6D207265636565
:1042A00069766564207061636B616765210D0A0042
:1042B0004572726F72206F63637572207768656EE6
:1042C000206665746368696E67206261736520614A
:1042D0006464726573732066726F6D2072656365C6
:1042E000697665642066696C65210D0A000000002E
:1042F0004572726F72206F63637572207768656EA6
:104300002070617273696E67204E6F2E000000008E
:10431000206C696E65206F662072656365697665DD
:10432000642066696C65210D0A0000004572726F99
:1043300072206F63637572207768656E207772698B
:104340007474696E67204E6F2E000000206C696ED9
:1043500065206F66207265636569766564206669AD
:104360006C6520746F20666C617368210D0A000013
:104370004572726F72206F63637572207768656E25
:104380002065726173696E6720666C617368210DC8
:104390000A000000556E6B6E6F776E206572726F4B
:1043A00072206F63637572210D0A000001A0FFF790
:1043B000EFBD0000596D6F64656D20636F6D6D75A5
:1043C0006E69636174696F6E2069732072756E6EB9
:1043D000696E67210D0A00002DE9F041A6B09046F4
:1043E0000F4606461C46142222A117A82C9DFDF755
:1043F000CBFE25A30DF14C0C0FCB8CE80F001C223B
:1044000025A16846FDF7C0FE18222AA107A8FDF7DE
:10441000BBFE18222DA10DA8FDF7B6FE142231A176
:104420001CA8FDF7B1FE142233A121A8FDF7ACFEB4
:104430000EB117A800E013A8FFF7AAFD4046FFF74A
:10444000A7FDAC4201D1684600E007A8FFF7A0FD38
:1044500029462046FFF7B0FCAC4206D10EB10DA8AC
:1044600001E02FB121A8FFF793FD26B0BDE8F08150
:104470001CA8F8E74170706C69636174696F6E2005
:1044800066696C6520222000426F6F742066696C3B
:104490006520222000000000202220646F776E6CCF
:1044A0006F616420737563636565642121210D0A62
:1044B00000000000202220646F776E6C6F61642022
:1044C0006661696C65642121210D0A004170706C80
:1044D00069636174696F6E20757064617465210D24
:1044E0000A0000004C3220626F6F743120757064D6
:1044F000617465210D0A00004C3220626F6F7432C6
:1045000020757064617465210D0A00000907090EA9
:10451000002806DA00F00F0000F1E02080F8141DFA
:10452000704700F1E02080F8001470477FB501204B
:10453000019002240020CDE90204244DE10102464D
:1045400000912846FEF783FA69462846FEF786F969
:104550002102002228460091FEF779FA6946284692
:10456000FEF77CF96102002228460091FEF76FFAFF
:1045700069462846FEF772F9A102002228460091FA
:10458000FEF765FA69462846FEF768F961030022DE
:1045900028460091FEF75BFA69462846FEF75EF969
:1045A000E102002228460091FEF751FA69462846AA
:1045B000FEF754F921460094054C00222046FEF7F0
:1045C00046FA69462046FEF749F97FBD00140140CE
:1045D0000008014010B5FEF745FABDE81040FEF7AF
:1045E000CDBF30B58FB0012000904FF4A020002443
:1045F000CDE901040225E803CDE907504FF4A010EE
:1046000009906846FEF780FC0F20CDE90A05680294
:10461000CDE90C4002210AA80E94FEF7A3FAFEF79A
:10462000E5FB4FF47A71B0FBF1F0FEF793FF042045
:10463000FEF783FF00221146501EFEF761FA0FB00D
:1046400030BD00000E48016841F001010160416881
:104650000C4A1140416001680B4A11400160016839
:1046600021F480210160416821F4FE0141604FF492
:104670001F0181600548064940F0006008607047EE
:10468000001002400000FFF8FFFFF6FE00200100CE
:1046900008ED00E010B590F83910222903D0322936
:1046A00001D0022010BD8168B1F5805F11D0016991
:1046B000002901681FD0496801F07F03816A4A1C04
:1046C00082620B70C18D491E0904090CC18518D086
:1046D00030E00269816A002A0268526805D0D2B2CD
:1046E0000A80816A491C8162ECE7C2F308020A80F1
:1046F000816A891CF7E74A68816A4B1C83620A70E9
:10470000E0E70168CA6822F02002CA6090F8391018
:10471000322911D00168CA6822F48072CA60016827
:104720004A6922F001024A615FF0010180F8391004
:10473000FFF766F8002010BD1221F7E72DE9F041E0
:10474000044600680169E26821F4405111430161A7
:104750002169A0680843616908432168CA6841F279
:104760000C639A430243CA6020684169A26921F43C
:104770004071114341612849206864254FF0320897
:10478000884218D1FEF762FB00EBC00101EB00107C
:1047900061688900B0FBF1F0B0FBF5F6FEF756FB5F
:1047A00000EBC00101EB001061688900B0FBF1F77C
:1047B000FEF74CFB17E0FEF733FB00EBC00101EB0B
:1047C000001061688900B0FBF1F0B0FBF5F6FEF770
:1047D00027FB00EBC00101EB001061688900B0FB12
:1047E000F1F7FEF71DFB00EBC00101EB0010616863
:1047F0008900B0FBF1F0B0FBF5F06FF01801484311
:1048000007EB800108EB0110B0FBF5F0216866F3BF
:104810001F108860BDE8F0810038014090F8391021
:10482000122903D0322901D0022070478168B1F5E6
:10483000805F016A0BD04A1C0262026809785160ED
:10484000C18C491E0904090CC1840ED017E00988E7
:104850000268C1F30801516001690029016A02D0B0
:10486000491C0162ECE7891CFBE70168CA6822F079
:104870008002CA600068C16841F04001C160002048
:1048800070472DE9F0471D4690460E460446FEF758
:10489000E3F807465FEA08004FF000094FF001080F
:1048A00008D030E0681C05D095B1FEF7D5F8C01BE4
:1048B000A8420DD82068006836EA0000F2D127E04F
:1048C000681C20D025B1FEF7C7F8C01BA8421AD932
:1048D0002068C16821F08001C1602068C16821F0B2
:1048E0002001C1602068C16821F48071C160206826
:1048F000416921F00101416184F8398084F83890E0
:104900000320BDE8F0872068006836EA0000D7D0B1
:104910000020F6E710B5FDF775FEBDE81040FEF784
:1049200039BE000010B5084800F05CFD10B100244D
:10493000204610BD05490448FDF7E1FC0446024845
:10494000FDF7EEFCF4E700005000002050020020CC
:1049500010B50446074800F04CFD002809D1224656
:1049600005490448FDF70FFDBDE810400148FDF77B
:10497000E4BC10BD5000002050020020034800217C
:1049800081708181C1700182704700003000002079
:1049900008B506208DF8000000208DF8010068465B
:1049A00000F0F1FC08BD08B518208DF800000020CB
:1049B0008DF80100684600F0E6FC08BD08B543200C
:1049C0008DF8000000208DF80100684600F0DBFC47
:1049D00008BD00002DE9FE4F0020FD4C0190029023
:1049E0000090207806260527FA4D4FF0170A4FF061
:1049F000100B4FF009084FF0030919287DD2DFE8AA
:104A000000F00D131F6889FCFBFAF9F8F7F6F5F4CE
:104A1000F3F2F1F0EFEEEDECEBEAE90001202070AB
:104A200000202071BDE8FE8FFFF7C8FFFF206071F6
:104A3000FFF7A4FFE6482030FDF75AFC022025E3EB
:104A40004FF47A7101A800F06EFCB0B3E04DA0788D
:104A500014359DF804102954401CC0B2A0700328DE
:104A6000E0D360798DF80400294601A800F075FCB8
:104A70009DF80410617130B12878012806D0022811
:104A80000ED0072021E084F8018019E08020E08129
:104A9000CF4820300188C088081A80280AD20DE04B
:104AA000CB484FF480612030E1810288C088101A21
:104AB000884203D384F80090B4E703E067706FE1A5
:104AC0002770AFE7A07810B106206070F8E70820E3
:104AD000FBE74FF47A7101A800F025FC002857D0BD
:104AE000208AADF808009DF80400FFF731FF9DF81B
:104AF000040002A900F00AFC00E0A6E3BDF80800EB
:104B00002082A089401C80B2A081E189884289D39B
:104B10000420BBE24FF47A7101A800F004FCB8B3A2
:104B2000AB48E1780A309DF804204254491CC9B2D0
:104B3000E1700229C0D30278218AB2EB112F63D130
:104B40004078C9B2A14688425ED1A3494FF0000A1D
:104B50000D4681F800A081F87FA054464FF001086F
:104B6000FFF7E0FE08B17F2C13D305F804A084B34F
:104B70000024B8F1000F41D0FFF7D4FE68B120281F
:104B80000BD004EB84014C00FDF735FB0444F3E744
:104B90003CE02855641CE4B2E2E7D4B1D9F818002F
:104BA0004C46401CC9F81800FFF7F2FEFFF706FF5D
:104BB00087482030FDF79CFB554684F804A0FFF79A
:104BC000DDFEFDF799FCFEF70DFFFDF7E3FC6570D8
:104BD0006EE013E033E32DE3C7E296E27FE259E2B1
:104BE00051E2A2E18CE166E145E1FDE0DEE0D9E0E1
:104BF000C5E0ACE087E064E013E009E00B2189F850
:104C0000011089F800700DE70A205EE7667057E72B
:104C100020790A2801D30120A2E0401C2071012044
:104C200034E24FF47A7101A800F07DFBB0B3684D17
:104C3000A07814359DF804102954401CC0B2A0700F
:104C400003282CD360798DF80400294601A800F0D0
:104C500084FB9DF80410617130B12878012807D0D9
:104C600002280FD0072028E0404684F801800DE29A
:104C70008020E081564820300188C088081A8028AA
:104C80000AD21BE752484FF480612030E18102884C
:104C9000C088101A8842F4D30720F7E10AE0287888
:104CA000042805D14A482030FDF722FB0B20EDE116
:104CB0002670B7E6A07810B10620607020E00820CA
:104CC000FBE74FF47A7101A800F02DFB00287DD09E
:104CD000208AADF808009DF80400FFF739FE9DF822
:104CE000040002A900F012FBBDF808002082A08990
:104CF000401C80B2A081E189884284D30820C5E1AC
:104D000084F800808EE64FF47A7101A800F00BFB66
:104D100000285BD02E48E1780A309DF804204254E8
:104D2000491CC9B2E1700229C3D30278218AB2EBCF
:104D3000112F0AD14078C9B2884206D1A069401C1F
:104D4000A061002060701120A0E10A20B5E7204892
:104D5000E1892030FDF7FEFA2079052802D30220F0
:104D600060701DE0401C2071FFF708FE6078082885
:104D700002D000F0E7FA9BE7FFF70AFE98E74FF44E
:104D80007A7101A800F0CFFA40B19DF80400042820
:104D900004D100202071FFF7F1FD83E784F8019032
:104DA000132073E100F0CEFA0C206FE14FF47A711A
:104DB00001A800F0B8FA0028F0D09DF804000428FB
:104DC000ECD1FFF7E5FDFFF7F9FD07E096E0000005
:104DD0003000002000400008D0010020002525718F
:104DE000FFF7CCFD657099E04FF47A7101A800F0EF
:104DF0009AFAA8B3FF4DA0789DF804102954401CDE
:104E0000C0B2A07003288FD3FF208DF8040029467C
:104E100001A800F0A2FA9DF80410617130B1287861
:104E2000012806D0022810D0072020E084F8018055
:104E300017E08020E081EF480C300188C088081A14
:104E40008028FFF42CAE0E2020E1EA484FF4806168
:104E50000C30E1810288C088101A8842F3D22DE616
:104E600002E084F800B0DDE5A07810B106206070A3
:104E7000F7E70820FBE74FF47A7101A800F053FA36
:104E8000B8B1208AADF808009DF80400FFF760FD76
:104E90009DF8040002A900F039FABDF8080020824C
:104EA000A089401C80B2A081E1898842DBD30F2019
:104EB000ECE06670D5E74FF47A7101A800F033FAA0
:104EC000E0B1CC48E1780A389DF804204254491CEE
:104ED000C9B2E1700229C6D30278218AB2EB112F40
:104EE0000AD14078C9B2884206D1A069401CA061AD
:104EF000FFF74EFD1220C9E00A20B8E76670FFE612
:104F00002079052801D304202AE7401C2071FFF7EF
:104F100035FD6078082803D000F014FA0D20B5E0C4
:104F2000FFF736FDFFF74AFDF8E7B2480C30FEF711
:104F30006FFD074690F80801012802D0032807D02A
:104F400013E0FFF725FD00202071FFF717FDAFE606
:104F5000E169491CE1613878042808D0052806D0A9
:104F600070B101287ED0491EE1610D20F8E6384677
:104F7000FEF7EEFCE06901287FF49EADE07151E59B
:104F8000E07980B34FF0000884F80780FEF7DAFC80
:104F90007968994E0844B04218D3FEF7D3FC79687B
:104FA00008449649884211D284F806803046FDF7BD
:104FB000F3FA9248401EFDF7F5FA4FF400313046FF
:104FC00044E0E069401EE0610F20C9E6FEF7BAFC4C
:104FD00079688B4E4FF000680144464501D0AE42DF
:104FE00002D1884801E035E0284681423ED3FEF7F1
:104FF000A9FC79684645014401D0AE4201D1814AFD
:1050000000E02A464DF6FC731A4491422ED201214B
:10501000A171464501D0AE4201D17A4800E0284650
:10502000FDF7BAFA464501D0AE4201D1754800E01D
:1050300028464DF6FF710844FDF7B4FA464502D004
:105040002846864200D16F484FF46041FDF71CFAB4
:105050000028B6D02078112891D13846FEF784FD7B
:10506000002800E007E08AD10E2079E6E069401EC2
:10507000E0610C2074E6FFF78BFC00202071FFF745
:105080007DFC0A2002E0A07910B115202070C9E44F
:105090001420FBE7FFF787FCFFF785FCFFF783FC95
:1050A000FFF781FCFFF77FFC4FF47A70FDF724FBDC
:1050B000D4E90601FEF77EFF5049534A091F4E48C6
:1050C000FDF700F90546FDF773FA0646FDF776FA97
:1050D00001463046FEF764FDF5B31820D6E7474990
:1050E000494A091F4448FDF7EDF86420FDF704FB29
:1050F000FDF75EFA0546FDF761FA002100902B46A8
:10510000424A0846FFF768F991E03D484FF00063D6
:10511000984201D0A84201D13A4900E029464DF613
:10512000FC721144984201D0A84201D1354800E0F8
:105130002846FDF7C7F806466420FDF7DDFAFDF7BF
:1051400037FA0546FDF73AFA00902B462F4A217AA6
:105150000020FFF741F900E032E08EB32548217AC4
:10516000801E405C60B3162090E7607AFEF7B8FDC1
:10517000234E4FF00067BE4201D1284600E0204890
:10518000FDF70AFABE4201D1284600E01C484DF660
:10519000FF710844FDF706FA4FF40068BE4201D1E2
:1051A000284600E01648414600F55840FDF76CF9E6
:1051B00038B90098052804D2401CC0B20090EDE731
:1051C00035E0B946B0464E4501D1294600E00C49CC
:1051D0004DF6FC7B5A460020FDF756F8C043FEF71B
:1051E000A5FB4746A84600265D4600904F450FD1D7
:1051F00040460EE0440000200000020800000408C1
:105200000020010800200108FCFF0100D00100205F
:105210000F48042228440099FDF77AF920B9052E99
:1052200002D2761CF6B2E1E7607AFEF717FD84F849
:1052300000A041E4FEF790FE4FF0006002E0FEF7B0
:10524000EDFC0448FCF7CCFF36E400201EE700002C
:1052500000200108000002082DE9F041254C00263D
:105260003546267066712671A670234A4FF4006198
:1052700004F12000FDF746F8E5816570A561E56160
:105280001E49A5714FF0006301221D48E571994246
:1052900003D0814201D0257202E02272994201D0EE
:1052A000814201D1657200E062724DF6FC742246C3
:1052B0001449FDF707F80F4F22461237124938708C
:1052C0001048001DFCF7FEFF7870B81C8555761C51
:1052D000032EFBD3074900200A310D54401C02283D
:1052E000FBD30549002080390D54401C8028FBD396
:1052F000BDE8F081300000205002002000200108AD
:1053000000400008FC1F0108FCFF010838B50C46EE
:10531000014620888DF80010002301226946FCF721
:105320009BFF208038BD70B50D4606460024FDF772
:1053300069F92B4601223146FEF7FCF900B9012438
:10534000204670BD08B515208DF8000000208DF8AE
:105350000100684600F017F808BD10B502784B78D8
:10536000FF2A83F0FF0408D0521CD2B29A4202D125
:105370008978A14203D0002103E00022F6E7012151
:105380000270084610BD70B50546FDF73BF90446AE
:105390002846FCF70BFF82B229462046BDE8704044
:1053A0004FF0FF33FEF72EBA02E008C8121F08C103
:1053B000002AFAD170477047002001E001C1121F96
:1053C000002AFBD17047000010B54FF4007104486B
:1053D000FDF738FB08B1002010BD012010BD000012
:1053E0000018014001460020C988002900D1012091
:1053F000704701460020CA880988521C8A4200D39F
:105400000120704705494A68904202D809688842DD
:1054100001D20020704701207047000014000020D6
:1054200008B5FDF727FB4FF0006410B12046FCF7EC
:10543000D7FEFFF7D6F82649886940F0100088614A
:10544000886900F010000090886940F004008861CD
:105450008869214900F0040000901E4808604FF45C
:10546000E1300022C1E901020C20CA60C1E9042038
:105470008A610846CA61FEF7FAF8194917480860B8
:105480000846FDF713F9FDF7C7F8FFF74FF8FDF7EA
:10549000F1F8FCF7D1FE32211248FDF799F850B12E
:1054A000FEF7C6FCFEF766FCFEF780FFFFF7D4FEB2
:1054B000FFF790FAFCE70E4D0B4A0C492846FCF723
:1054C00001FF08B1284600E02046FCF789FEEDE721
:1054D00000100240003801409001002000300240DE
:1054E00028000020C9530108FCFF0100FCFF03084D
:1054F000000002080000000001020304010203048E
:105500000607080900002110422063308440A5509E
:10551000C660E770088129914AA16BB18CC1ADD1F9
:10552000CEE1EFF13112100273325222B5529442A1
:10553000F772D662399318837BB35AA3BDD39CC349
:10554000FFF3DEE36224433420040114E664C774ED
:10555000A44485546AA54BB528850995EEE5CFF599
:10556000ACC58DD55336722611163006D776F66641
:105570009556B4465BB77AA719973887DFF7FEE7E9
:105580009DD7BCC7C448E5588668A778400861180D
:1055900002282338CCC9EDD98EE9AFF94889699939
:1055A0000AA92BB9F55AD44AB77A966A711A500AE1
:1055B000333A122AFDDBDCCBBFFB9EEB799B588B89
:1055C0003BBB1AABA66C877CE44CC55C222C033C2D
:1055D000600C411CAEED8FFDECCDCDDD2AAD0BBDD9
:1055E000688D499D977EB66ED55EF44E133E322E81
:1055F000511E700E9FFFBEEFDDDFFCCF1BBF3AAF29
:10560000599F788F8891A981CAB1EBA10CD12DC186
:105610004EF16FE18010A100C230E320045025401C
:1056200046706760B9839893FBA3DAB33DC31CD37C
:105630007FE35EF3B1029012F322D232354214526C
:1056400077625672EAB5CBA5A89589856EF54FE5C8
:105650002CD50DC5E234C324A014810466744764BC
:1056600024540544DBA7FAB79987B8975FE77EF71C
:105670001DC73CD7D326F2369106B016576676760C
:10568000154634564CD96DC90EF92FE9C899E989E8
:105690008AB9ABA94458654806782768C018E1085C
:1056A0008238A3287DCB5CDB3FEB1EFBF98BD89BBC
:1056B000BBAB9ABB754A545A376A167AF10AD01AAC
:1056C000B32A923A2EFD0FED6CDD4DCDAABD8BAD08
:1056D000E89DC98D267C076C645C454CA23C832CFC
:1056E000E01CC10C1FEF3EFF5DCF7CDF9BAFBABF5C
:1056F000D98FF89F176E367E554E745E932EB23E4C
:10570000D10EF01E2D2D2D2D2D2D2D2D2D2D2D2D90
:105710002D2D2D2D2D2D2D2D2D2D2D2D2D2D2D2DB9
:105720002D2D2D2D2D2D2D2D2D2D2D2D2D2D2D2DA9
:105730002D2D2D2D2D2D2D2D2D2D2D2D2D2D2D2D99
:105740002D2D2D2D2D2D2D2D2D2D2D2D2D2D2D2D89
:105750002D2D2D2D2D2D2D2D2D2D2D2D2D2D0D0ABC
:105760000A000000845701080000002058000000D3
:10577000A8530108DC57010858000020F80B00006E
:10578000B853010800A24A04000000000000000015
:105790000000000000000000000000000000000009
:1057A00000000000000000000000000000000000F9
:1057B00000000000000000000000000000000000E9
:1057C00000000000000000000000000000000000D9
:1057D000000000000000000000000000FFFFFFFFCD
:10FFF000FFFFFFFFFFFFFFFFFFFFFFFFB7310FF323
:00000001FF
