:020000040802F0
:10000000B8100020CD010208D5010208D70102086E
:10001000D9010208DB010208DD010208000000002E
:10002000000000000000000000000000DF010208E6
:10003000E101020800000000E3010208A930020803
:10004000E7010208E7010208E7010208E7010208E8
:10005000E7010208E7010208E7010208E7010208D8
:10006000E7010208E7010208E7010208E7010208C8
:10007000E7010208E7010208E7010208E7010208B8
:10008000E7010208E7010208E7010208E7010208A8
:10009000E7010208E7010208E7010208E701020898
:1000A000E7010208E7010208E7010208E701020888
:1000B000E7010208E7010208E7010208E701020878
:1000C000E7010208E7010208E7010208E701020868
:1000D000E701020899390208E7010208E70102086E
:1000E000E7010208E7010208E7010208E701020848
:1000F000E7010208E7010208E7010208E701020838
:10010000E7010208E7010208E7010208E701020827
:10011000E7010208E70102087D320208993202086D
:10012000E7010208E7010208E7010208E701020807
:1001300000F002F800F03AF80AA090E8000C8244BF
:100140008344AAF10107DA4501D100F02FF8AFF29C
:10015000090EBAE80F0013F0010F18BFFB1A43F0A5
:1001600001031847643A0000843A0000103A24BFA3
:1001700078C878C1FAD8520724BF30C830C144BF0C
:1001800004680C607047000000230024002500264E
:10019000103A28BF78C1FBD8520728BF30C148BFEA
:1001A0000B6070471FB51FBD10B510BD00F082F881
:1001B0001146FFF7F7FF03F041FC00F0A0F803B48D
:1001C000FFF7F2FF03BC00F0A7F8000009488047E2
:1001D00009480047FEE7FEE7FEE7FEE7FEE7FEE729
:1001E000FEE7FEE7FEE7FEE704480549054A064B41
:1001F000704700002D32020831010208B80A0020C1
:10020000B8100020B80E0020B80E002010B5431C16
:1002100002E010F8011B71B18107FAD14FF00132F1
:1002200002C88C1A8C4314EAC211F9D0C01A0A060B
:1002300003D0C01E10BDC01A10BD0A0401D0801E1C
:1002400010BD0902FCD0401E10BD10B5203AC0F010
:100250000B80B1E81850203AA0E81850B1E81850C7
:10026000A0E81850BFF4F5AF5FEA027C24BFB1E804
:100270001850A0E8185044BF18C918C0BDE8104075
:100280005FEA827C24BF51F8043B40F8043B08BF7E
:100290007047D20728BF31F8023B48BF11F8012B45
:1002A00028BF20F8023B48BF00F8012B7047704779
:1002B00070477047754600F02BF8AE46050069465A
:1002C000534620F00700854618B020B5FFF78CFF95
:1002D000BDE820404FF000064FF000074FF0000847
:1002E0004FF0000B21F00701AC46ACE8C009ACE8C8
:1002F000C009ACE8C009ACE8C0098D46704710B52C
:100300000446AFF300802046BDE81040FFF757BF1A
:1003100000487047540A002001491820ABBEFEE790
:10032000260002007047000070B5294C002500BF70
:1003300005EB450000EBC51004EB800000F09EF8D3
:100340006D1CEDB2032DF3D35FF0000202EB42000F
:1003500000EBC21004EB800090F8091280F80A123A
:1003600090F8081280F8091290F808120023491C2E
:10037000C9B2082900D3002100EB81152D7A15B1EF
:1003800080F8081205E05B1CDBB2082BEFD30021DC
:100390000170521CD2B2032AD8D3002505EB4500C8
:1003A00000EBC51004EB8006307858B196F80802CF
:1003B000C00140F4C251706802F053FA10B101203C
:1003C00086F80B026D1CEDB2032DE7D370BD000063
:1003D000300000202DE9F0411C4F00254FF4C2569B
:1003E00005EB450000EBC51007EB8004606801F0E9
:1003F00072FF0028F4D16068314602F032FA60687A
:1004000001F069FF0028FAD1606802F026FA6068FE
:100410000068016821F0400101606068314602F027
:1004200020FA606801F057FF0028FAD1606802F0F6
:1004300014FA60680068016821F0400101606D1CD9
:10044000EDB2032DCCD3BDE8F081000030000020D8
:10045000094A002000EB400101EBC01102EB8101D1
:10046000496809680B6823F040030B60401CC0B268
:100470000328EFD370470000300000202DE9F0473B
:100480000446007800273D4650B194F80B0200283E
:100490000ED0606801F01FFF4FF0010950B117E066
:1004A00084F80B5284F8085284F8095284F80A52EE
:1004B000BDE8F087606802F0D0F94FEA1038C0F369
:1004C0000B0601F0B3FF28B394F80A12414506D099
:1004D00094F80A1204EB811181F809903BE004EBD7
:1004E0008810017AB1B1418AB14208D24584C18BEA
:1004F000028B91422FD2C18B491CC1832BE0818A90
:10050000B14208D94584018C428B914223D2018C9F
:10051000491C01841FE0418C828B914208D2868461
:10052000418C00EB4101CE84418C491C418410E098
:100530005FF00F0100EB4102938CD384D28C491EF3
:10054000174411F0FF01F5D1C684C18C3944090963
:100550008184C583058484F80B52A9E72DE9F84FFF
:100560000020444A01218B4692461154401CC0B2DF
:100570000328F8D3DFF80091002606EB460000EBD5
:10058000C618002509EB880707EB8514A07A0090B0
:1005900003F04AFA19F8281089B1217A59B150B1FB
:1005A000E18B208B814203D2208C618B884202D365
:1005B000E168009888476D1CEDB2082DE4D3761CE5
:1005C000F6B2032ED9D300224846134602EB42016D
:1005D000002401EBC21600BF10F8261019B300EB7F
:1005E000860101EB84110D7ACDB10F7C91F811C019
:1005F0008D8C07EB470808EBC71700EB870707EB65
:100600008C17BF8CBD4201D3ED1B00E07D1BCF8A50
:10061000ADB2AF4202D881F809B000E04B72641C61
:10062000E4B2082CD8D3521CD2B2032ACED3002273
:1006300002EB420404EBC21C0021564600EB8C077F
:1006400007EB8115AC7A10F82C80B8F1000F06D0BA
:1006500095F80880B8F1000F01D06D7A05B13355D7
:10066000491CC9B20829EBD3521CD2B2032ADFD3EA
:10067000BDE8F88F0400002030000020032802D2DB
:100680000249085C70470020704700000400002009
:100690002DE9F05F0025DFF8C8B3DFF8C8A34FF0FD
:1006A00010092C465FF0010705EB450000EBC51172
:1006B000D0460AF821700AEB810686F8084286F8CF
:1006C000094286F80A4286F80B42002D7ED0012DA1
:1006D0007DD000F0C7FA70600021DC465FF00302B5
:1006E00006EB811007724472C0F80CC0028342838B
:1006F000A0F81C90C4830484448484845FF00003C5
:1007000000EB4308A8F826405B1CDBB2102BF7D3A4
:10071000491CC9B20829E3D36D1CEDB2032DC3D324
:10072000D14A0020BB4600BF02F800B0401CC0B256
:100730000328F9D350468AF80A4040F6F222AAF874
:10074000122040F62B23AAF8143002218AF8101048
:100750004FF0040E8AF811E01E24AAF8164000217A
:100760008AF84A1040F64F05AAF8525040F2AA768D
:10077000A0F85460022180F85010052180F8511033
:100780001921A0F85610002780F88A7040F2FB3932
:10079000A0F8929040F2B53AA0F894A0022780F811
:1007A0009070062780F89170A0F89610002780F8C6
:1007B000CA704FF46977A0F8D27040F2673CA0F895
:1007C000D4C04FF0020880F8D08001E03CE140E165
:1007D0004FF0070880F8D180A0F8D61080F80AB151
:1007E000A0F81221A0F814314FF0010880F8108110
:1007F0004FF0000880F81181A0F816414FF0010871
:1008000080F84A81A0F85251A0F8546180F85081D4
:1008100080F85181A0F8561180F88A81A0F8929151
:10082000A0F894A180F890814FF0020880F891819F
:10083000A0F896114FF0010880F8CA81A0F8D27193
:10084000A0F8D4C180F8D0814FF0030B80F8D1B16B
:10085000A0F8D61180F81682A0F81E22A0F8203247
:100860004FF0000880F81C8280F81DE2A0F82242B8
:100870004FF0010880F85682A0F85E52A0F860623E
:100880004FF0000880F85C824FF0050880F85D8228
:10089000A0F862124FF0010880F89682A0F89E92AC
:1008A000A0F8A0A24FF0000880F89C824FF0060844
:1008B00080F89D82A0F8A2124FF0010880F8D6823D
:1008C000A0F8DE72A0F8E0C24FF0000880F8DC82E9
:1008D0004FF0070880F8DD82A0F8E2124FF002081E
:1008E00080F81683A0F81E23A0F8203380F81C831C
:1008F0004FF0000880F81D83A0F822434FF0020853
:1009000080F85683A0F85E53A0F8606380F85C839B
:100910004FF0010880F85D83A0F862134FF00208E1
:1009200080F89683A0F89E93A0F8A0A380F89C83FB
:1009300080F89D83A0F8A21380F8D683A0F8DE7318
:10094000A0F8E0C380F8DC8380F8DDB3A0F8E21300
:1009500080F82284A0F82A24A0F82C344FF0010853
:1009600080F8288480F829E4A0F82E444FF002088B
:1009700080F86284A0F86A54A0F86C644FF0010813
:1009800080F868844FF0050880F86984A0F86E1438
:100990004FF0020880F8A284A0F8AA94A0F8ACA4B2
:1009A0004FF0010880F8A8844FF0060880F8A98469
:1009B000A0F8AE144FF0020880F8E284A0F8EA74C0
:1009C000A0F8ECC44FF0010880F8E8844FF0070865
:1009D00080F8E984A0F8EE144FF0000880F8228532
:1009E000A0F82A25A0F82C3580F8288580F82985DC
:1009F000A0F82E4580F86285A0F86A55A0F86C65CD
:100A000080F86885012280F86925A0F86E1580F8C5
:100A1000A285A0F8AA95A0F8ACA5002280F8A82588
:100A2000022280F8A925A0F8AE15002280F8E22560
:100A3000A0F8EA75A0F8ECC580F8E82580F8E9B5DB
:100A4000A0F8EE15BDE8F09F00F004F9C8F8040026
:100A500042E600F003F90349C1F810023CE6000049
:100A600011310208300000200400002010B50446B7
:100A700001F0CFF8D4E9001081F30888BDE81040F8
:100A80000047000010B5002002F0F4FD012002F044
:100A9000F1FD022002F0EEFD0122BDE810408021B0
:100AA000014800F068BA00000014014010B50024AD
:100AB000204602F061FD204602F02CFD641CE4B2E9
:100AC000032CF5D3BDE8104000F008B800228021C7
:100AD000014800F050BA0000001401400022022139
:100AE000014800F048BA000000080140012202213C
:100AF000014800F040BA0000000801402DE9FF4124
:100B000000254FF40071012402268DE87200184F71
:100B10002A46384600F02FFA6946384600F02EF98A
:100B200021028DE87200134F0022384600F023FAAC
:100B30006946384600F022F9E1028DE87200002291
:100B4000384600F018FA6946384600F017F92103D4
:100B50008DE872000022384600F00DFA69463846EA
:100B600000F00CF900F00CFA03490860BDE8FF81C1
:100B70000010014000080140080000202DE9F0416C
:100B800000F0FEF91E4D04461E4E2868201AB0F5EE
:100B9000FA7F0CD3B7143946304600F0E3F9012848
:100BA00026D001223946304600F0E5F92C600020BD
:100BB00002F03AFF020014484FF400711AD00022EC
:100BC00000F0D9F9012002F02FFF4FF4807198B1A5
:100BD0000022304600F0CFF9022002F025FF4FF44A
:100BE000006158B100223046BDE8F04100F0C3B9C1
:100BF0000022D7E70122E3E70122EAE70122F2E738
:100C000008000020000801400010014000EB4001F6
:100C100001EBC010014901EB80007047300000205B
:100C20002DE9F0418846074600F0AAF90546B84785
:100C300007E000BF00F0A4F90646B847844202D09E
:100C400035460446F6E7A91B4145F3D32046BDE8E7
:100C5000F0810000004870475406002000487047AB
:100C6000AC06002000487047040700200048704789
:100C70005C07002000487047980700200048704734
:100C8000D4070020154808B5816941F0040181614D
:100C9000816901F004010091816941F008018161DD
:100CA000816901F008010091816941F010018161C1
:100CB000816901F010010091816941F02001816199
:100CC000816901F020010091816941F04001816159
:100CD000806900F04000009008BD00000010024054
:100CE00010B50446007800281CD0A0688047010099
:100CF0004FF000000BD02071E0786178884201D07D
:100D0000401CE070C0B288420CD1012009E0E070C4
:100D10002179A278914201D0491C2171C9B2914236
:100D200000D1207310BD00001FB540210120CDE986
:100D30000010002002900220084C03900022204660
:100D400000F019F96946204600F018F80448416897
:100D500021F0E06141F0007141601FBD00140140CD
:100D60000000014031B500F00BF9044600F008F92D
:100D70000099001B8842F9D338BD00002DE9F84FD7
:100D8000DFF8B8A100220AF1040B144601274FF046
:100D90000F090BF1040E00BF0B6807FA04F52B4096
:100DA000AB4274D1DFF898C14E68A6EB0C086645DB
:100DB0002BD00DDC032E34D005DC36B3012E19D038
:100DC000022E2FD11BE0112E16D0122E2AD119E09F
:100DD000B8F5881F19D006DCB8F5803F15D0B8F5F6
:100DE000801F1FD111E0B8F5001F0ED0B8F5041F09
:100DF00018D10AE0CA6815E0CA68121D12E0CA6874
:100E000008320FE0CA680C320CE08A682AB1012A65
:100E10004FF0080203D0456104E0042202E00561BE
:100E200000E00022FF2B01D8064601E000F1040695
:100E30004FEA840501D9A5F12005D6F800C009FACA
:100E400005F82CEA080C02FA05F54CEA050CC6F880
:100E500000C04D68ED006AD53A4DAE6946F0010616
:100E6000AE61AD6924F0030605F001050095364D2D
:100E700006EB050CDCF80850A6074FEA167809FACD
:100E800008F6B543314EB04202D100261AE04EE0DA
:100E90002F4EB04201D1012614E02E4EB04201D1B6
:100EA00002260FE02C4EB04201D103260AE02B4E61
:100EB000B04201D1042605E0294EB04201D10526F9
:100EC00000E0062606FA08F62E43CCF808604D68C6
:100ED000DAF80060ED03554601D51E4300E09E435D
:100EE0002E604D68AD0305D5DBF800601E43CBF8DE
:100EF000006004E0DBF800509D43CBF800504D68E3
:100F0000DEF80060ED02754601D51E4300E09E4309
:100F10002E604D68AD0205D5084D0C352E681E4378
:100F20002E6004E0054E0C3635689D433560641C28
:100F3000102CFFF431AFBDE8F88F00000004014031
:100F400000001110001002400000014000080140A4
:100F5000000C014000100140001401400018014045
:100F6000001C01408068084000D001207047C26822
:100F70004A40C26070470AB1016170470904FBE74B
:100F800001480068704700002800002002480168FE
:100F9000491C01607047000028000020074810B578
:100FA000016841F010010160032000F05DF80020AD
:100FB00000F006F800F016F8002010BD00200240F6
:100FC00010B5044600F0A6F94FF47A71B0FBF1F0C9
:100FD00000F007FE00222146501E00F025F80020F8
:100FE00010BD0000094808B5816941F00101816127
:100FF000806900F001000090032000F035F8002225
:10100000BDE808401146501E00F00EB80010024026
:1010100000F01F02012191404009800000F1E02012
:10102000C0F8001170470000F0B40E4B1B680C466E
:10103000C3F30223C3F10705042D00D90425191DAC
:10104000072901D2002300E0DB1E012606FA05F184
:10105000491E214099409E40761E16403143F0BC07
:1010600001F096B90CED00E0064900F007020868AF
:101070004FF6FF03184040EA0220034A104308607D
:10108000704700000CED00E00000FA052DE9F04784
:10109000DFF8789205460E46D9F80000022300F0EA
:1010A0000707012041044206994C41F28838B742B3
:1010B00071D2D9F800C02CF0070C4CEA060CC9F824
:1010C00000C0D9F8007007F00707B7426FD12E783B
:1010D000B60705D56668AF6826F0F0063E43666041
:1010E0002E78F60756D06E68012E0BD0022E1ED039
:1010F00093FAA3F1B1FA81F141F02001490924D01A
:10110000216823E091FAA1F2B2FA82F242F02002C1
:10111000520901D0226800E0626A91FAA1F1B1FAA5
:1011200081F101F01F018840024240D017E092FA9D
:10113000A2F1B1FA81F141F02001490901D0216801
:1011400000E0616A92FAA2F202E0616A93FAA3F205
:10115000B2FA82F202F01F029040014227D060688A
:1011600020F0030030436060FFF70AFF064668681E
:10117000012809D00228474613D01EE0FFF700FFE0
:10118000801BB84201D992E047466068C0F38100F5
:101190000128F3D1A1E015E0FFF7F2FE801BB84271
:1011A00073D86068C0F381000228F5D195E092E021
:1011B000FFF7E6FE801BB84279D8606810F00C0F8C
:1011C000F6D18AE02F78BF0707D56768D5F808C041
:1011D00027F0F00747EA0C0767602F78FF076DD00C
:1011E0006F68012F0BD0022F1ED093FAA3F1B1FA32
:1011F00081F141F02001490924D0216823E091FACE
:10120000A1F2B2FA82F242F02002520901D0226821
:1012100000E0626A91FAA1F1B1FA81F101F01F01D7
:101220008840024257D017E092FAA2F1B1FA81F158
:1012300041F02001490901D0216800E0616A92FA79
:10124000A2F202E0616A93FAA3F2B2FA82F202F029
:101250001F02904001423ED0606820F003003843F6
:101260006060FFF78DFE07466868012807D00228F6
:1012700011D01FE0FFF784FEC11B414517D86068FD
:10128000C0F381000128F5D118E010E0FFF778FEE7
:10129000C11B41450BD86068C0F381000228F5D11D
:1012A0000CE000BFFFF76CFEC11B414502D90320D3
:1012B000BDE8F087606810F00C0FF3D1D9F800108A
:1012C00021F007013143C9F80010D9F8000000F0FF
:1012D0000700B04201D00120EAE72878400705D591
:1012E0006068E96820F4E0600843606028780007DF
:1012F00006D56068296920F4605040EAC10060604A
:101300000020FFF75DFE0020D2E700000020024031
:101310000010024000B500F043F808494968F02287
:1013200092FAA2F201F0F001B2FA82F2D140044A3C
:10133000515CC8400349086000BD00000010024035
:10134000583B02080000002000B5FFF7E3FF074903
:1013500049684FF4E06292FAA2F201F4E061B2FA55
:1013600082F2D140024A515CC84000BD00100240E8
:10137000583B020800B5FFF7CDFF074949684FF415
:10138000605292FAA2F201F46051B2FA82F2D140B4
:10139000024A515CC84000BD00100240583B0208A0
:1013A00010B51AA385B00FCB8DE80F001BA01C4B06
:1013B000006804905A681B4802F00C01042902D00E
:1013C000082902D0184805B010BD4FF4701494FAE3
:1013D000A4F402F47011B4FA84F4E140D2031DF8CD
:1013E00001100FD55A684FF4003393FAA3F302F4B7
:1013F0000032B3FA83F3DA4004AB9A5CB0FBF2F04C
:101400004843E0E709484843DDE7000002030405DC
:10141000060708090A0B0C0D0E0F10100102000040
:10142000001002408096980000127A0000093D00EA
:101430002DE9F84F05460078FA4EC0074FF0010439
:1014400025D070686704C0F38100012807D0706858
:10145000C0F3810002281BD17068C00318D597FA29
:10146000A7F0B0FA80F040F02000400901D03068C9
:1014700000E0706A97FAA7F1B1FA81F101F01F015B
:1014800004FA01F1084202D06868002876D081E0B1
:10149000306820F480303060306820F48020306084
:1014A000FFF76EFD804605E0FFF76AFDA0EB080040
:1014B00064287CD897FAA7F0B0FA80F040F02000BA
:1014C000400901D0306800E0706A97FAA7F1B1FADC
:1014D00081F101F01F0104FA01F10842E4D16868CA
:1014E000B0F5803F0BD010B1B0F5A02F11D030680F
:1014F00020F480303060306820F4802002E03068D2
:1015000040F480303060686820B3FFF739FD8046D2
:101510000AE0306840F480203060F0E7FFF730FDEB
:10152000A0EB08006428C4D897FAA7F0B0FA80F0BE
:1015300040F02000400901D0306800E0706A97FA5E
:10154000A7F1B1FA81F101F01F0104FA01F108429B
:10155000E4D01FE0FFF714FD804605E0FFF710FD23
:10156000A0EB08006428A4D897FAA7F0B0FA80F09E
:1015700040F02000400902D0306801E0B7E0706A16
:1015800097FAA7F1B1FA81F101F01F0104FA01F114
:101590000842E3D12878DFF8908280074FF00009F5
:1015A0004FF002075AD5706810F00C0F00E07AE196
:1015B0004FF0F80B07D07068C0F3810002281BD1F0
:1015C0007068C00318D497FAA7F0B0FA80F040F022
:1015D0002000400901D0306800E0706A97FAA7F156
:1015E000B1FA81F101F01F0104FA01F108422AD099
:1015F000286901287BD126E0286980B394FAA4F0F9
:10160000B0FA80F048F82040FFF7BAFC824605E0C7
:10161000FFF7B6FCA0EB0A00022884D897FAA7F0DF
:10162000B0FA80F040F02000400901D0306800E0BE
:10163000706A97FAA7F1B1FA81F101F01F0104FA7B
:1016400001F10842E4D030689BFAABF26969B2FA62
:1016500082F220F0F80091400843306025E0FFE777
:1016600094FAA4F1B1FA81F148F82190FFF788FCCF
:10167000824605E0FFF784FCA0EB0A000228CCD8E4
:1016800097FAA7F0B0FA80F040F02000400901D0AE
:10169000306800E0706A97FAA7F1B1FA81F101F0C1
:1016A0001F0104FA01F10842E4D1287800076ED541
:1016B000A869B8B394FAA4F0B0FA80F008EB8000FF
:1016C000C0F88044FFF75CFC824605E0FFF758FC59
:1016D000A0EB0A000228A0D897FAA7F0B0FA80F091
:1016E00040F06000B4EB501F02D130680CE096E18E
:1016F00097FAA7F0B0FA80F040F06000B7EB501F07
:1017000001D1306A00E0706A97FAA7F1B1FA81F16D
:1017100001F01F0104FA01F21042D7D00120FFF7B7
:1017200021FB34E0FFE794FAA4F1B1FA81F108EB70
:101730008101C1F88094FFF723FC824606E000BFD8
:10174000FFF71EFCA0EB0A00022898D897FAA7F032
:10175000B0FA80F040F06000B4EB501F01D1306867
:101760000BE097FAA7F0B0FA80F040F06000B7EB1A
:10177000501F01D1306A00E0706A97FAA7F1B1FA00
:1017800081F101F01F0104FA01F21042D8D128784A
:10179000400770D5F06940F08050F061F069DFF8E3
:1017A0008CB000F080500090DBF8001041F48071A4
:1017B000CBF80010FFF7E4FB824605E0FFF7E0FB03
:1017C000A0EB0A0064286ED8DBF80000C005F5D550
:1017D000306A20F001003062306A20F0040030628C
:1017E000FFF7CEFB834641F2883A05E0FFF7C8FBDE
:1017F000A0EB0B01514556D897FAA7F0B0FA80F04C
:1018000040F04000B4EB501F01D1306811E097FA6E
:10181000A7F0B0FA80F040F04000B7EB501F07D1BE
:10182000306A06E0001002400000424200700040B2
:10183000706A97FAA7F1B1FA81F101F01F0104FA79
:1018400001F10842D2D1E86801280AD008B1052880
:1018500012D0306A20F001003062306A20F00400BB
:1018600002E0306A40F001003062E86898B3FFF7A8
:1018700087FB83460CE05AE0306A40F00400306297
:10188000EFE700BFFFF77CFBA0EB0B0151450AD847
:1018900097FAA7F0B0FA80F040F04000B4EB501F88
:1018A00002D130680CE09DE097FAA7F0B0FA80F022
:1018B00040F04000B7EB501F01D1306A00E0706A81
:1018C00097FAA7F1B1FA81F101F01F0204FA02F1CF
:1018D0000842D7D02BE0FFE7FFF752FB834605E035
:1018E000FFF74EFBA0EB0B0151457BD897FAA7F011
:1018F000B0FA80F040F04000B4EB501F01D13068E6
:101900000BE097FAA7F0B0FA80F040F04000B7EB98
:10191000501F01D1306A00E0706A97FAA7F1B1FA5E
:1019200081F101F01F0204FA02F10842D8D1E869FE
:1019300080B37168C1F38101022970D04FF08071CA
:101940004F000228484609D091FAA1F1B1FA81F17D
:1019500048F82100FFF714FB054669E0894691FA33
:10196000A1F1B1FA81F1C24648F82100FFF708FB66
:10197000804605E0FFF704FBA0EB0800022854D8DE
:1019800097FAA7F0B0FA80F040F02000400902D0AA
:10199000306801E061E0706A97FAA7F1B1FA81F16D
:1019A00001F01F0104FA01F10842E3D1286AB0F501
:1019B000803F05D17068A96820F40030084370604A
:1019C000D5E908010843716821F474110843706077
:1019D00099FAA9F0B0FA80F04AF82040FFF7D0FA5F
:1019E000054606E021E000BFFFF7CAFA401B0228C7
:1019F0001BD897FAA7F0B0FA80F040F02000400919
:101A000001D0306800E0706A97FAA7F1B1FA81F16D
:101A100001F01F0104FA01F10842E5D01DE01EE0CB
:101A2000FFF7AEFA401B022802D90320BDE8F88F69
:101A300097FAA7F0B0FA80F040F02000400901D0FA
:101A4000306800E0706A97FAA7F1B1FA81F101F00D
:101A50001F0104FA01F10842E2D10020E6E701206B
:101A6000E4E7000010B5040003D094F8510010B171
:101A700004E0012010BD204600F038F8022084F870
:101A800051002068016821F040010160D4E90101A2
:101A90000843D4E903121143084361690843218BC9
:101AA00001F400710843E1690843216A0843A16A0F
:101AB000084321680860A069042101EA1040616AB6
:101AC0000843216848602168E06A08612068C169AC
:101AD00021F40061C16104490020087060650120A3
:101AE00084F85100002010BD2C000020F0B5304BD0
:101AF000016800242F48022503262F4A85B0994209
:101B000017D1816941F4805181618069694600F48F
:101B100080500490B020CDE900050396154610468C
:101B2000FFF72CF94020CDE90004694628460294CD
:101B300017E0224B224F994217D1C16941F48041ED
:101B4000C161C069694600F4804004904FF43040A0
:101B5000CDE9000503963846FFF710F94FF48040B1
:101B60001FE0FFF70BF905B0F0BD164B9942FAD113
:101B7000C16941F40041C161C069694600F4004097
:101B80000490D813CDE9000503961046FFF7F6F848
:101B90002820CDE90005694603963846FFF7EEF8A0
:101BA0001020CDE90004694638460294D9E70000C8
:101BB00000300140001002400008014000380040A1
:101BC000000C0140003C00404FF0E021042808696F
:101BD00003D020F004000861704740F00400FAE7E9
:101BE000704710B5401EB0F1807F01D3012010BDB9
:101BF0004FF0E02460610F21601700F0C9FB002066
:101C0000A06107202061002010BD10B5FFF7E8FF9C
:101C100010BD4FF0E020016921F002010161704721
:101C20007047704730B590F83820012A20D0012243
:101C300080F83820022380F8393003685C6824F08B
:101C400070045C6003685C680D682C435C6003682A
:101C50009C6824F080049C6003689C6849680C437D
:101C60009C6080F83920002180F83810084630BD8B
:101C7000022030BD10B5040003D094F8390010B133
:101C800007E0012010BD002084F83800204600F055
:101C90000DF8022084F83900211D206801F00EFBA8
:101CA000012084F83900002010BD000008B5154A55
:101CB0000168154891420ED1C16941F01001C1611E
:101CC000C069002200F01000009011463620FFF796
:101CD000ABF9362010E00D4A914211D1C16941F0B3
:101CE0002001C161C069002200F02000009011466F
:101CF0003720FFF799F93720BDE80840FFF788B98A
:101D000008BD000000100040001002400014004018
:101D10000168CA6842F00102CA600068016841F0C7
:101D200001010160002070470168CA6822F00102C9
:101D3000CA600068016A41F21112114207D1016ABA
:101D40009210114203D1016821F0010101600020CD
:101D50007047704770B50446006801694FF0000590
:101D6000C943890715D4C168C943890711D4E91E3D
:101D7000016101202076206880698007204602D01A
:101D8000FFF7E7FF04E000F098F8204600F096F82F
:101D9000257620680169C943490717D4C168C9433A
:101DA000490713D46FF004010161022020762068F6
:101DB000806910F4407F204602D0FFF7CAFF04E09C
:101DC00000F07BF8204600F079F82576206801695C
:101DD000C943090716D4C168C943090712D46FF073
:101DE00008010161042020762068C0698007204630
:101DF00002D0FFF7AEFF04E000F05FF8204600F0ED
:101E00005DF8257620680169C943C90617D4C16801
:101E1000C943C90613D46FF0100101610820207670
:101E20002068C06910F4407F204602D0FFF791FF80
:101E300004E000F042F8204600F040F825762068E3
:101E40000169C943C90708D1C168C943C90704D199
:101E5000891E0161204600F032F820680169C943FB
:101E6000090609D4C168C943090605D46FF0800189
:101E700001612046FFF7D4FE20680169C943490685
:101E800009D4C168C943490605D46FF04001016116
:101E9000204600F015F820680169C94389060BD473
:101EA000C168C943890607D46FF02001016120464B
:101EB000BDE87040FFF7B5BE70BD70477047704712
:101EC0007047704738B5044600680168C26811F071
:101ED000010F02F4807204D01AB1E16B41F00101EC
:101EE000E1630168C1F34002416901F0010122B1DF
:101EF00019B1E26B42F00402E2630268C2F38002AD
:101F000022B119B1E26B42F00202E2630268C2F34D
:101F1000C00222B119B1E16B41F00801E16301682F
:101F2000C068C1F3401100F0200019B110B1204683
:101F300001F0F2FB20680168C068C1F3C01100F035
:101F4000800019B110B1204601F0AAFC2168086890
:101F5000CA68C0F3801002F04002012570B16AB176
:101F6000CA68204622F04002CA6094F8391032292B
:101F700011D080F8395000BF00F0DCF8E06B002889
:101F800008D0206801684068009084F839502046E5
:101F9000FFF797FF38BD222180F83910ECE770B5C4
:101FA000040004D094F83900002510B106E00120A7
:101FB00070BD84F83850204600F020F8022084F8E4
:101FC00039002068C16821F40051C160204601F049
:101FD000F7FB2068016921F49041016120684169A3
:101FE00021F02A0141612068C16841F40051C160BB
:101FF000E563012084F83900002070BD10B5006849
:10200000154986B0884225D11448816941F4804140
:1020100081618069124C00F4804004904FF400709C
:102020000090022001900320039069462046FEF7AD
:10203000A5FE00212015CDE9000102916946204648
:10204000FEF79CFE002211462520FEF7EDFF25201D
:10205000FEF7DEFF06B010BD003801400010024060
:1020600000080140704700002DE9F047044690F851
:10207000390099460D46012801D0222858D12DB3A8
:1020800022B394F83800012852D0012684F8386031
:102090000027E76394F8390022281AD05FF0120075
:1020A00084F83900A284E2844FF48058E08C4B46D7
:1020B000401EE084A0684FF0000240454FF08001D0
:1020C000204613D101F01FFC08BB04E00120BDE84D
:1020D000F0873220E4E728882168C0F308004860D0
:1020E000206908B16D1C08E0AD1C06E001F00BFC96
:1020F00068B9216815F8010B4860E08C0028D5D13B
:102100004B4600224021204601F0FDFB08B1032090
:10211000DDE794F83900322806D084F8396000BF32
:1021200084F838700020D2E7222084F83900F7E7DD
:102130000220CCE77047000000B599B06022124938
:102140006846FEF782F811A000F0B4F81AA000F07B
:10215000B1F821A000F0AEF828A000F0ABF82EA056
:1021600000F0A8F8684600F0A5F831A000F0A2F849
:102170003BA000F09FF848A000F09CF8684600F0F3
:1021800099F819B000BD0000683B0208414F313694
:10219000383120506F7765724D4355206170706CF7
:1021A00069636174696F6E2069732072756E6E6900
:1021B0006E67210D0A0000004861726477617265E4
:1021C0002076657273696F6E20636F646520697332
:1021D0003A20410D0A000000536F66747761726502
:1021E0002076657273696F6E20636F646520697312
:1021F0003A2056302E3938410D0A00004175746876
:102200006F722069732045696E666163686D616EE7
:102210006E210D0A0000000044617465206973207E
:10222000323031372E30342E3038210D0A00000084
:1022300043504C44277320706F77657220766F6C23
:1022400074616765207375706572766973696F6E06
:102250002069732064697361626C6564210D0A00F2
:10226000446F6E277420737570706F727420746F72
:1022700020726573746172742073797374656D2054
:102280007768656E20574454206973206F766572B5
:10229000666C6F77210D0A00446562756720427590
:1022A00074746F6E20697320616374697665210DA3
:1022B0000A00000070B50446FEF7E0FC0546204623
:1022C000FDF7A4FF82B221462846BDE870404FF0DA
:1022D000FF33FFF7C9BE20B1006801218068000606
:1022E00000D40021084670470C480B494FF40062A7
:1022F00001604FF4827141600021C0E90212D201F5
:102300000161C0E905122022C0E907214162816212
:102310000A21C162FFF7A6BB00300140540600202D
:102320000C480B494FF4006201604FF48271416028
:102330000021C0E90212D2010161C0E90512182290
:10234000C0E90721416281620A21C162FFF78ABBAD
:1023500000380040AC0600200C480B494FF40062E6
:1023600001604FF4827141600021C0E90212D20184
:102370000161C0E905121822C0E9072141628162AA
:102380000A21C162FFF76EBB003C00400407002039
:102390000907090E002806DA00F00F0000F1E0201E
:1023A00080F8141D704700F1E02080F80014704799
:1023B0002DE9FF4101244FF48051002502268DE8CC
:1023C0007200174F22463846FEF7D5FD694638465B
:1023D000FEF7D4FC61038DE87200DFF8488001222B
:1023E0004046FEF7C8FD69464046FEF7C7FC20217F
:1023F0008DE872000C4F01223846FEF7BCFD69469D
:102400003846FEF7BBFC80218DE872000122404671
:10241000FEF7B1FD69464046FEF7B0FCBDE8FF811E
:10242000001801400014014000100140034880687A
:1024300008B1002070470120704700001000002004
:102440002DE9FF4100240126CDE90064DFF8188161
:10245000022569464046CDE90245FEF78FFCCDE9ED
:102460000064424F69463846CDE90245FEF786FCD6
:10247000CDE9005469464046CDE90245FEF77EFCB1
:10248000CDE9005469463846CDE90245FEF776FCB1
:102490000426CDE9006469464046CDE90245FEF7D1
:1024A0006DFCCDE9006469463846CDE90245FEF78A
:1024B00065FC0826CDE9006469464046CDE9024541
:1024C000FEF75CFCCDE9006469463846CDE902457B
:1024D000FEF754FC1026CDE9006469464046CDE97C
:1024E0000245FEF74BFCCDE9006469463846CDE96C
:1024F0000245FEF743FC2026CDE9006469464046CC
:10250000CDE90245FEF73AFCCDE90064694638465C
:10251000CDE90245FEF732FC4020CDE90004144E1F
:1025200069463046CDE90245FEF728FC8020CDE91A
:10253000000469463046CDE90245FEF71FFCE8017C
:10254000CDE9000469463046CDE90245FEF716FCA8
:102550002802CDE9000469463046CDE90245FEF780
:102560000DFCBDE8FF81000000180140001401408F
:10257000000C014070B5FEF703FD16490968814261
:1025800026D0154D002405F1300600BF05EB0410E0
:10259000FEF7A6FB06EB0410FEF7A2FB641CE4B2F8
:1025A000032CF3D30C486030FEF79AFB0A487030D6
:1025B000FEF796FB08488030FEF792FB0648903005
:1025C000FEF78EFBBDE870400348A030FEF788BBE5
:1025D00070BD00000C000020140800202DE9F04719
:1025E000DFF8C88000260324012508F1300900BF68
:1025F00008EB0617384600F027F97C70BC703D7375
:102600003D7009EB0617384600F01EF97C70BC706F
:10261000761C3D73F6B23D70032EE9D32449C8F809
:1026200008102449C8F818102349C8F8281023496D
:10263000C9F808102249C9F818102249C9F8281009
:102640001A4900206031204A4C708C70C8700871A3
:102650000D738A600D7010311C4A4C708C70C870FC
:1026600008710D738A600D701031194A4C708C70AE
:10267000C87008710D738A600D701031154A4C7066
:102680008C70C87008710D738A600D7010314C70B9
:102690008C70C87008710D730F4888600D70FEF75C
:1026A0006FFC0E490860BDE8F087000014080020A8
:1026B0008933020819340208A9340208A133020838
:1026C00031340208C1340208652F02087D2F020848
:1026D000352F02084D2F0208B52E02080C000020ED
:1026E0002DE9FF41012502244FF480610026039467
:1026F0002A4F8DE862002A463846FEF73CFC6946C0
:102700003846FEF73BFBA10203948DE862000122EC
:102710003846FEF730FC69463846FEF72FFBE101EC
:1027200003948DE8620001223846FEF724FC6946D6
:102730003846FEF723FB210203948DE86200012254
:102740003846FEF718FC69463846FEF717FBE102EB
:1027500003948DE8620001223846FEF70CFC6946BE
:102760003846FEF70BFB610303948DE862000122FB
:102770003846FEF700FC69463846FEF7FFFA8DE85A
:10278000700021460394064C01222046FEF7F3FB1D
:1027900069462046FEF7F2FABDE8FF8100140140C9
:1027A000000801402DE9F047264C2079002840D14F
:1027B000012560792F4610B9A06830B100250026A8
:1027C000B846A719387B48B903E0FEF78FF967715F
:1027D000F5E704EB8600006958B10025761CF6B2D7
:1027E000032EEED30026A719387BE0B1387FD8B985
:1027F00005E0304600F0D6FE87F80C80EEE704EBEB
:102800008609D9F8200020B100256421C9F83810C4
:102810000AE0304600F06CFE10B1D9F8380001E053
:10282000D9F82C0038B10025761CF6B2032EDAD385
:102830002571BDE8F087304600F082FE87F81C80E5
:10284000F2E70000C408002000210170417081708F
:10285000C17001718160017370470068C06880B207
:10286000704710B510B10123026802E0002309E0AF
:10287000D4689468E407FBD1146844F04004146001
:102880000068C160184610BD2DE9FF4101244FF4D6
:102890000041002503268DE87200DFF8A48022465F
:1028A0004046FEF768FB69464046FEF767FA802718
:1028B00001AB009783E87000012239464046FEF7DD
:1028C0005AFB69464046FEF759FACDE90074DFF835
:1028D0007480CDE90256012239464046FEF74BFB93
:1028E00069464046FEF74AFAA70201AB009783E823
:1028F0007000012239464046FEF73DFB69464046DE
:10290000FEF73CFA04218DE87200DFF83C800122DA
:102910004046FEF730FB69464046FEF72FFACDE908
:1029200000740A4CCDE90256012239462046FEF7D2
:1029300022FB69462046FEF721FABDE8FF81000030
:10294000001801400010014000080140000C014047
:1029500010B500F043F8BDE8104000F057BA000091
:102960002DE9F04100241B4E1B4D2046347074703D
:1029700001232B54401CC0B20328FAD3EB702C71F6
:1029800064216C71002040F6B83C42F2107EA960D0
:102990002F1805EB80023C7311613C77401CC2F894
:1029A0002CE0C0B2C2F820C091630328F0D305F830
:1029B000443F6C70FEF7E4FA6860FEF7E1FAC6E99E
:1029C0000304B470F47034714FF4FA70B060BDE871
:1029D000F081000010000020C408002070B5204CD9
:1029E000032520780A2838D2DFE800F005070B100D
:1029F0001C2024282C3001200EE0FDF7EBFC0220E7
:102A00000AE0FEF737F9FFF783F907E0FFF7CAFEA0
:102A1000FFF70CFDE8B901E0607000E065706078D8
:102A2000207070BDFDF79AFD0520F5E700F03CFE33
:102A30000620F1E700F0CAFD0720EDE700F0B4FF43
:102A40000820E9E700F048FA0920E5E705480079A1
:102A500008B10420E0E70320DEE70020DCE7000007
:102A600010000020C40800202DE9FF4700244FF487
:102A70008060CDE90004DFF81091022569464846E0
:102A8000CDE90245FEF77AF96803CDE9000469460D
:102A90004846CDE90245FEF771F90127CDE90074FA
:102AA000DFF8E8A069465046CDE90245FEF766F931
:102AB000CDE9005469465046CDE90245FEF75EF97E
:102AC0004FF00808CDE9008469465046CDE902453B
:102AD000FEF754F90420CDE9000469465046CDE9DB
:102AE0000245FEF74BF92802CDE900046946484645
:102AF000CDE90245FEF742F9AE02CDE90064694630
:102B00004846CDE90245FEF739F9A803CDE90004AE
:102B100069461F48CDE90245FEF730F9CDE900745A
:102B20001C4F69463846CDE90245FEF727F9E80112
:102B3000CDE9000469465046CDE90245FEF71EF98D
:102B40001020CDE9000469465046CDE90245FEF764
:102B500015F9CDE90064032569465046CDE90245E3
:102B6000FEF70CF9CDE9008469460B48CDE9024532
:102B7000FEF704F9CDE9006469463846CDE902451F
:102B8000FEF7FCF8BDE8FF87001801400010014087
:102B900000140140000C0140000801402DE9F84FED
:102BA000FEF7EEF9DFF8FC900646D9F80010451A5A
:102BB00071D03D4F002407F1300807F1600A07F19A
:102BC000900B00BF07EB0410FEF78AF808EB041027
:102BD000FEF786F80AEB0410FEF782F80BEB041000
:102BE000FEF77EF8641CE4B2032CEBD3DFF8B88068
:102BF0000027BB4608F1C00807EB470000EBC70100
:102C000018F82120DAB308EB81046078B8BBA0780B
:102C10000090616988478246607FB8B1206A217F51
:102C200028445145206207D16168884201D90120BA
:102C300000E00020607028E0A168884201D20120F5
:102C400000E000206070C4F820B01EE0E168009849
:102C50008847D0B194F82400B8B1009800F0DAFEAB
:102C600098B121690098884750B1217F514507D01C
:102C70000121C4F820B0617784F824B005E006E0B3
:102C8000A06AA8420BD9401BA06284F81CA07F1C3C
:102C9000FFB2032FB0D3C9F80060BDE8F88F84F805
:102CA00024B0C4E724000020100900202DE9F05FC3
:102CB0000023444EDFF81081DFF810B1DFF81091E7
:102CC0001D464FF47A7746F2A81A012403EB43001D
:102CD00000EBC30006EB800206F8204055709370AD
:102CE0003C485760C2E9050902F10801184681E82D
:102CF000200900F039FC1077557715625B1C82F8CB
:102D00002440DBB2C2F828A0032BDFD3DFF8B48065
:102D10000025A8F1C0080A2608F1300908F1600A68
:102D200008F1900B08EB05173846FFF78DFD7E7014
:102D3000BE703C7009EB05173846FFF785FD7E70C5
:102D4000BE703C700AEB05173846FFF77DFD7E70BC
:102D5000BE703C700BEB05173846FFF775FD03207E
:102D600078706D1CB870EDB23C70032DDAD31A493F
:102D7000C8F808101949C8F818101949C8F82810D7
:102D80001849C9F808101849C9F818101749C9F89E
:102D900028101749CAF808101649CAF81810164919
:102DA000CAF828101549CBF808101549CBF81810A7
:102DB0001449CBF82810FEF7E3F813490860BDE882
:102DC000F09F0000D009002009370208F134020802
:102DD000BD3002086935020859330208E933020898
:102DE0007934020841330208D13302086134020801
:102DF000B933020849340208D93402087133020891
:102E00000134020891340208240000202DE9F04129
:102E1000FEF7B6F825498A6C8864841A4879002739
:102E200030B98868A04202D3001B886000E08F6040
:102E30000026884608EB06010A7B12B1097F51B1D2
:102E400024E008EB86000169A14202D3091B01615D
:102E50001CE007611AE008EB8605E86AA04202D38D
:102E6000001BE86200E0EF62286AA04202D3001B68
:102E7000286200E02F62304600F03AFB90B1A86B68
:102E8000A04202D3001BA86300E0AF63761CF6B239
:102E9000032ECFD306488168A14205D3091B816068
:102EA000BDE8F0816420EEE78760F9E7C408002000
:102EB0001000002010B540210348FEF753F8012808
:102EC00000D0002010BD0000001801400148007B28
:102ED00070470000B40800202DE9F041FFF7F6FF2D
:102EE000134C012618B184F84460BDE8F08194F8D1
:102EF0004400002760B194F8450060B1FDF7D6FDAD
:102F0000FDF7C0FDFFF72CFDFFF7D0FE84F84570FC
:102F100084F84470E9E700F049F80025284600F0FD
:102F2000F7F86D1CEDB2032DF8D384F84560EFE798
:102F3000C408002010B580210348FEF713F80128CB
:102F400000D0002010BD0000000C014010B54FF46F
:102F500000710348FEF706F8012800D0002010BDDC
:102F6000000C014010B540210348FDF7FBFF01288C
:102F700000D0002010BD0000000C014010B54FF43F
:102F800080710348FDF7EEFF012800D0002010BD3E
:102F9000000C014004490020087010310870103105
:102FA00008701031087070477408002010B5FDF7E4
:102FB00095FDFDF78BFD03490020C870BDE810406A
:102FC000FFF7E8BFC40800202DE9FE432FA2324CD2
:102FD00007CA8DE8070021693048314FDFF8C48007
:102FE00000264FF48065A1B1A670E6702169491EE4
:102FF000216101222946FDF7BEFF01220421384646
:10300000FDF7B9FF012229464046FDF7B4FFBDE8B0
:10301000FE83A2781DF80210E2785AB1E278092AFC
:103020001ED0E278012A01D0227952002271227941
:10303000114215D100222946FDF79DFF00220421EF
:103040003846FDF798FF002229464046FDF793FFDA
:10305000E07809280FD3E670A078401CA0700DE03E
:1030600001222946FDF787FF012204213846FDF79A
:1030700082FF0122E8E7E078401CE070A0780A288F
:10308000C5D34FF466702061C1E7000068010500F8
:1030900001000B000113000010000020001001408F
:1030A00000080140000C014010B5FDF76FFFFEF76E
:1030B000ACFDBDE81040FFF787BF000010B5044627
:1030C00003281DD200F058FA204600F023FA0D49DB
:1030D00000202144087308770B4854B1012C0CD010
:1030E000022C0DD1002209488021BDE81040FDF7D7
:1030F00042BF00224FF40041F7E700228021F4E7AD
:1031000010BD0000C408002000180140001001405C
:103110002DE9F04700260746032849D2B24630463B
:10312000FDF774FD8046002508EB8514A07AB842AF
:103130001FD1207C94F81190FDF768FD014684F8BA
:1031400008A001EB891181F808A084F809A0A4F86F
:1031500024A0A4F822A0A4F81EA0A4F820A081F81E
:1031600009A0A1F824A0A1F822A0A1F81EA0A1F80E
:1031700020A06D1CEDB2082DD6D3761CF6B2032E1E
:10318000CDD3384600F0F8F9384600F0C3F9094DC0
:103190005446E81980F81CA0384600F04FFAEC5568
:1031A000384600F0A1FA3846BDE8F04700F016BCFA
:1031B000BDE8F087C408002030B58FB00120009032
:1031C0004FF4A0200024CDE901040225E803CDE955
:1031D00007504FF4A01009906846FEF729F9A0B9EE
:1031E0000F20CDE90A056802CDE90C4002210AA8AA
:1031F0000E94FDF74BFF40B9FEF78CF84FF47A714F
:10320000B0FBF1F0FEF7EDFC20B10748FDF72EFC16
:103210000FB030BD0420FEF7D7FC00221146501E2F
:10322000FDF702FFF4E70000000002080E48016805
:1032300041F00101016041680C4A114041600168A0
:103240000B4A11400160016821F48021016041684E
:1032500021F4FE0141604FF41F01816005480649D9
:1032600040F0006008607047001002400000FFF866
:10327000FFFFF6FE0000020008ED00E010B5FDF7CC
:10328000F5FC0446FDF7E4F82046FEF763FD204612
:10329000BDE81040FEF748BD70B5FDF7EBFC0446F5
:1032A000FDF7E4FC0546FDF73FF82046FEF752FD2A
:1032B0002846BDE87040FEF72BBD0000F0B502685F
:1032C0001A4B1B4D1B4E1C4F1C4C4FF0804C984210
:1032D00009D0A04207D0604505D0A84203D0B04233
:1032E00001D0B84204D122F0700E4A6842EA0E02C0
:1032F000984209D0A04207D0604505D0A84203D02B
:10330000B04201D0B84203D122F44075CA682A43C2
:1033100002608A68C2620A688262984201D0A04252
:1033200001D10969016301214161F0BD002C014017
:103330000004004000080040000C00400034014040
:1033400010B54FF480410348FDF70CFE012800D072
:10335000002010BD0018014010B54FF480610348F3
:10336000FDF700FE012800D0002010BD001801402C
:1033700010B54FF400610348FDF7F4FD012800D0BB
:10338000002010BD0018014010B501210348FDF7D1
:10339000E9FD012800D0002010BD00000018014008
:1033A00010B501210348FDF7DDFD012800D0002004
:1033B00010BD00000014014010B54FF40071034827
:1033C000FDF7D0FD012800D0002010BD00180140FD
:1033D00010B502210348FDF7C5FD012800D00020EB
:1033E00010BD00000010014010B501210348FDF799
:1033F000B9FD012800D0002010BD000000100140E0
:1034000010B501210348FDF7ADFD012800D00020D3
:1034100010BD0000000C014010B502210348FDF76B
:10342000A1FD012800D0002010BD000000180140BF
:1034300010B502210348FDF795FD012800D00020BA
:1034400010BD00000014014010B54FF400410348C6
:10345000FDF788FD012800D0002010BD00140140B8
:1034600010B504210348FDF77DFD012800D00020A0
:1034700010BD00000010014010B508210348FDF701
:1034800071FD012800D0002010BD00000010014097
:1034900010B510210348FDF765FD012800D000207C
:1034A00010BD00000010014010B504210348FDF7D5
:1034B00059FD012800D0002010BD00000018014077
:1034C00010B504210348FDF74DFD012800D0002070
:1034D00010BD00000014014010B54FF48071034886
:1034E000FDF740FD012800D0002010BD0010014074
:1034F000074901EB0011097B41B10549303101EB6E
:103500000010007B002800D0012070470020704789
:1035100010090020094B40B101280AD002280CD123
:10352000002241031846FDF726BD00224FF400613A
:10353000F8E700224FF40071F4E7704700140140EF
:10354000084B40B1012809D002280AD101224103C9
:103550001846FDF710BD0122D102F9E70122510200
:10356000F6E7704700140140024901EB0010007BB0
:1035700070470000A0090020094B40B101280AD083
:1035800002280CD10022C1021846FDF7F4BC00222B
:103590004FF48061F8E700224FF48071F4E7704740
:1035A00000140140084B40B1012809D002280AD17B
:1035B0000122C1021846FDF7DEBC01229102F9E7A3
:1035C00001221102F6E770470014014070B5FDF7C3
:1035D000D7FC1649CA68821A0A2A25D3C860002077
:1035E000FDF74CF8124C134D217B29B120B14FF45B
:1035F00000412846FDF7BBFC0120FDF73FF8617B49
:1036000021B118B180212846FDF7B1FC0220FDF759
:1036100035F8A17B002907D0002805D0BDE870400F
:1036200080210548FDF7A3BC70BD000010000020FC
:10363000C4080020001801400010014040B10128DA
:103640000BD002280ED1002220210748FDF793BCA1
:1036500000224FF480510548F8E700224FF4005152
:103660000348F3E7704700000010014000180140D4
:103670000014014040B101280AD002280CD10122D7
:1036800020210648FDF777BC012211030448F9E721
:10369000012251030348F5E7704700000010014084
:1036A000001801400014014010B50024204600F02D
:1036B000BBF988B1032C0CD20A4901EB0410007B42
:1036C00000B10120074A303202EB0411097B01B13D
:1036D00010B92046FFF71CFD641CE4B2032CE5D3AF
:1036E00010BD000014080020032809D2054A00215B
:1036F00002EB00121170034A303202EB001001702D
:103700007047000014080020024901EB0010007B04
:10371000704700007009002010B590F83910222978
:1037200003D0322901D0022010BD8168B1F5805F3D
:1037300011D00169002901681FD0496801F07F0399
:10374000816A4A1C82620B70C18D491E0904090CF2
:10375000C18518D030E00269816A002A0268526887
:1037600005D0D2B20A80816A491C8162ECE7C2F3BB
:1037700008020A80816A891CF7E74A68816A4B1C43
:1037800083620A70E0E70168CA6822F02002CA601A
:1037900090F83910322911D00168CA6822F4807279
:1037A000CA6001684A6922F001024A615FF00101C2
:1037B00080F83910FEF756FC002010BD1221F7E703
:1037C0002DE9F041044600680169E26821F44051A6
:1037D000114301612169A0680843616908432168B8
:1037E000CA6841F20C639A430243CA602068416987
:1037F000A26921F440711143416128492068642580
:103800004FF03208884218D1FDF7B4FD00EBC0013B
:1038100001EB001061688900B0FBF1F0B0FBF5F638
:10382000FDF7A8FD00EBC00101EB00106168890005
:10383000B0FBF1F7FDF79EFD17E0FDF785FD00EB0E
:10384000C00101EB001061688900B0FBF1F0B0FB32
:10385000F5F6FDF779FD00EBC00101EB00106168A2
:103860008900B0FBF1F7FDF76FFD00EBC00101EB44
:10387000001061688900B0FBF1F0B0FBF5F06FF06B
:103880001801484307EB800108EB0110B0FBF5F08D
:10389000216866F31F108860BDE8F08100380140A0
:1038A00090F83910122903D0322901D00220704734
:1038B0008168B1F5805F016A0BD04A1C0262026820
:1038C00009785160C18C491E0904090CC1840ED0CD
:1038D00017E009880268C1F30801516001690029F5
:1038E000016A02D0491C0162ECE7891CFBE7016810
:1038F000CA6822F08002CA600068C16841F04001D5
:10390000C160002070472DE9F0471D4690460E46E5
:103910000446FDF735FB07465FEA08004FF0000953
:103920004FF0010808D030E0681C05D095B1FDF7D4
:1039300027FBC01BA8420DD82068006836EA0000AB
:10394000F2D127E0681C20D025B1FDF719FBC01B80
:10395000A8421AD92068C16821F08001C16020689E
:10396000C16821F02001C1602068C16821F4807124
:10397000C1602068416921F00101416184F839800A
:1039800084F838900320BDE8F0872068006836EAA4
:103990000000D7D00020F6E710B5FDF76FF9BDE8BD
:1039A0001040FEF78FBA000070B50B4D002400BF29
:1039B00004EB440000EBC40015F8201031B105EB16
:1039C0008000417811B1816920468847641CE4B2C7
:1039D000032CEDD370BD0000D0090020032807D2CE
:1039E00000EB400202EBC000024A002102F8201066
:1039F00070470000D009002010B54FF40071044852
:103A0000FDF7B0FA08B1002010BD012010BD000084
:103A100000180140032803D202490844007F704780
:103A200000207047C4080020032802D20249085C25
:103A30007047002070470000C40800201CB5FDF747
:103A4000ADFA10B13D48FDF711F8FFF7B5FB3C4862
:103A5000816941F004018161816901F004010091F3
:103A6000816941F008018161806900F008000090DF
:103A7000FDF708F9FDF758F9FEF736FCFEF750FCA4
:103A8000FEF76AFC30482F49002401604FF4E13111
:103A9000C0E901140C21C460C0E904418461C4611F
:103AA000FEF77DFA284829493C384525C0E900152C
:103AB0006321C0E90241FEF7DDF82348009469461E
:103AC0003C380194FEF7AEF81F4821497838C0E928
:103AD00000150A21C0E90241FEF7CCF81A4800940B
:103AE000694678380194FEF79DF8FDF707F8FEF770
:103AF000F7FDFEF75DFCFEF7A3FCFEF7B5FFFEF752
:103B0000C3FEFEF76BFDFCF7C3FDFFF7CFF8FEF732
:103B100027FFFCF7CBFFFCF7B5FF32210D48FDF77F
:103B20007FF808B1FEF708FBFDF728F8FEF722FD45
:103B3000FFF734F8FEF70CFFF6E70000000002087C
:103B40000010024000380140D4070020001400405B
:103B500000100040F93902080000000001020304CF
:103B600001020304060708092D2D2D2D2D2D2D2DC5
:103B70002D2D2D2D2D2D2D2D2D2D2D2D2D2D2D2D75
:103B80002D2D2D2D2D2D2D2D2D2D2D2D2D2D2D2D65
:103B90002D2D2D2D2D2D2D2D2D2D2D2D2D2D2D2D55
:103BA0002D2D2D2D2D2D2D2D2D2D2D2D2D2D2D2D45
:103BB0002D2D2D2D2D2D2D2D2D2D2D2D2D2D2D2D35
:103BC0002D2D0D0A0A000000E83B0208000000202D
:103BD000300000006C010208183C02083000002090
:103BE000881000008801020800A24A0400000000BA
:103BF00000000000000000000000000000000000C5
:103C000000000000000000000000000000000000B4
:103C10000000000000000000FFFFFFFFFFFFFFFFAC
:020000040803EF
:10FFF000FFFFFFFFFFFFFFFFFFFFFFFF639D6F9608
:00000001FF
